:020000022000DC
:1060000000F0002069630200516302005363020044
:10601000556302005763020059630200000000004C
:106020000000000000000000000000005B630200B0
:106030005D630200000000005F6302006163020014
:106040006363020063630200636302006363020030
:10605000636302006363020089D803006363020084
:10606000636302006363020021AD03006363020007
:106070006363020063630200636302006363020000
:106080006363020051550400E5DA02006363020015
:10609000B55504006363020069E303006363020013
:1060A00063630200636302006363020063630200D0
:1060B0006363020063630200000000000000000050
:1060C00063630200636302006363020063630200B0
:1060D0006363020063630200636302000000000068
:1060E00000000000000000000000000000000000B0
:1060F00000000000000000000000000000000000A0
:10610000000000000000000000000000000000008F
:10611000000000000000000000000000000000007F
:10612000000000000000000000000000000000006F
:10613000000000000000000000000000000000005F
:10614000000000000000000000000000000000004F
:10615000000000000000000000000000000000003F
:10616000000000000000000000000000000000002F
:10617000000000000000000000000000000000001F
:10618000000000000000000000000000000000000F
:1061900000000000000000000000000000000000FF
:1061A00000000000000000000000000000000000EF
:1061B00000000000000000000000000000000000DF
:1061C00000000000000000000000000000000000CF
:1061D00000000000000000000000000000000000BF
:1061E00000000000000000000000000000000000AF
:1061F000000000000000000000000000000000009F
:10620000334934480A1A02D0072291438D46324955
:1062100032480A1A06D00722914381F309880222E4
:1062200082F314882E482F492F4A00F03FF82F4858
:106230002F49304A00F03AF82F483049304A00F0F0
:1062400035F830483049314A00F030F830483149AB
:10625000314A00F02BF831483149324A00F026F833
:1062600031483249324A00F021F83248324900229E
:1062700000F027F831483249002200F022F8314876
:106280003149091A1FF022FC1F482049884205D0D5
:106290000268043003B4904703BCF7E70020864649
:1062A000EC4600200021294A9047FEE7884207D0AB
:1062B000521A05D0037801300B700131013AF9D13F
:1062C0007047884202D002700130FAE77047000040
:1062D00000F0002000E8002000F0002000F0002086
:1062E000B4810400F02D0020FC2E00209C630200ED
:1062F0009C630200345B0400B4810400F02D002094
:10630000F02D0020045F0400045F0400045F04001B
:10631000045F0400045F0400045F0400045F0400E1
:10632000045F0400B4810400C0820400FC2E00203D
:10633000FC2E0020FC2E0020DC5F0020DC5F002013
:10634000DC5F0020DC5F0020DC630020196D0200B0
:10635000FEE7FEE7FEE7FEE7FEE7FEE7FEE7FEE715
:10636000FEE7FEE700F002B8FFF7FCBF08484FF079
:10637000070188438546074880470748016841F47C
:1063800070010160BFF34F8FBFF36F8FFFF738BF0E
:0C63900000F00020A9E8030088ED00E008
:10639C0041DF704730B583B00C461D460A88DAB928
:1063AC00184B1B6813F4804F03D0174B1B68032B3F
:1063BC0006DC069B02221A8023882B8003B030BD9A
:1063CC00124BD3F80435124A009240F24F12114985
:1063DC00042008F085FCECE70A4B1B6813F4804F93
:1063EC00E7D0094B1B68032BE3DD084BD3F80435CE
:1063FC000192094A00924FF4AA720649042008F04F
:10640C006FFCD6E7982E0020942E0020001001403F
:10641C00445F04003D5F0400685F040030B583B046
:10642C000C461D460A88DAB9184B1B6813F4804FCA
:10643C0003D0174B1B68032B06DC069B02221A8029
:10644C0023882B8003B030BD124BD3F80435124A8D
:10645C0000924FF49B721149042008F041FCECE7C8
:10646C000A4B1B6813F4804FE7D0094B1B68032BB6
:10647C00E3DD084BD3F804350192094A00924FF43E
:10648C009E720649042008F02BFCD6E7982E0020BB
:10649C00942E002000100140945F04003D5F040026
:1064AC00685F040070B586B00E4615461C46104B4E
:1064BC001B6813F4804F03D00E4B1B68032B06DCB8
:1064CC000A9B042018802680658006B070BD0A4B9C
:1064DC00D3F804350492039202910191074A009279
:1064EC0040F21D120649042008F0FAFBE8E700BF51
:1064FC00982E0020942E002000100140B85F04005C
:10650C003D5F040070B586B00E4614460B9D104BD3
:10651C001B6813F4804F03D00E4B1B68032B06DC57
:10652C000C9B04221A802E806C8006B070BD0A4B26
:10653C00D3F804350492039202910191074A009218
:10654C004FF484720649042008F0CAFBE8E700BF48
:10655C00982E0020942E002000100140B85F0400FB
:10656C003D5F040070B584B00C4615461E460D4BBD
:10657C001B6813F4804F03D00B4B1B68032B04DCFC
:10658C00022333802C8004B070BD084BD3F8043543
:10659C0002910191064A0092F5220649042008F066
:1065AC009FFBEDE7982E0020942E00200010014058
:1065BC000C6004003D5F040070B586B015461C46A7
:1065CC000E4651B342292AD0224B1B6813F4804F3C
:1065DC0003D0214B1B68002B12DC2188013189B2BE
:1065EC0022888A422CD21B4B1B6813F4804F03D099
:1065FC00194B1B68002B14DC0023238006B070BDE4
:10660C00164BD3F8043502910191154A0092CD2214
:10661C001449012008F064FBDFE70121E0E70121C8
:10662C00DEE70E4BD3F804350492039102960196E3
:10663C000D4A0092D8220B49012008F051FBDBE7F0
:10664C0000210A4B187801F005FB287001232380E8
:10665C00D4E700BF982E0020942E0020001001409B
:10666C00386004003D5F04006060040008300020C6
:10667C0000B583B00F4B1B6813F4804F03D00E4B47
:10668C001B68032B09DC0322C8210F2002F042F8FF
:10669C000CF0ECFB03B05DF804FB084BD3F80435AD
:1066AC00074A009240F265120649042008F018FBD4
:1066BC00E9E700BF982E0020942E00200010014026
:1066CC00AC6004003D5F040030B583B00546441C4B
:1066DC00484B1B6813F4804F03D0474B1B68032BAC
:1066EC0007DC631E042B60D8DFE803F01028303879
:1066FC004000424BD3F804350194414A009240F2D9
:10670C008F124049042008F0EBFAEAE73E4A13786E
:10671C00012B38BF0123013B1370032D0CD8354BD3
:10672C001B6813F4804F03D0334B1B68032B51DCD5
:10673C004221364801F052FD03B030BD324A137885
:10674C000A2B38BF0A230A3B1370E6E72E4A13784C
:10675C00632B28BF632301331370DEE72A4A1378B7
:10676C005A2B28BF5A230A331370D6E70CF01AFBA6
:10677C00A0B9204B1B6813F4804FCED01E4B1B6866
:10678C00032BCADD1D4BD3F80435214A00924FF47C
:10679C00E0721C49042008F0A3FABEE70EF0F8F8EA
:1067AC000CF0F4FAFFF764FFB7E7124B1B6813F415
:1067BC00804FB2D0104B1B68032BAEDD0F4BD3F8C0
:1067CC000435144A00924FF4E3720E49042008F089
:1067DC0087FAA2E7094BD3F804350B4A12780192D9
:1067EC000D4A00924FF4E6720649042008F078FA3C
:1067FC009EE700BF982E0020942E00200010014030
:10680C00C86004003D5F040008300020F42D002017
:10681C00DC600400F86204001461040010B582B05E
:10682C00A0F13104042C0AD90E4B1B6813F4804FD1
:10683C0003D00D4B1B68032B08DC02B010BD2046A7
:10684C00FFF742FFB4F1FF3FF7D1EDE7074BD3F869
:10685C000435074A00924FF4EE720649042008F002
:10686C003FFAEAE7982E0020942E002000100140F9
:10687C00F86204003D5F040008B50378232B00D0B8
:10688C0008BDFFF7F5FEFBE700B58DB02422002113
:10689C0003A81FF047F801238DF80C3007238DF85F
:1068AC000F3006238DF814301D4B07931D4B0B93A3
:1068BC001D4903A80CF07AFA60B30B2829D11B4BA5
:1068CC001B6813F4804F03D0194B1B68032B14DC8B
:1068DC00164B1B6813F4804F1CD0154B1B68032BF5
:1068EC0018DD144BD3F80435134A00924FF4077299
:1068FC001249042008F0F4F90CE00E4BD3F80435DF
:10690C000F4A009240F21B220C49042008F0E8F9CF
:10691C00DEE710B90DB05DF804FB18F0DFF8F9E70D
:10692C0085680200ED690200042F0020982E0020DB
:10693C00942E002000100140846104003D5F04008F
:10694C003461040000B583B01D4A04214FF4C040EB
:10695C0008F0AAF91B4B1B6813F4804F03D01A4B99
:10696C001B68032B13DC1EF023FEE0B901F014FFAF
:10697C00164801F045FFE0B902F000F902F03CF9CD
:10698C0002F06AF9FFF780FF03B05DF804FB104BCF
:10699C00D3F804350F4A009240F233220E490420FA
:1069AC0008F09EF9DFE70D4A40F2352118F0A4F803
:1069BC00DCE70A4A40F2392118F09EF8DCE700BF08
:1069CC0089EC0200982E0020942E0020D56602003F
:1069DC0000100140C06104003D5F0400045F04002E
:1069EC0000B583B01B4B1B6813F4804F03D01A4BBC
:1069FC001B68032B10DC0021184800F057FBB8B9BA
:106A0C00144B1B6813F4804F03D0134B1B68032BE0
:106A1C0011DC03B05DF804FB114BD3F80435114ABB
:106A2C00009240F201221049042008F059F9E2E7E3
:106A3C0018F054F8E4E70A4BD3F80435074A1288E7
:106A4C0001920A4A009240F207220749042008F0FA
:106A5C0047F9DEE7982E0020942E0020F42D00201C
:106A6C0000100140EC6104003D5F04000C62040066
:106A7C0010B582B00446114B1B6813F4804F03D041
:106A8C000F4B1B68032B0CDC00210F2001F02CFE9C
:106A9C0004EB840462003221032001F03BFE02B0BF
:106AAC0010BD084BD3F80435074A009240F275121A
:106ABC000649042008F014F9E6E700BF982E0020E0
:106ACC00942E002000100140406204003D5F040041
:106ADC0000B583B00C4B1B6813F4804F03D00B4BE9
:106AEC001B68032B04DC01F049FE03B05DF804FBCA
:106AFC00074BD3F80435074A009240F2FB120649C3
:106B0C00042008F0EDF8EEE7982E0020942E0020DB
:106B1C0000100140606204003D5F040000B583B0CA
:106B2C000C4B1B6813F4804F03D00B4B1B68032BCF
:106B3C0004DC01F023FE03B05DF804FB074BD3F833
:106B4C000435074A00924FF4BF720649042008F03E
:106B5C00C7F8EEE7982E0020942E0020001001407C
:106B6C00786204003D5F040000B585B003A812F004
:106B7C003BFA0D4B1B6813F4804F03D00B4B1B6877
:106B8C00032B02DC05B05DF804FB094BD3F804358C
:106B9C00BDF80C200192074A00924FF4F27206499C
:106BAC00042008F09DF8EDE7982E0020942E00208C
:106BBC0000100140986204003D5F040000B58BB0EA
:106BCC006421294801F0BAFC284B1B78E3B90393E4
:106BDC00049305930693079308930993244B04930A
:106BEC00244B0593244B0693244B0793244B089377
:106BFC00244B099303A801F037FC38B1224A40F228
:106C0C00572117F079FF01E0FFF7AEFF02F04AF9C8
:106C1C0001F02EFE0CF01CF9A0B91C4B1B6813F4F0
:106C2C00804F03D01A4B1B68032B11DC00210F2063
:106C3C0001F05AFD0222C8210F2001F06BFD0BB0B0
:106C4C005DF804FB104A4FF4187117F055FFE4E798
:106C5C00104BD3F80435104A009240F262220F49CF
:106C6C00042008F03DF8E1E729680200042F002019
:106C7C00AD6C02007D6A0200296B0200DD6A020025
:106C8C00B062040074640400045F0400982E0020B9
:106C9C00942E002000100140F86204003D5F0400B7
:106CAC0000B583B0144B1B6813F4804F03D0134B07
:106CBC001B68032B13DC01F09FFF01F0CDFFFFF7E6
:106CCC0053FF01F05BFD00210F2001F00DFD0422AC
:106CDC00C8210F2001F01EFD03B05DF804FB084B2A
:106CEC00D3F80435074A009240F2E9120649042011
:106CFC0007F0F6FFDFE700BF982E0020942E00204F
:106D0C0000100140D06204003D5F040008B54FF054
:106D1C0080430122C3F87825FFF714FEFFF74EFFDE
:106D2C00FFF736FBFCE770B5C56B046D002233E052
:106D3C0002EB820C05EB4C0104EBC20335F81C6032
:106D4C0024F83260B1F802C083F802C0CCF3032EF1
:106D5C0093F803C02CF00F0C4CEA0E0C83F803C014
:106D6C00B1F804E00EF00F065FFA8CFC0CF00F0C7F
:106D7C004CEA061C83F803C0CEF3071E83F804E02C
:106D8C0091F806C083F805C091F807C083F806C0D7
:106D9C00097AD971013292B2038F9342C8D870BD6F
:106DAC0000B5B1F838E0002301E001339BB2734524
:106DBC000AD2CA6B03EB830C32F81C208242F4D14A
:106DCC00086D00EBC30000E000205DF804FB30B55B
:106DDC0083B00446056C01F0E7F90DF10602294673
:106DEC00204601F01BF95223BDF806202946A01CB1
:106DFC001DF09EFF03B030BD2DE9F04182B0154669
:106E0C001E46089FDDF82480044618B117B1B8F16E
:106E1C00000F02D1784602F005F8236C3B60276A1C
:106E2C00CDF80080324629462046B84702B0BDE86E
:106E3C00F081F8B516461C46069F054608B103B10D
:106E4C0017B9784601F0EEFF2A6C2260AC693B461C
:106E5C0031462846A047F8BD2DE9F04182B01546D1
:106E6C001E46089FDDF82480044618B117B1B8F10E
:106E7C00000F02D1784601F0D5FF236C3B60A76A66
:106E8C00CDF80080324629462046B84702B0BDE80E
:106E9C00F0812DE9F04182B015461E46089FDDF8C1
:106EAC002480044618B117B1B8F1000F02D178460E
:106EBC0001F0B8FF236C3B60676ACDF80080324666
:106ECC0029462046B84702B0BDE8F0812DE9F043D1
:106EDC0085B016461F46DDF83890DDF83C80044638
:106EEC0028B1B9F1000F02D0B8F1000F02D17846E9
:106EFC0001F098FF256CC9F80050CDF80880019579
:106F0C00BDF8343000930C9B3A4631462046E66976
:106F1C00B0475B23B8F80020294620461DF012FF2D
:106F2C0005B0BDE8F08300002DE9F04385B01546AF
:106F3C001C46DDF83490DDF83880064630B12BB1B4
:106F4C00B9F1000F02D0B8F1000F02D1784601F070
:106F5C0069FF376CC9F800702288AA420BD0174B16
:106F6C001B6813F4804F03D0154B1B68002B0FDCF0
:106F7C00784601F057FFCDF800803B46BDF8302035
:106F8C002146304600F074FE80B905B0BDE8F083B0
:106F9C000C4BD3F80435029201950B4A00924FF436
:106FAC00AF720A49012007F09BFEE1E75723B8F8BE
:106FBC000020394630461DF0C5FEE6E7982E00202D
:106FCC00942E002000100140C4640400B664040038
:106FDC00F8B515461C46069F064608B103B117B90D
:106FEC00784601F01FFF326C22603B462946304642
:106FFC0000F0F4FEF8BD2DE9F04115461E46069F43
:10700C00804608B103B117B9784601F00BFFD8F8E8
:10701C0040403460A5B93A462146404600F0FEFF98
:10702C003B885BB903233B80237843F00103237037
:10703C00DBB243F0FE032370A4F80150BDE8F081ED
:10704C003B4622462946404600F068FFE8E72DE91A
:10705C00F04114461D46DDF81880064618B113B1F0
:10706C00B8F1000F02D1784601F0DCFE376C2F60CE
:10707C00338FDB009AB26CB131462046FFF790FE9D
:10708C0078B10822A8F80020026843683A607B6057
:10709C00BDE8F081A8F80020316D38461EF00CFCDC
:1070AC00F6E70223A8F800303C80F1E780B138B550
:1070BC000D46044600F0ACFE2046FFF734FE054BAF
:1070CC002361E36AE360294620461DF045FE38BD86
:1070DC000E207047EC640400422805D04D2801D0E6
:1070EC00002070470120704701207047422803D0D0
:1070FC004D2801D00020704709B9012070470220AB
:10710C00704710B5044690F8A710B0F8A400FFF72C
:10711C00EDFF0230B4F8AA301844400080B210BD24
:10712C00B0F8AA30013393422EDA10B4002308E0F1
:10713C009A1CD0F8944014F803C001F802C0013333
:10714C009BB2B0F8AA209A42F2D8B0F8A4C0013A87
:10715C00D2B20B786FF300030B70DBB262F3440313
:10716C000B700CF00702DBB203F01F0343EA42136F
:10717C000B70CCF3C70C81F801C0B0F8AA00023038
:10718C0080B25DF8044B704700207047B0F8AA300D
:10719C000233934228DA10B4002308E0DA1CD0F84A
:1071AC00944014F803C001F802C001339BB2B0F84C
:1071BC00AA209A42F2D8B0F8A4C09AB1D3B2013B3B
:1071CC00DBB20A7842F001020A70D2B263F34702D2
:1071DC000A70A1F801C0B0F8AA00033080B25DF8C3
:1071EC00044B70477F23ECE70020704770B50446D2
:1071FC000D46B0F8A4300B8090F8A63003F07F0356
:10720C008B7090F8A72043EAC2138B7090F8A710EC
:10721C00B0F8A400FFF76AFF0023032209E0511C19
:10722C00D4F8806016F803C005F802C001339BB295
:10723C008AB28342F3D3002309E0511CD4F8846052
:10724C0016F803C005F802C001339BB28AB2834220
:10725C00F3D3531C9BB294F8A810A954002207E056
:10726C00D4F88800591C805CE854013292B28BB27D
:10727C00B4F8AA109142F3D8002207E0D4F88C009D
:10728C00591C805CE854013292B28BB2B4F8AA104B
:10729C009142F3D8284670BD102905D8B0F5006F7F
:1072AC0002D2023188B27047033188B270472DE99F
:1072BC00F04180460D4616461F46FFF70DFF28800D
:1072CC0000214046FFF712FF044601214046FFF71C
:1072DC000DFF844238BF0446A0B230802B8800EBEF
:1072EC0043005830400038802B881BB1338823B9B9
:1072FC00002000E00020BDE8F0810120FBE738B55C
:10730C000C46054608B1A86C04E0784601F08AFDED
:10731C00F9E7006818B1B0F8A430A342F9D138BD30
:10732C0038B50D46044648B12046FFF7EAFE2880E2
:10733C00E36F196C2046FFF759FF38BD784601F012
:10734C0071FDF1E710B5044680B1D4F894301A7889
:10735C00D4F88C301978D4F888301B7899420DD336
:10736C00934207D8914207D2002004E0784601F0FE
:10737C0059FDEAE7002010BD0120FCE7934203D33E
:10738C00914203D90120F6E70120F4E70020F2E74F
:10739C00F8B50446A0B30E4615461F46BDF8182096
:1073AC0000211EF0BFFAA4F8A460A4F8AA50A4F817
:1073BC00AC7029463046FFF76FFFA4F8AE00102DD5
:1073CC0004D8B6F5006F1DD30F4B00E00E4BC4F87C
:1073DC00A03004F1B002C4F888205319C4F88C30E2
:1073EC0002EB4503C4F8903005EB45031344C4F895
:1073FC00943002EB8502C4F880203A44C4F884200F
:10740C002046F8BD014BE2E7997102002D71020094
:10741C00002937D070B586B00E4681421CD9091AA6
:10742C0089B21D46642404FB01F191FBF6F101EBDA
:10743C00810101EB81018C00A4B21349096811F49C
:10744C00804F03D011490968042909DCA5428CBF7F
:10745C000020012006B070BD411A89B21546E1E743
:10746C000B49D1F8041505940493039202960190EC
:10747C00084B00930B464FF49F720749052007F009
:10748C002FFCE3E701207047982E0020942E00205B
:10749C00001001405C65040046650400F0B587B03F
:1074AC0006460C4617461D461649096811F4804FCE
:1074BC0016D0154B1B68042B12DD144BD3F8043576
:1074CC00A04216D9021B05920495039702940196CB
:1074DC000F4A00924FF48E720E49052007F000FC03
:1074EC00A64208D9301BB842B4BF0020012007B017
:1074FC00F0BD221AE7E7A01BA842B4BF0020012070
:10750C00F5E700BF982E0020942E002000100140BB
:10751C00BC6504004665040010B5044688B194F8B7
:10752C00A73093B1D4F89400D4F89010D4F88420F8
:10753C00D4F880301B88128809780078FFF768FF30
:10754C0010BD784601F06EFCE9E7D4F89400D4F84D
:10755C009010D4F88420D4F880301B7812780978F5
:10756C000078FFF79BFFEBE730B587B00446B0F827
:10757C00AA30ADF81630C06F45690DF11603D4F87A
:10758C009420B4F8A410A847B4F8AA20BDF816109B
:10759C008A420BD00D4B1B6813F4804F03D00C4B5D
:1075AC001B68002B04DC784601F03CFC07B030BDB6
:1075BC00084BD3F8043502910192074A009240F22D
:1075CC00C9220649012007F08BFBECE7982E00201E
:1075DC00942E00200010014014660400466504003F
:1075EC00F0B583B004460D461646FAB1F1B10CB3B2
:1075FC00B4F8AE3033802046FFF7B6FFB4F8AE7067
:10760C00D4F8A030328829462046984787420BD0C0
:10761C00104B1B6813F4804F03D00F4B1B68002BCF
:10762C000BDC784601F0FEFB03B0F0BD784601F0B0
:10763C00F9FBDCE700233380F6E7084BD3F804357D
:10764C00074A009240F217320649012007F048FB26
:10765C00E7E700BF982E0020942E00200010014078
:10766C006066040046650400002800F0B6802DE931
:10767C00F04F87B08A460646022A40F2B08009884D
:10768C00B0F8A400884257D1023A94B20AF1020829
:10769C009AF8025015F0700F68D105F07F09ED09CA
:1076AC002946FFF723FD0746844240F29A800AF1EF
:1076BC000301431C9BB21A189442C0F2948008EB4D
:1076CC00030B92B29442C0F0908018F802A0BAF169
:1076DC001A0F67D8013292B2B6F8AA30D018844289
:1076EC00C0F2858008EB020005901A4492B2134454
:1076FC009C427EDB904486F8A69086F8A7503A46CA
:10770C00D6F880001EF0D8F83A465946D6F88400D0
:10771C001EF0D2F886F8A8A0B6F8AA200599D6F8DB
:10772C0088001EF0C9F8B6F8AA204146D6F88C009D
:10773C001EF0C2F8002009E02F4B1B6813F4804F99
:10774C0003D02E4B1B68002B03DC0B2007B0BDE8CD
:10775C00F08F2B4BD3F8043502910190294A0092FB
:10776C009C222949012007F0BBFAEEE7224B1B684B
:10777C0013F4804F03D0214B1B68002B01DC0B2032
:10778C00E4E71F4BD3F8043505F07F050022039284
:10779C00029501951D4A0092AF221B49012007F06A
:1077AC009FFAECE7144B1B6813F4804F03D0134B78
:1077BC001B68002B01DC0B20C8E7114BD3F80435F8
:1077CC000392CDF808A0CDF804A0114A0092D32260
:1077DC000D49012007F084FAEDE70E2070470920CF
:1077EC00B4E70920B2E70920B0E70920AEE7092089
:1077FC00ACE70920AAE700BF982E0020942E0020A9
:10780C00001001407C66040046650400B466040068
:10781C000467040008B5B0F8AA20D0F89410D0F88A
:10782C0090001EF049F808BDF0B583B017461C4611
:10783C000546D0B105F1080630461DF092FBD5F88F
:10784C00983028469847A0B195F8A630C3F120008F
:10785C00A3F1200127FA03F204FA00F0024324FA00
:10786C0001F10A4324FA03F305E0784601F0DAFA51
:10787C00E0E73A462346BA4273EB04044CD295F83F
:10788C00A8404FF47A70A4F12001C4F1200700FA4B
:10789C0001F120FA07F73943A040824273EB01044F
:1078AC0001D3104619461E4B1A685B68904271EB67
:1078BC00030316D3C90341EA5041C003194BC01846
:1078CC00194A4FF0000341F100011DF02DFF286112
:1078DC00696100232B7230461DF01AFB20B9012080
:1078EC001BE021200021F2E7104B1B6813F4804FA2
:1078FC0003D00F4B1B68002B01DC00200DE00D4B5F
:10790C00D3F8043501900C4A009240F295220B49B1
:10791C00012007F0E5F9F0E7012003B0F0BD00BF4E
:10792C005030002020A1070040420F00982E00206C
:10793C00942E002000100140586704004665040096
:10794C0030B585B004460DF10A0303AA0DF10E0102
:10795C00FFF7ADFC90B1BDF80A000BF07EF90546BF
:10796C0080B1BDF80A300093BDF80C30BDF80E2084
:10797C0021462846FFF70CFD05B030BD784601F0D6
:10798C0051FAE8E70D4B1B6813F4804F03D00C4BF6
:10799C001B68002B03DC784601F044FAE1E7094B45
:1079AC00D3F80435BDF80A200192074A009240F240
:1079BC004F220649012007F093F9ECE7982E00209E
:1079CC00942E0020001001409067040046650400CE
:1079DC0070B584B00446C56FB0F8AE60D0F8A03076
:1079EC00B5F84C20154909689847864201D004B077
:1079FC0070BD5223B4F8AE2010490968A81C1DF0C4
:107A0C0097F9B0B10E4B1B6813F4804FEFD00D4BB0
:107A1C001B68002BEBDD0C4BD3F804350290019066
:107A2C000A4A00924FF4ED720949012007F058F907
:107A3C00DDE72046FFF7EEFED9E700BF5830002007
:107A4C00982E0020942E002000100140B4670400F2
:107A5C004665040038B500F1400590F878309BB3CA
:107A6C000446002380F87830FFF7B2FF94F8A83072
:107A7C004FF47A70A3F12001C3F1200200FA01F156
:107A8C0020FA02F211439840114B1A685B6890423D
:107A9C0071EB03030DD3C90341EA5041C0030D4BF5
:107AAC00C0180D4A4FF0000341F100011DF03CFEDF
:107ABC0001E021200021A064E164002384F840301F
:107ACC0028461DF025FA38BD28461DF04AFAFAE77B
:107ADC005030002020A1070040420F0038B504466A
:107AEC0000F1400528461DF010FA18B1012384F866
:107AFC00783038BD2046FFF76BFF94F8A8304FF470
:107B0C007A70A3F12001C3F1200200FA01F120FAEE
:107B1C0002F211439840104B1A685B68904271EB6B
:107B2C00030315D3C90341EA5041C0030B4BC018E2
:107B3C000B4A4FF0000341F100011DF0F5FDA0646C
:107B4C00E164002384F8403028461DF0E1F9D0E7C9
:107B5C0021200021F3E700BF5030002020A10700B6
:107B6C0040420F0070B584B00646C36F00228DF8FA
:107B7C000F200DF10F020DF10E0158880EF0CEFE04
:107B8C0048BB9DF80E20032A0ED8DFE802F002460F
:107B9C0005096423002520E042F2107300251CE047
:107BAC004EF66023002518E0254B1B6813F4804F1C
:107BBC0037D0244B1B68002B36DD234BD3F8043510
:107BCC000192224A00929B222149012007F088F859
:107BDC0000231D4601E000231D469DF80F20A2FB4B
:107BEC00033102FB05F5690141EAD3615A01D21A4E
:107BFC0061EB0501890041EA92719200D21845EBC4
:107C0C000105ED0045EA5275D4003046FFF7ACFC97
:107C1C0054EA05030BD104B070BD4FF47A73002500
:107C2C00DBE700231D46D8E700231D46D5E7304689
:107C3C00FFF754FF22462B463046FFF7F5FDEAE7E7
:107C4C00982E0020942E002000100140246804007F
:107C5C001268040038B504460D46012903D86000AB
:107C6C00C0B2284338BD784601F0DCF8F7E70000D5
:107C7C002DE9F04784B00C4616461D46DDF83080E1
:107C8C00074620B119B113B1B8F1000F02D17846F3
:107C9C0001F0C8F800238DF80F300DF10F020DF133
:107CAC000E0178880EF03AFE48BB9DF80E20032A90
:107CBC000ED8DFE802F0025E05096423002220E002
:107CCC0042F2107300221CE04EF66023002218E0F2
:107CDC003B4B1B6813F4804F4FD03A4B1B68002B67
:107CEC004EDD394BD3F804350192384A00929B2271
:107CFC003749012006F0F4FF00231A4601E0002367
:107D0C001A469DF80F00A0FB031300FB02F253016F
:107D1C0043EAD1634801401A63EB02039B0043EA38
:107D2C0090738000401842EB0302D2004FEAC00966
:107D3C0042EA507A21883846FFF7E1FA074620B12B
:107D4C0032462146FFF790FCE8B11D4B1B6813F43B
:107D5C00804F03D01B4B1B68002B21DC77B3002317
:107D6C00A8F8003023882B800026304604B0BDE8EC
:107D7C00F0874FF47A730022C3E700231A46C0E75A
:107D8C0000231A46BDE74A4653463846FFF74CFDDA
:107D9C0006460028D9D041463846FFF7C1FAE4E739
:107DAC00094BD3F80435228801920A4A009240F21A
:107DBC00A7320949012006F093FFCFE70223CFE752
:107DCC00982E0020942E00200010014024680400FE
:107DDC00126804005068040046650400F8B50E46AD
:107DEC0017461C46054608B102B113B9784601F096
:107DFC0019F80023238031462846FFF780FA18B182
:107E0C002146FFF78DFAF8BD022323803E80FAE766
:107E1C00F0B585B0064650B1354B4FF47A70002161
:107E2C00C3E900010024A6F84C40B46438E078465D
:107E3C0000F0F8FFF0E7FFF783FD0546002380F81C
:107E4C00A63080F8A7300A2380F8A830C667336BB9
:107E5C00A70003EB840383628061264BC361083067
:107E6C001DF096F8736B3B442B662D65224B6B65AE
:107E7C0005F140001DF08CF8204BC5F89830204BD4
:107E8C00C5F89C30B5F8AE30B6F84C201344A6F8C3
:107E9C004C30294606F1480006F062FE0134E4B28B
:107EAC00F36A1A78A2421BD9621C33F812004228DA
:107EBC00C1D0144B1B6813F4804FEFD0124B1B68CE
:107ECC00002BEBDD114BD3F8043502900190104AD6
:107EDC00009240F20A420F49012006F001FFDDE753
:107EEC00B6F84C000AF0B9FE0B4B186005B0F0BDAB
:107EFC0050300020717B0200617A02005173020045
:107F0C0025750200982E0020942E002000100140B0
:107F1C008C6804004665040058300020F0B585B02C
:107F2C000C4615461E46074608B102B113B97846F1
:107F3C0000F078FF21463846FFF7E1F90446324657
:107F4C002946FFF74DFB002C51D000238DF80F3044
:107F5C000DF10F020DF10E0178880EF0DFFC48BB1D
:107F6C009DF80E20032A0ED8DFE802F00243050923
:107F7C006422002020E042F2107200201CE04EF639
:107F8C006022002018E0204B1B6813F4804F34D083
:107F9C001E4B1B68002B33DD1D4BD3F804350192AF
:107FAC001C4A00929B221C49012006F099FE0022DB
:107FBC00104601E0002210469DF80F30A3FB022171
:107FCC0003FB00F0410141EAD26153019B1A61EBC2
:107FDC000001890041EA93719B009B1840EB010062
:107FEC00C000DA0040EA53732046FFF71DFC05B0D1
:107FFC00F0BD4FF47A720020DEE700221046DBE77A
:10800C0000221046D8E700BF982E0020942E0020A6
:10801C000010014024680400126804002DE9F04FA0
:10802C0087B003919346824608B101B112B97846E4
:10803C0000F0F8FE00238DF817300DF117020DF14A
:10804C001601BAF802000EF069FC48BB9DF8162028
:10805C00032A0ED8DFE802F0024B05096422002740
:10806C0020E042F2107200271CE04EF6602200273E
:10807C0018E0454B1B6813F4804F3CD0434B1B68F6
:10808C00002B3BDD424BD3F804350192414A009260
:10809C009B224149012006F023FE0022174601E0F5
:1080AC00002217469DF81730A3FB022103FB07F7AC
:1080BC00790141EAD26153019B1A61EB07018900F6
:1080CC0041EA93719B009B1847EB0107FF004FEAB5
:1080DC00C30947EA53770023ABF80030BAF1000F1D
:1080EC004ED0BAF84C50DAF848401E4618E04FF41F
:1080FC007A720027D6E700221746D3E700221746EC
:10810C00D0E7784600F08EFE4A463B462046FFF705
:10811C008BFBB4F8AE301E44B6B2EB1A9DB2246899
:10812C001CB32046FFF720FAB4F8AE80D4F8A03088
:10813C001A4A11682A463144204698478045E3D0B4
:10814C00114B1B6813F4804FDBD0104B1B68002BBA
:10815C00D7DD0F4BD3F80435114A009240F241425F
:10816C001049012006F0BCFDCBE7BAF84C20521B9D
:10817C0092B2ABF80020094B196803981DF09CFBD8
:10818C00504607B0BDE8F08F982E0020942E0020AA
:10819C0000100140246804001268040058300020CC
:1081AC00BC6804004665040070B5044610B1A46CAC
:1081BC00002604E0784600F035FEF8E724685CB150
:1081CC0094F8A83001259D4004F108001CF0C9FE6C
:1081DC00AE42F3D22E46F1E7304670BD30B583B0D7
:1081EC00056CFFF78CF890B104460DF10602294698
:1081FC00FFF7F6F9D4F89C302046984710B90020C8
:10820C0003B030BD2046FFF769FC0020F8E70520DD
:10821C00F6E769DF7047000003781F2B00D070472A
:10822C00014B01221A70FAE75F3000203F4B1B789C
:10823C00002B79D000B587B0012804D003286CD06E
:10824C0007B05DF804FB0023019301A9012015F090
:10825C0025FF00284BD100230393049305939DF82D
:10826C000C20012363F303028DF80C20D2B263F3CC
:10827C0007128DF80C209DF80D2063F301028DF888
:10828C000D201E23ADF81630019A03A94120FFF7EB
:10829C00C0FF78BB01A815F05BFF70BB244B1B68BB
:1082AC0003B198470123029302A90DF1020011F0CA
:1082BC0023FC28BBBDF8020011F088F80DF1010178
:1082CC0011F022FAF8B90CF0B1F89DF80110002069
:1082DC000CF0A8FBD0B904F097F9D8B9134B0022D5
:1082EC001A70134B5B68002BAAD09847A8E716F0BE
:1082FC00F5FBB0E716F0F2FBCCE716F0EFFBCDE7A1
:10830C0016F0ECFBD6E716F0E9FBDCE7784600F05C
:10831C0089FDE0E716F0E2FBE0E715F093FF00289B
:10832C008ED016F0DBFB8BE7704700BF5E30002071
:10833C006030002008B5064B01221A70054804F085
:10834C00D1F904F0B3F900B908BD16F0C7FBFBE78F
:10835C005E300020502E002008B503781C2B00D076
:10836C0008BD074B1B78002BFAD015F0AFFF18B9DE
:10837C00044804F0BBF9F3E716F0B0FBF8E700BFD4
:10838C005E300020502E002008B5094B1B7863B9D5
:10839C000849094817F06AF840B903230022074935
:1083AC004969074817F07EF800E0082008BD00BFB7
:1083BC005F3000207C300020E8330020603000204B
:1083CC00B432002008B50378023B082B3FD8DFE815
:1083DC0003F01C05113E3E2C3E3E36001E4B9B68A6
:1083EC00002B34D0007A002831D01C4A01211170A6
:1083FC0098472CE0184BDB684BB3184A127832B311
:10840C00164A00211170984721E0154B1B784BB987
:10841C00114B1B691BB1114A002111709847FFF7D2
:10842C00B3FF14E0FFF786FF11E010220A4B9969A5
:10843C000C4817F0BAF850B116F050FB07E0816801
:10844C00C0680AF033FC18B9054B01221A7008BD3C
:10845C0016F044FBF8E700BF603000205C300020D1
:10846C005D300020B432002010B586B08446224A1C
:10847C0003AB07CA03C323F8022B120C1A701F4C50
:10848C00A646BCE80F00AEE80F009CE807008EE89B
:10849C000700A369002B2DD0194B009303AB194A8D
:1084AC0019491A4816F0A0FF034610B1184606B039
:1084BC0010BD174818F048FD0146144816F0C0FFCF
:1084CC0003460028F2D1134818F0BEFE03460028DC
:1084DC00ECD1104818F0F0FE01460C4816F0B0FF35
:1084EC0003460028E2D10C4804F0FCF8FFF74CFFDF
:1084FC000346DBE70723D9E7D86804006030002087
:10850C00D18302007C300020E8330020B4320020FC
:10851C009C300020643200205C2E002008B5064BF5
:10852C001B681BB906E0044B1B68984713F072FDDF
:10853C000028F8DA08BD00BF2834002010B50C461E
:10854C00134B1860134A012113481DF06BF898B9AE
:10855C00610CE00341F27073984271F1000310D387
:10856C004FF47A7200231DF0DFF8014600220B480D
:10857C001DF06EF838B910BD094A4A2116F0BCFA44
:10858C00E6E70521F2E7064A4B2116F0B5FAF2E7C9
:10859C002834002029850200246904002C34002092
:1085AC00E468040070B50546002403E00D4A9342CC
:1085BC000ED80134032C14D80B4B1B5DAB42F8D1F5
:1085CC000A4B1E6804F092FB331AEFD5831BEDE7C0
:1085DC0004F08CFB054B1860054B1B682046984734
:1085EC00E7E770BD801A060030690400783400207B
:1085FC00743400204FF0A043D3F80435C34013F07B
:10860C00010F0CBF012000207047000070B505461B
:10861C000024264600E00134032C0AD80123A34091
:10862C002B42F8D0044B185DFFF7E4FFA040064343
:10863C00F1E7304670BD00BF3469040008B511B1D4
:10864C0015F04FF808BD15F045F8FBE770B5054679
:10865C00002400E00134032C0FD80123A3402B424B
:10866C00F8D0064B1E5D3046FFF7C4FF80F00101C9
:10867C00C9B23046FFF7E2FFECE770BD3469040085
:10868C0010B5144B1B684BB1134B1868FFF7DEFF8A
:10869C00104B1C68013C1C6024B110BD002016F06E
:1086AC001DFAF1E70D481CF0F5FF00E00134032C36
:1086BC00F3D80123A340084A12681342F6D0084BA2
:1086CC001968E14001F00101064B185DFFF7B6FF98
:1086DC00ECE700BF4C340020503400205434002010
:1086EC007C3400203469040070B505460E46002425
:1086FC0000E00134032C09D80123A3402B42F8D00D
:10870C003146034B185DFFF799FFF2E770BD00BFD0
:10871C003469040042B310B50C461346132900D833
:10872C0010BD124A10605B00013B114A1360FFF749
:10873C006DFF104B1860610CE40314F5FA704FF4E4
:10874C007A724FF0000341F100011CF0EDFF01467D
:10875C00002209481CF07CFF0028E1D10121034BC9
:10876C001868FFF7C1FFDBE7704700BF50340020EB
:10877C004C3400207C3400205434002008B50448CC
:10878C001CF088FF0021034B1868FFF7ADFF08BDF4
:10879C00543400205034002010B582B014F02CFF5B
:1087AC0040B10024ADF804408DF8064001238DF84B
:1087BC00053007E014F0D8FE0028F2D016F08EF940
:1087CC00EFE70134032C09D801A90A4B185D14F00A
:1087DC001DFF0028F5D016F081F9F2E7064A0121B9
:1087EC0006481CF01FFF08B902B010BD16F076F950
:1087FC00FAE700BF346904008D8602002C6904007E
:10880C0060B310B582B0164A106014F0F5FE40B19A
:10881C00144B1B68ADF804301B0C8DF8063000248B
:10882C000CE014F0A1FE0028F2D016F057F9EFE797
:10883C0001210D4B185D14F0C5FF0134032C0AD82F
:10884C000A4A01A9084B185D14F052FF0028EFD01A
:10885C0016F044F9ECE7002002B010BD0E20704772
:10886C00743400202869040030690400B1850200CA
:10887C00002800F082802DE9F04FD1B004463F4B28
:10888C001B6813F4804F03D03D4B1B68032B31DC6A
:10889C003A4B1B6813F4804F03D0394B1B68032BE6
:1088AC002ADC51B0BDE8F08FE25C36490D68100946
:1088BC0059002E5C0FA800F8136002F00F02013172
:1088CC00AA5C425401330F2BEED90FAA00238DF86A
:1088DC005C3003F1804303F58833D3F804350292FE
:1088EC00294A0192294A009242222949042006F081
:1088FC00F7F9CDE70023E6E7264BD3F804350D93C3
:10890C002068020202F47F0242EA0062010A01F4CA
:10891C007F4142EA0108B4F804C04FEA0C2292B23B
:10892C00B4F806E04FEA0E2189B2257A667AA77A66
:10893C00E37A94F80C9094F80DA094F80EB0E47BC4
:10894C000B94CDF828B0CDF824A0CDF82090079347
:10895C0006970596049541EA1E21039142EA1C22D2
:10896C00029248EA106001900B4A00920D9B432240
:10897C000749042006F0B4F993E77047982E0020BD
:10898C00942E00209C2E00207C6904009069040029
:10899C006A690400001001409869040072DF704796
:1089AC0073DF704774DF70472DE9F047A2B00746BC
:1089BC0088469146324C002525606560A560E560CF
:1089CC0030490B78C3EB43102F4E064426602F4AD8
:1089DC000244A2601F22A280A281013303F0010392
:1089EC000B704FF03C0A5246294613A81CF09AFF14
:1089FC0006238DF84F30ADF8487001238DF84A30BE
:108A0C00ADF85C3012AA1892ADF83C70ADF84090FD
:108A1C00CDF844800DEB0A021D928DF87830524649
:108A2C00294668461CF07EFF02238DF80030221D7B
:108A3C00314613A815F025FA90B9114B03F10C022D
:108A4C009968684615F01DFA68B9114A0C49114825
:108A5C00FFF7A4FF082809D070B922B0BDE8F08751
:108A6C0016F03CF8E9E716F039F8EEE70022044975
:108A7C000848FFF793FFEFE716F030F8EDE700BF7B
:108A8C00C43400208034002084340020D4340020EE
:108A9C006C2E0020682E0020B0F5202F0AD2074B38
:108AAC00A3FB0023DB0808B103B90123044A93811B
:108ABC00916070474FF6FF73F5E700BFCDCCCCCC7F
:108ACC006C2E002008B50121054B1878FFF768FFC4
:108ADC0018B9002004F0F6FC08BD15F0FFFFF8E70C
:108AEC00682E002008B5044B1878FFF75BFF00B91F
:108AFC0008BD15F0F3FFFBE7682E002076DF70470A
:108B0C007ADF70477CDF704769DF704708B515F076
:108B1C00E5FF08BD08B503F0EDFD08BD00B583B059
:108B2C00037823B1012B0BD003B05DF804FB3B2180
:108B3C004088FFF7E3FF0028F6D015F0CFFFF3E7EE
:108B4C00094B1B6813F4804FEED0084B1B68032BAA
:108B5C00EADD074BD3F80435064A00926822064931
:108B6C00042006F0BDF8DFE7982E0020942E00209C
:108B7C0000100140246A04000A6A040000B585B0A4
:108B8C0015F060FB60BB0023039303A9012015F0D3
:108B9C0085FA40BB00230093019302939DF80020BB
:108BAC00012363F303028DF80020D2B263F30712A2
:108BBC008DF800209DF8012063F301028DF801204F
:108BCC001E23ADF80A30039A69464120FFF79CFF3B
:108BDC0060B903A815F0BCFA58B905B05DF804FBF0
:108BEC0015F07CFFCFE715F079FFD3E715F076FF92
:108BFC00EFE715F073FFF0E700B585B09DF80C308A
:108C0C00012262F303038DF80C30DBB262F307131D
:108C1C008DF80C301E220F4903A8FFF773FF98B98B
:108C2C000023019302937823ADF80430C823ADF8E8
:108C3C0006304FF4C873ADF80A3001A8FFF760FF97
:108C4C0028B905B05DF804FB15F048FFE8E715F00E
:108C5C0045FFF6E7506A040000B58BB001AA00236B
:108C6C00019302937821ADF80410C821ADF80610D9
:108C7C004FF4C871ADF80A1003930493059306934F
:108C8C00079308930993039240F6CD4304934FF452
:108C9C008033059303238DF81830074B0893074B4B
:108CAC00099303A815F0BAFC10B90BB05DF804FBDE
:108CBC0015F014FFF9E700BF298B0200198B020095
:108CCC000620704700B587B044F2010398425DD08E
:108CDC001BD8012836D041F20103984271D1474B81
:108CEC001B6813F4804F36D0454B1B68002B32DDCC
:108CFC00444BD3F8043502920191434A009263220B
:108D0C004249012005F0ECFF25E044F202039842B1
:108D1C0057D13A4B1B6813F4804F1CD0384B1B684F
:108D2C00002B18DD374BD3F80435106803905268CC
:108D3C0002920191364A009269223449012005F0D1
:108D4C00CFFF08E02D4B1B6813F4804F03D02C4B46
:108D5C001B68002B0DDC4FF0A0434FF4F012C3F84E
:108D6C001825C3F80C25EFF3108372B64DF6AD6CD5
:108D7C003DE0244BD3F8043502920191254A009230
:108D8C0060222249012005F0ABFFE4E71B4B1B6876
:108D9C0013F4804FDFD01A4B1B68002BDBDD194B13
:108DAC00D3F80435106804905068039002919268CF
:108DBC000192194A009273221449012005F090FF88
:108DCC00C9E70E4B1B6813F4804FC4D00C4B1B68C7
:108DDC00002BC0DD0B4BD3F8043501910F4A0092E8
:108DEC007B220A49012005F07BFFB4E730BF0C4B16
:108DFC001B78002BFAD107B05DF804FB982E0020ED
:108E0C00942E002000100140D06A0400A26A0400D5
:108E1C00F46A0400B46A0400146B0400386B040098
:108E2C00842E002000B583B0014600230093054B2F
:108E3C0001936A4644F20200FFF744FF03B05DF869
:108E4C0004FB00BFB868040010B40346044C00686F
:108E5C0059689A68DB680FC45DF8044B704700BF13
:108E6C00143500200E4B4FF0805202F1600103C903
:108E7C0083E8030003F1080CA43292E803008CE8A9
:108E8C00030093F9062002F00F0242F040029A719F
:108E9C0093F9082002F03F0242F080021A727047E8
:108EAC00143500200048704714350020002308E0DA
:108EBC00074901EBC30000224280426001F83320D5
:108ECC0001331F2BF4D9034B00221A60704700BFEB
:108EDC00243500202436002000B58646114B1B6833
:108EEC004FF0000C0BE01F230F4A12F83300B0B107
:108EFC0002EBC3025288724509D00CF1010CBCF193
:108F0C001F0F0BD85A1E002BEDD01346ECE7064A68
:108F1C0002EBC30252688A42EFD100E000205DF8F8
:108F2C0004FB00BF243600202435002010B40B4A6B
:108F3C0013680B4C04EBC30CACF80200CCF8041017
:108F4C00012104F833100B441360202B02D05DF880
:108F5C00044B7047134600221A60F8E724360020B1
:108F6C00243500200021072918D830B402E0013143
:108F7C00072910D84FEA011C094C34F80CC0844561
:108F8C00F5D104EB0114A568E4689C4208BF954236
:108F9C00EDD1012000E0002030BC7047002070476C
:108FAC002836002030B4C3698469C288190A1B06AC
:108FBC00C4F30C0C944519D2A2EB0C022244A2F57A
:108FCC0000529A1841F100010A4C23685D1C25607F
:108FDC0003F00703B0F814C007481C0100EB03139F
:108FEC0020F804C09A60D96030BC7047A2EB0C0228
:108FFC002244E6E7A836002028360020C37D9BB12A
:10900C00C2780B7803F080030B7002F07F021343DD
:10901C000B7002780B7803F07F030B7043EAC213DA
:10902C000B7003789BB97047C2780B7803F0BF03C1
:10903C000B70920102F0400213430B70027903F0A3
:10904C00C0030B7002F03F0213430B70E1E7827810
:10905C00082A14BF002201224B7803F07F034B70C7
:10906C0043EAC2134B70C288DBB203F080034B702F
:10907C00C2F3861C43EA0C034B708B7803F003039A
:10908C008B7043EA82038B70027ADBB203F0FC0331
:10909C008B70C2F3C10C43EA0C038B70CB7803F0DA
:1090AC001F03CB7043EA4213CB70427ADBB203F05E
:1090BC00E003CB7002F01F021343CB70B3E7000048
:1090CC00002300E00133032B28D8C3EBC30C144A54
:1090DC0002EB0C1292F84820012AF3D1104A02EB51
:1090EC000C12B2F814C0C2899445EBD1C3EBC30C7B
:1090FC000B4A02EB0C12D2888A42E3D1084A02EBEB
:10910C000C12B2F858201AB1B0F814C06245D9D17B
:10911C00C3EBC303024800EB0310704700207047F9
:10912C00D4360020002300E00133032B15D8C3EB09
:10913C00C3010B4A02EB011292F84820022AF3D128
:10914C00074A02EB0112918A828A9142ECD1C3EB5D
:10915C00C303034800EB031070470020704700BFA7
:10916C00D436002008B9042070470820704700B599
:10917C0003468C460978C17000214162DCF8081066
:10918C000B2904D89CF80C1029B3012100E0012113
:10919C0019700020987031B1DCF808100731C9083B
:1091AC000139597218720121D97503F10C0E0CF1A9
:1091BC00100103C98EE80300BCF80E109982DCF88C
:1091CC00181019629CF81C109975DCF82010D962E3
:1091DC009A625DF804FB0021DAE7000000210E4BD7
:1091EC001B688B4216D9002300E001330B4A02EBBB
:1091FC00C10252689A420BD9084A52F8312002EB4C
:10920C00C30C12F833208242EFD1DCF80400704713
:10921C000131E4E700207047AC360020B036002066
:10922C0070B58CB006460D4614462C22002101A8C0
:10923C001CF078FB0F238DF80430ADF808609DF816
:10924C000A3065F300038DF80A308DF80B4001A845
:10925C0001F012FA0CB070BD30B58DB005460C465D
:10926C002C22002101A81CF05DFB10238DF804308A
:10927C0002958DF80C4001A801F0FEF90DB030BD3F
:10928C0000B58DB010B913F1020F06D1074B186859
:10929C0004F054FB0DB05DF804FB01218DF80410B3
:1092AC000293039201A801F0E7F9EFE7B83600202A
:1092BC0070B5049C002962D01D468E46D2F800C0C1
:1092CC0051689668D368C4F80CC021616661A361CB
:1092DC00D2F810C05169C4F81CC02162002363701D
:1092EC000278D20922705AB30423734549D8E17D20
:1092FC0041B3037803F07F03E3700023A3709AB1AA
:10930C0043789B0103F4FE53827843EA9203E38093
:10931C008378DB0003F01803C27843EA52132372FC
:10932C00C37803F01F036372002363622B78032B53
:10933C0021D82A78144B53F82230E362002070BDF8
:10934C000123D2E70178C1F38011E170017801F0BB
:10935C003F01217142B190F90130002B02DB042353
:10936C00A370CCE70823FBE70421A1700B447345E1
:10937C00C5D90920E3E77846FFF754FDD9E7092062
:10938C00DDE70920DBE700BFD46C040070B50C46A8
:10939C001D4603789BB104263244A26000F10C03F5
:1093AC002360836A6360C36AE360002323742046EE
:1093BC0004F040FE10B9636933442B6070BD012684
:1093CC00EAE72DE9F0418EB00D4616461C46804664
:1093DC0000282DD0002D2FD0002C31D0636A023301
:1093EC00059304F10C00E378002B2DD00121A27819
:1093FC0001AF3B46082A14BF0022012204F0E9FB0E
:10940C000697CDF81C80B2B2ADF820200B95154410
:10941C000C95A3788DF83430237B022B16D00023C7
:10942C00ADF8283005A804F0CCFB0EB0BDE8F081F7
:10943C007846FFF7F7FCCDE77846FFF7F3FCCBE770
:10944C007846FFF7EFFCC9E70221D0E723692BB17F
:10945C00236909931023ADF82830E3E77846FFF72A
:10946C00E1FCF5E72DE9F04188B004460D46C37DDB
:10947C00002B3CD0082605FB06F8637AAB4238D0AB
:10948C00257201AB324602A92046FFF77FFF074643
:10949C0048BB4DB994F8533033B9A369C3F30C03EB
:1094AC00E380012384F85330E37D7BB994F8523088
:1094BC0063B91DBBE06EB4F84A10A27823468A1A31
:1094CC000146FFF77EFF012384F8523007992046AE
:1094DC00FFF794FDE16E3246414401981CF0ECF923
:1094EC0002A804F0CDFD384608B0BDE8F0810C268A
:1094FC00C1E7B4F84A60A6EB0806C1E77846FFF767
:10950C0091FCD7E770B505460E4609B100230B60F8
:10951C0095F85040002104E0631C85F8503001346C
:10952C00E4B26B7AA34210D3EA6C0123A3401A4233
:10953C00F5D121462846FFF795FF014628B9002EA4
:10954C00EAD0336801333360E6E7084670BDF0B506
:10955C0089B004460E46154683789A18C37D63B1CC
:10956C000B239A4221D801AB02A92046FFF70EFF2C
:10957C00074620B1384609B0F0BD0F23F1E7079933
:10958C002046FFF73BFDE37D43B12A463146019867
:10959C001CF092F902A804F073FDEBE723462A466F
:1095AC0001993046FFF70DFFF4E70927E2E70000C9
:1095BC0010B5044690F84830012B0CD103F096FB03
:1095CC00237B012B0BD0094BD968014404F13000EB
:1095DC0003F058FB10BD7846FFF724FCEEE7A27DA4
:1095EC00024BD9681B6903FB0211EEE7BC36002065
:1095FC0030B583B0002403E02846FFF7D9FF0134CF
:10960C00032C17D8C4EBC4020B4B03EB021393F8D7
:10961C004830012BF3D100230193074D05EB0215C4
:10962C0001A92846FFF76EFF0428E5D0019B002B0B
:10963C00E5D0E1E703B030BDD436002038B50446A0
:10964C0090F84830022B09D1064B1D6803F04EFBF5
:10965C00411904F1300003F015FB38BD7846FFF7D3
:10966C00E1FBF1E7BC36002038B5044690F84830F1
:10967C00022B10D10A4B5A7D5D689B6803FB025587
:10968C0003F034FB411904F1500003F0FBFA012301
:10969C0084F8683038BD7846FFF7C4FBEAE700BFB2
:1096AC00BC36002010B50446808A02F067FE012803
:1096BC001CD1237BE3B194F91620002A1ADBE27D3E
:1096CC004AB1022B18D094F90330002B16DBA37887
:1096DC00B3B900200BE0E2780AB9012B12D1237840
:1096EC0093B9A378042B11D1002000E0102010BDF9
:1096FC001020FCE70720FAE71020F8E70720F6E730
:10970C000720F4E70720F2E70020F0E70720EEE758
:10971C0038B5044603784BB1C388C2698169808A25
:10972C0006F030FE054645B9284638BDC269816948
:10973C00808A06F021FE0546F5E7E169002201F07A
:10974C000101A08AFFF76CFDEEE700002DE9F04760
:10975C0080460E4617464B1EDBB2012B0FD8B7F5D1
:10976C00C07F10D80024032C1AD8C4EBC402314B90
:10977C0003EB021393F848304BB10134F3E778460E
:10978C00FFF750FBEBE77846FFF74CFBEAE7DFF817
:10979C00A49009EB0215384609F05FFAE86600E080
:1097AC0000255DB3EB6E002B42D043462C4608F1EE
:1097BC00300ED3F800C058689968DA68C4F800C055
:1097CC006060A160E260103310347345F1D1002366
:1097DC00EB64A5F84A70012E13D06FF00103AB6255
:1097EC00002385F86830144BAB652D66134BAB63C7
:1097FC002D64012002F048FA85F848602846BDE83F
:10980C00F0870F4B1B7D85F85130002385F85230C3
:10981C0085F8533085F85030D8F828206A65A5F8BB
:10982C0058306FF00103AB62064BAB632D64E0E77D
:10983C001D46E3E7D436002093A20200A59B02004C
:10984C00BC360020F19B020000B585B000228DF8DB
:10985C000F20A0B10B46024602320A600DF10F0137
:10986C00184604F0B2F99DF80F3043B10C4B1B684D
:10987C0013F0040F03D00B4B1B68032B04DC9DF877
:10988C000F0005B05DF804FB074BD3F80435074A0D
:10989C00009240F215420649042005F021FAEEE749
:1098AC00982E0020942E0020001001408C6B040098
:1098BC00806B04002DE9F04391B005460E4614462A
:1098CC001F46D0F8188003784BB1C388C8F30C023C
:1098DC009A4230D29B1A4344A3F50053AB6105F175
:1098EC000C00EB7853B30121AA780DF130094B46EB
:1098FC00082A14BF0022012204F06BF9C5F8188065
:10990C00CDF810900596AB78E21A92B2ADF818200B
:10991C0016440A9609978DF82C300023ADF82030A8
:10992C00EB78002B41D02B7B022B09D000236B62F0
:10993C000193029316E09B1A4344CFE70221D3E72D
:10994C001023ADF820302B690793EFE710AB03EB36
:10995C00840454F83C3C6B62002011B0BDE8F083E9
:10996C00019BB3B102AB01AA2979286A10F0D6FB8E
:10997C000024012CF4D810AB03EB840353F83C0CFB
:10998C000028EDD003A9FFF75FFF0028DED10134DA
:10999C00EFE72B7B022B2CD105F10C01E88910F0A1
:1099AC0077FC0028BFD10520D7E72B7B012B01D0FA
:1099BC000520D2E7EB89ADF80430AB8AADF8063060
:1099CC000024012C13D82946002341F8243F10AB66
:1099DC0003EB440333F83C0C10F0C5FB03A9686A95
:1099EC00FFF732FF08B90134EBE70020B5E705209B
:1099FC00B3E70520B1E7000070B5F0B00E46144691
:109A0C001D4610AB0A4601462046FFF753FF50B1E6
:109A1C00224B1B6813F0040F03D0214B1B68052B42
:109A2C002FDC70B070BD2046FFF772FE0028F8D115
:109A3C0003AB01228DF80C20A28AADF80E20002277
:109A4C0004928DF8142010AA0692A278B11AADF8DF
:109A5C001C1008AA93E8030082E803000AAB04F187
:109A6C000C0292E8030083E80300A37D8DF83830E4
:109A7C00236A0C93636A0D930F9505A800F0FCFD07
:109A8C00CFE7084BD3F80435074A009240F2037233
:109A9C000649062005F024F9C3E700BF982E0020E4
:109AAC00942E002000100140A06B0400806B040079
:109ABC0010B50446C06E09F0D4F804F1300003F080
:109ACC00C9F894F84830022B08D0702200212046A7
:109ADC001BF028FF002002F0D7F810BD04F1500055
:109AEC0003F0B8F8F1E710B58CB0044690F84830A4
:109AFC00012B0FD101238DF80430636D029303F019
:109B0C00F5F8039001A800F0B7FD2046FFF7D0FF51
:109B1C000CB010BD7846FFF785F9EBE730B585B092
:109B2C000D460446A8B194F84830022B15D02946AE
:109B3C00606DFFF791FB2046FFF7BAFF114B1B68D6
:109B4C0013F0040F03D0104B1B68032B09DC05B07A
:109B5C0030BD7846FFF766F9E5E72046FFF722FAB5
:109B6C00E5E70A4BD3F8043594F8482002950192A6
:109B7C00074A009240F2F3120649042005F0B0F8AF
:109B8C00E5E700BF982E0020942E00200010014025
:109B9C00CC6B0400806B040008B508460021FFF76D
:109BAC00BDFF08BD08B5037B012B02D0FFF79BFF5F
:109BBC0008BD0121FFF7B2FFFAE7000008B590F8E5
:109BCC00513053B1013B80F85130002380F85030B4
:109BDC00034B186803F0B2FE08BDFFF7E3FFFBE789
:109BEC00B836002010B50C4691F84830012B03D143
:109BFC002046FFF7E3FF10BD7846FFF713F9F7E7B0
:109C0C0070B5C6B00E46154682782A44C37D2BB17A
:109C1C004FF48073934278D3002303E04FF4C07366
:109C2C00F8E70133032B14D8C3EBC30C394C04EB0A
:109C3C000C1C9CF848100129F3D1BCF81440818A03
:109C4C008C42EED1BCF80E40C1898C42E9D108257A
:109C5C0054E00121FFF77AFD0446002857D02A462C
:109C6C003146C06E1BF028FE0023459345A92046C3
:109C7C00FFF748FC054608B1042842D1459B8BB937
:109C8C00254B1B6813F0040F37D0244B1B68032B98
:109C9C0033DDB4F84AC0BCF1800F28BF4FF0800C04
:109CAC00002313E02046FFF783FCE9E7E26ED25C69
:109CBC001B490D68100959002E5C04A800F81360AC
:109CCC0002F00F020131AA5C425401336345EDD31B
:109CDC0004AA002302F81C3003F1804303F58833F7
:109CEC00D3F8043502920F4A01920F4A00924FF4B6
:109CFC00AC620E49042004F0F3FF0025284646B060
:109D0C0070BD2046FFF7D4FEF8E70925F6E70425D9
:109D1C00F4E700BFD4360020982E0020942E0020AB
:109D2C009C2E0020F06B040090690400806B0400F2
:109D3C0070B504460D461646FFF7B4FC30B92378CF
:109D4C002BB1324629462046FFF75AFF70BD3246EA
:109D5C0029462046FFF7FBFBF8E7000038B5044620
:109D6C000D46CB695B780371CB691B7883F00103DB
:109D7C00C370CB6943628B8A0B2B07D8CB7A002B31
:109D8C0035D10B7B012B02D0002300E00123237083
:109D9C00002B31D0287B02282BD0FFF7E3F9A070E1
:109DAC00AB8A03440B33174A82FB03235B10013B42
:109DBC006372002323720023E37504F10C0395E80E
:109DCC00030083E80300AB6923622B89A382AB7A7F
:109DDC00A3752B6AA362DF23E362284610F086FA90
:109DEC0020B12B78012B0AD0FF23E36238BD01236D
:109DFC00CDE7054B987DD0E70423A370DBE7202348
:109E0C00F3E700BFABAAAA2ABC36002006297AD1F8
:109E1C00F0B585B0154690F800C04FEA8C1202F4EC
:109E2C00FE5241788478C3781B0443EA04630479B6
:109E3C0043EA0423407943EA00044FFA8CF642EAE1
:109E4C0091012846FFF73CF90746E0B1002E2FDBC5
:109E5C00C289A98A8A422BD02B4B1B6813F0040FA2
:109E6C0030D02A4B1B68012B2CDD294BD3F8043541
:109E7C0002910192274A009240F27D62264902200B
:109E8C0004F02EFF1EE0204B1B6813F0040F19D0BA
:109E9C001E4B1B68012B15DD1D4BD3F804351F4AD7
:109EAC00009240F279621C49022004F019FF09E08B
:109EBC00002E09DBFD6C2543FD644CB903213846AB
:109ECC00FFF72CFE05B0F0BDAB8AA7F85830F1E7D0
:109EDC003B7883B17A7A013201239340013B9D4256
:109EEC000DD0002187F850103846FFF70BFB384691
:109EFC00FFF75EFBE6E77846FEF794FFEAE73846A5
:109F0C00FFF7F1FDDEE77047982E0020942E00201D
:109F1C0000100140306C0400806B0400006C0400E5
:109F2C002DE9F0438BB007460E4614461D461046ED
:109F3C00FFF7EEFB50B994F80380B8F1000F08D18D
:109F4C002B46224631463846FFF760FF0BB0BDE882
:109F5C00F0834046FFF742F981460028F6D08DF891
:109F6C000480236A0793A38AADF8123005AB04F181
:109F7C000C0292E8030083E80300A37D8DF82030E7
:109F8C000297039623788DF81030E36A09932946DB
:109F9C0001A8C847DAE792F801C01CF0010F08D0FD
:109FAC0010B5D47D14B1FFF7BBFF10BDFFF724FD36
:109FBC00FBE7704708B501390130FFF7ECFF08BD2E
:109FCC0010B54FF4E072002113481BF0ABFC06F007
:109FDC00A5F90024114B1C608022214610481BF06F
:109FEC00A1FC104B104A1A60104A5A604CF25032C5
:109FFC009A600F49D9601A6104221A759C7508225F
:10A00C005A750C4803F07AFC0B4B18600B4B1C6018
:10A01C000B4806F081FC10BDD4360020A836002079
:10A02C0028360020BC36002080969800F0490200AB
:10A03C0020A1070085A20200B8360020AC36002013
:10A04C008D92020008B506F089F908BD98B110B5DB
:10A05C008CB00446036983B1C36983B1836983B14E
:10A06C0001466846FFF77AFEA28A21696846FFF727
:10A07C005FFE0CB010BD0E2070470E20F9E70E20CD
:10A08C00F7E70E20F5E7000058B310B590B00A467C
:10A09C00044643683BB383693BB3014604A8FFF70E
:10A0AC0066F8134B1B6813F0040F03D0114B1B689D
:10A0BC00062B06DCA268616804A8FFF739FE10B015
:10A0CC0010BD0D4BD3F804352278A1690291019291
:10A0DC000A4A009240F605020949072004F000FEE6
:10A0EC00E8E70E2070470E20E9E70E20E7E700BFF7
:10A0FC00982E0020942E002000100140746C040057
:10A10C00806B0400037B012B01D00020704730B51D
:10A11C0091B004460D463F4B1B6813F0040F03D05F
:10A12C003D4B1B68032B59DC04A9002304930593B6
:10A13C00CDF81730E0889DF8102002F080028DF8E1
:10A14C001020C0F3861C42EA0C028DF810209DF8FA
:10A15C00112002F003028DF8112042EA80028DF8E2
:10A16C0011202A0E8DF812202A0C8DF813202A0AA1
:10A17C008DF814208DF815506278022A0CBF01203E
:10A18C0018469DF8102002F07F028DF8102042EA4C
:10A19C00C0128DF810204FF0060209924FF0010208
:10A1AC008DF82C20A28AADF82E200C938DF81C3043
:10A1BC000891226A0D928DF82830E36A0F9319D01A
:10A1CC00E389ADF82A30A37DF3B98DF838306FF000
:10A1DC00010107A8FFF758FF11B030BD0F4BD3F8A2
:10A1EC0004350F4A009240F263220E49042004F019
:10A1FC0077FD99E70DF10E0103A810F065F8BDF895
:10A20C000C30ADF82A30DEE7074B5B7D8DF838302B
:10A21C00DDE700BF982E0020942E00200010014096
:10A22C00A06C0400806B0400BC36002090F8483011
:10A23C00022B00D0704710B5044690F86830022B02
:10A24C0000D010BDC16CFFF75DFF0028F9D10023D1
:10A25C0084F86830F5E7000010B5002407E0C4EB83
:10A26C00C402130103481844FFF7E0FF0134032C28
:10A27C00F5D910BDD436002008B5FFF7B9F9FFF7B2
:10A28C00EBFF012008BD10B50C4691F84830022BAD
:10A29C0006D1022384F868302046FFF7C7FF10BDB3
:10A2AC007846FEF7BFFDF4E7F0B583B00446C1690C
:10A2BC008369C2880E0A0906C3F30C0082422FD9A7
:10A2CC00121A1A44A2F500528D1846F100062A46BD
:10A2DC003346A08AFEF746FE002840F089802046CF
:10A2EC00FEF720FF074630B3C2698069F988130A6C
:10A2FC001206C0F30C0C8C4515D2A1EB0C010144D9
:10A30C00A1F50051521843F10003AA4273EB060168
:10A31C000DD3954276EB030330D3384603B0F0BD32
:10A32C00121A1A44D0E7A1EB0C010144EAE705210B
:10A33C003846FFF7F3FBE388E269A169A08A06F0CF
:10A34C00F5F8E8B9627A0132E37DA3B3082101FB89
:10A35C0002F293B34FF48073934231D3022120461F
:10A36C00FFF7F4F907460028D7D100212046FFF764
:10A37C00C9FE02210020FEF76FFFCEE70027CCE7D5
:10A38C00E388E269A169A08A06F048F908B90027B8
:10A39C00C3E723785BB1637A01330121994001391A
:10A3AC002046FFF7AFFE2046FFF7B2F9EFE77846FD
:10A3BC00FEF738FDEFE70C21C9E74FF4C073CBE78C
:10A3CC000C4B1B6813F0040F03D00B4B1B68002BBA
:10A3DC0001DC0027A1E7094BD3F804350192084AA8
:10A3EC00009240F27F320749012004F079FCF0E73B
:10A3FC00002792E7982E0020942E00200010014098
:10A40C00B06C0400806B04002DE9F04182B007466B
:10A41C000E46144698461046FFF746FF002846D0D5
:10A42C000546404B1B6813F0040F03D03E4B1B68D2
:10A43C00032B3FDC2846FFF701F92B7B012B47D080
:10A44C00EB6C217A01228A40134230D11343EB6426
:10A45C00043E237AE27D002A42D04FF0080C0CFB1C
:10A46C0003FC697A8B423ED0002A41D00823B342C8
:10A47C0040D1AA69A3699A4209D205F10C0E0C3499
:10A48C000FCCAEE80F0094E803008EE80300E86EF2
:10A49C003246391D60441BF00FFAEC6C2B7873B309
:10A4AC006A7A013201239340013B9C422BD002B0CB
:10A4BC00BDE8F0811D4BD3F80435227A01921C4A79
:10A4CC00009240F2A3321B49042004F009FCB1E7CE
:10A4DC0095F86830002BB3D12846FFF7C5F8AFE7E5
:10A4EC004FF00C0CBBE70CEB0603A5F84A30C0E7A9
:10A4FC000C23BCE704212846FFF710FBD7E778466E
:10A50C00FEF790FCCCE7E96C2846FFF7FBFD4346D1
:10A51C002A46B5F84A10E86EFFF73DFD2846FFF7CE
:10A52C00C7FAC4E7982E0020942E0020001001409A
:10A53C00C46C0400806B04002DE9F04190B000283D
:10A54C004CD00F4614461E468046002A48D004AB19
:10A55C0000933346FEF7ACFE054618B1284610B002
:10A56C00BDE8F08104A8FFF79DF805460028F5D159
:10A57C0000230293039302A960880FF089FE28B18F
:10A58C009DF8113043F001038DF811302269E16818
:10A59C00208905F083FF38B19DF8113003F0FE03DC
:10A5AC008DF81130002BD9D09DF81130002BD5D05F
:10A5BC0013F0010F01D0039B08939DF8103033B1B9
:10A5CC00334604AA39464046FFF71EFFC6E733461A
:10A5DC0004AA39464046FFF7EDFCBFE70E25BDE760
:10A5EC000E25BBE7F8B508B30E460546164B1F689B
:10A5FC00F7B93C46B4420FD205EBC4035B68D3B148
:10A60C0015F8340015F93430002B16DBB8B1FEF711
:10A61C00E5FDB0B90134EDE70C4B43F8375003EBD3
:10A62C00C7035E607B1C084A136002E00E2700E043
:10A63C0004273846F8BD0E27FBE70B27F9E70F2751
:10A64C00F7E70F27F5E700BFAC360020B036002047
:10A65C00084B196861B110B501E021463CB10C689A
:10A66C000B79002BF9D0034804F0A5FAF5E710BDDF
:10A67C00704700BF9838002038B5054630B1104BF4
:10A68C001C68C4B10F4B01221A7004E07846FEF727
:10A69C00C9FBF4E724683CB12379002BFAD154F8B8
:10A6AC00043C28469847F5E7064B1B78022B03D051
:10A6BC00044B00221A7038BDFFF7CAFFF8E700BF41
:10A6CC00983800209438002010B5044630B100238F
:10A6DC002372211D034804F043FA10BD7846FEF79F
:10A6EC00A1FBF4E79838002010B5044658B10A4B8A
:10A6FC001B78013BDBB2012B09D8074B02221A70E5
:10A70C000123237210BD7846FEF78CFBEFE7211D69
:10A71C00024804F050FAF5E79438002098380020ED
:10A72C000A8883689B5A07339BB223F003031344B4
:10A73C009BB20288043A934200D900230B807047E5
:10A74C0010B582B004468368C91AADF806100DF135
:10A75C000601FFF7E5FFBDF80630A068184402B00B
:10A76C0010BD0088043880B2704743888268D018C6
:10A77C00D152012383707047826800239370438009
:10A78C008380704708B5073189B221F0030189B283
:10A79C00428883889A4204D29B1A994220DC00207A
:10A7AC0008BD9A4212D9B0F800C0ACEB020C61455E
:10A7BC0018D98B4218D3BCF1030F03D98368134407
:10A7CC0004229A70002343801846E9E782681A44F1
:10A7DC0093780BB10420E3E7FFF7CEFF0020DFE70F
:10A7EC000420DDE70020DBE70420D9E738B5044678
:10A7FC000D468368828813448B4202D07846FEF75C
:10A80C0011FB0023AB70211D2046FFF789FFA288A6
:10A81C00A36813449B78042B00D038BD0023A3807D
:10A82C00FBE710B50C468368428813448B4202D078
:10A83C007846FEF7F7FA0023A37010BD70B50546F5
:10A84C0014460E46002944D0002D46D0B6F1005FC8
:10A85C0008D94FF08053D3F80C3103F50023B6EB35
:10A86C00832F0ED3B6F5000F08D94FF08053D3F8D1
:10A87C000C3103F50053B6EB832F02D37846FEF769
:10A88C00D1FA631E3344B3F1005F08D94FF0805204
:10A89C00D2F80C2102F50022B3EB822F0ED3B3F5C4
:10A8AC00000F08D94FF08052D2F80C2102F500525B
:10A8BC00B3EB822F02D37846FEF7B4FA042C10D9EE
:10A8CC002C8000236B80AB80AE60043C3480B37072
:10A8DC0070BD7846FEF7A6FAB6E77846FEF7A2FA00
:10A8EC00B4E77846FEF79EFAEAE738B50446A0B11D
:10A8FC006288A36813449B78012B12D0EFF3108568
:10A90C0072B6A388A16819448B78032B0DD020460E
:10A91C00FFF732FF05B962B638BD7846FEF782FA0A
:10A92C00E6E77846FEF77EFAE8E72046FFF708FFF1
:10A93C00A368C31A638000238370EBE72DE9F04111
:10A94C000E4614460546D0B1EEB16A88AB68134486
:10A95C009B78012B1BD024B32846FFF702FFA042A3
:10A96C0021D3EFF3108872B621462846FFF70AFF71
:10A97C00074680B1B8F1000F16D162B614E07846E4
:10A98C00FEF750FAE0E77846FEF74CFADDE778463A
:10A99C00FEF748FADFE721462846FFF7E6FE30606F
:10A9AC00E8E7092700E009273846BDE8F081F8B54B
:10A9BC000C4615460646E0B1FCB1A378012B20D11C
:10A9CC002388AB4221D325B3EFF3108772B62580D1
:10A9DC000223A370F1183046FFF7A2FE7388B288E9
:10A9EC00934203D0B268134400229A7007B962B63E
:10A9FC00F8BD7846FEF716FADEE77846FEF712FA4F
:10AA0C00DBE77846FEF70EFADAE77846FEF70AFA45
:10AA1C00D9E77846FEF706FAD6E770B50C46054638
:10AA2C0090B1ACB1EFF3108672B6AA88AB68134440
:10AA3C009A78042A10D09A78022A15D0032A18D0B2
:10AA4C00052006B962B670BD7846FEF7EBF9E8E76B
:10AA5C007846FEF7E7F9E5E7291D2846FFF760FE83
:10AA6C00AA88AB681344E6E703229A70236000209F
:10AA7C00E7E77846FEF7D6F90020E2E738B504465A
:10AA8C0080B1EFF3108572B6A388A16819448B7856
:10AA9C00042B0BD08878022814BF0020012005B9A4
:10AAAC0062B638BD7846FEF7BDF9EAE72046FFF7F7
:10AABC0047FE0146EEE738B5054630B1EFF310849A
:10AACC0072B6AB88A968194407E07846FEF7AAF974
:10AADC00F4E72846FFF734FE01468878C31EDBB244
:10AAEC00012BF6D9022814BF0020012004B962B64C
:10AAFC0038BD70B50C46064678B194B1EFF31085AD
:10AB0C0072B6A378012B10D0032B13D121463046FB
:10AB1C00FFF76CFE05B962B670BD7846FEF782F998
:10AB2C00EBE77846FEF77EF9E8E721463046FFF77B
:10AB3C0078FEEFE77846FEF775F9EBE710B5EFF323
:10AB4C00108472B68388816819448B78042B06D0E4
:10AB5C008878B0FA80F0400904B962B610BDFFF7EE
:10AB6C00EFFD0146F4E70000024B00221A769A60D2
:10AB7C00022070479C38002008B5064B98680022CC
:10AB8C001A605A609A60DA601A615A619A6105F02B
:10AB9C006FF808BD9C38002000B585B00A4BDB6807
:10ABAC0002228DF8002001934FF480530293074A40
:10ABBC006946012001F0F8FA18B9012005B05DF8DA
:10ABCC0004FB0020FAE700BF9C380020BA380020B4
:10ABDC0000B585B00A4B1B6802228DF8002001934A
:10ABEC004FF480530293074A6946012001F0DCFAC6
:10ABFC0018B9012005B05DF804FB0020FAE700BF8E
:10AC0C00BC380020BA380020164BDA681379517919
:10AC1C005B1A03F57F2303F6FF7302EB03339A42AF
:10AC2C0005D002F580520F4BDA600320704700B557
:10AC3C0085B00D4B1B6801208DF8000001930B4B68
:10AC4C000393042302930A4A694601F0ADFA18B142
:10AC5C00002005B05DF804FB024B01221A7602209D
:10AC6C00F7E700BF9C380020BC380020C03800201B
:10AC7C00BA38002000B585B00C4BDA680C4B1B6859
:10AC8C00043301208DF800000192039340F6FC730D
:10AC9C000293084A694601F087FA28B90120034B50
:10ACAC00187605B05DF804FB0020FAE79C3800200C
:10ACBC00BC380020BA38002000B585B00A4B1B68A0
:10ACCC0001208DF800000193084B03930423029399
:10ACDC00074A694601F068FA18B9012005B05DF819
:10ACEC0004FB0020FAE700BFBC380020A838002085
:10ACFC00BA38002010B584B0104BDA681478104BB9
:10AD0C001B68043301208DF8000001930392029418
:10AD1C000C4A694601F048FA70B9094B1B6804F0FB
:10AD2C00FC0423440433054A5361D1680B780B446B
:10AD3C001361012004B010BD0020FBE79C380020FB
:10AD4C00BC380020BA38002008B500230A2B09D8DB
:10AD5C00064A52F82320824201D00133F6E7044A16
:10AD6C00536002E07846FEF75DF808BD5C6D0400A8
:10AD7C009C38002010B5214BDB6853B11F4B1B7E58
:10AD8C005BB91E4B5B680A2B26D97846FEF74AF84E
:10AD9C0022E07846FEF746F8F0E77846FEF742F8F0
:10ADAC00EFE7164A5368013353600A2B21D97846D2
:10ADBC00FEF738F81DE0114B00225A6019E00F4BDA
:10ADCC001B7E1BB10D4B02221A7012E0FFF7D4FE52
:10ADDC000FE00A4B1B7E83B9084B5A68084B53F89B
:10ADEC002230984704460228E9D00328E3D00128F2
:10ADFC00D7D0012CEDD0032CEBD010BD9C3800200B
:10AE0C005C6D0400104B1B681B685A1E12F1030F7B
:10AE1C0018D8C3F30B020AB10020704710B50B4AC7
:10AE2C00D360002313765376012414709360084882
:10AE3C00FFF78AFF0749204601F0A4F9FFF79AFFB4
:10AE4C00204610BD00207047BC3800209C380020E4
:10AE5C00A5AB020065AE020008B50B78032B06D03B
:10AE6C000B4B1B78012B06D0022B0BD008BD084BCB
:10AE7C0000221A76F4E7064B1B7E002BF6D1FFF767
:10AE8C0079FFF3E70B78032BF0D1FFF775FEEDE7B5
:10AE9C009C38002000B585B0174BDB6818784FF64E
:10AEAC00FF7203F58051184405F0ECFCE0B102464A
:10AEBC00114BD9680B780B44984217D00E4B5B7E24
:10AECC0083B10E4B01208DF80000019203930423F3
:10AEDC0002930B4A694601F067F948B90120064B09
:10AEEC00187606E0074BEDE7012002E0012000E0B8
:10AEFC00002005B05DF804FB9C380020B46F040002
:10AF0C00BA380020B06F040008B5104BDB68187815
:10AF1C00002203F58051184405F0B4FC08B101205F
:10AF2C0008BD0A4BDA68137951795B1A03F57F2354
:10AF3C0003F6FF7302EB03339A4205D002F58052FD
:10AF4C00024BDA600320EBE70220E9E79C38002093
:10AF5C00F0B585B0514BDE6872793379591E8A424F
:10AF6C0014D006F580510D780D444D490968081D23
:10AF7C000F7907449B1A06EB03366B88013B9BB297
:10AF8C0047F6FE62934260D92C461AE00120434BEF
:10AF9C0058767EE07846FDF745FF15E024F47F6493
:10AFAC0024F00F0404F5805423781C44A6421CD9C9
:10AFBC00A5421CD26388013B9BB247F6FE629342CA
:10AFCC0011D92388002BE5D0238804EB830323F4C9
:10AFDC007F6222F00F029342E0D06288B2F5FE4FFE
:10AFEC00DCD01C46E2E725462FE000252DE00025AD
:10AFFC002BE07846FDF716FF15E024F47F6424F06F
:10B00C000F0404F5805423781C44A6421CD9A54295
:10B01C0037D26388013B9BB247F6FE62934211D94B
:10B02C002388002BE5D0238804EB830323F47F6271
:10B03C0022F00F029342E0D06288B2F5FE4FDCD0D2
:10B04C001C46E2E7254600E00025E5B1144B1968E3
:10B05C006A8801F58051384605F014FC074690B11A
:10B06C0001200E4B18768DF8000001950D4B0393C3
:10B07C00042302930C4A694601F096F858B92C4601
:10B08C00CEE70025E1E7B5FA85F56D09034B5D7652
:10B09C00012005B0F0BD0020FBE700BF9C3800206C
:10B0AC00BC380020AC6F0400BA3800202DE9F04108
:10B0BC0086B0654B1B6923B1634B5B692BB10027D1
:10B0CC0048E07846FDF7AEFEF6E77846FDF7AAFEB7
:10B0DC00F5E7A04618E07846FDF7A4FE18E028F442
:10B0EC007F6828F00F0808F5805898F800309844CD
:10B0FC00454520D944454AD2B8F80230013B9BB2B1
:10B10C0047F6FE62934214D9B8F80030002BE2D017
:10B11C00B8F8003008EB830323F47F6222F00F02AF
:10B12C009342DCD0B8F80220B2F5FE4FD7D0984647
:10B13C00DEE7444600E000243CBB00230093019B67
:10B14C00002B5CD10127002C78D0628847F6FF7366
:10B15C009A4273D0002F75D13B4B5A6922F47F660B
:10B16C0026F00F06B61A06F580561C69DD682B7999
:10B17C006A799B1A05EB0335002301936388013B25
:10B18C009BB247F6FE629342A3D800940EE00024D3
:10B19C00D2E77846FDF746FE23E024F47F6323F0E4
:10B1AC000F0303F580531A7813441C46A542C6D9E5
:10B1BC002388019A02EB83029642C0D9009B63401C
:10B1CC0023F47F6323F00F03002BB8D16388013B7A
:10B1DC009BB247F6FE618B42B1D801922388002BBB
:10B1EC00D7D0238804EB830323F47F6222F00F0271
:10B1FC009342D2D06288B2F5FE4FD6D1CDE7124A37
:10B20C00526901208DF808000392009A059204936C
:10B21C000E4A02A900F0C8FF70B90B49019B23F03C
:10B22C0003024B6913444B6114B1074B1C618AE751
:10B23C007846FDF7F7FDF8E7002000E0012006B0A6
:10B24C00BDE8F0810120FAE79C380020BA380020D4
:10B25C0000B585B00023294A1370D3F8F83FB3F139
:10B26C00FF3F09D0B3F1FF3F0DD08BB1B3F1FF3FDE
:10B27C0039D0A3F5805211E04FF010225269B2F18F
:10B28C00FF3FEFD104E04FF010225269002AEDD1BC
:10B29C004FF080535A691B6903FB02F2A2F58052EE
:10B2AC00174B1A60174B1B6813F4801F16D0164BE4
:10B2BC001B68062B12DD154BD3F804350021D1F891
:10B2CC00F81FB1F1FF3F14D002920191104A009285
:10B2DC0040F276220F49072003F002FDFFF792FDA2
:10B2EC0005B05DF804FB4FF010235A69A2F58052AB
:10B2FC00D4E74FF010214969E6E700BFB8380020C9
:10B30C00BC380020982E0020942E00200010014004
:10B31C00286D0400106D040010B50446B0B1104B3C
:10B32C001B78BBB10E4BD968E3685879A3EB00329C
:10B33C00914211D31A79121A02F57F2202F6FF728A
:10B34C0003EB0233994209D8012004E07846FDF75B
:10B35C0069FDE4E7002010BD0020FCE70020FAE7BF
:10B36C009C380020024B1878003818BF0120704719
:10B37C009C38002010B50446124B1B78BBB92378BF
:10B38C00032B18D10F4B9C60E268DA600E4B1B78D4
:10B39C00ABB10A220B4B5A6000221A7601201870AE
:10B3AC005A760A4900F0EEFEFFF7E4FC10BD784631
:10B3BC00FDF738FDE3E77846FDF734FDE2E70022C0
:10B3CC00E8E700BF9C380020B838002065AE0200CA
:10B3DC00014B1868704700BFBC38002010B50446FC
:10B3EC0080B163681BB123680BB1A36813B97846AD
:10B3FC00FDF718FDA3685A1E134207D10023E36022
:10B40C00236110BD7846FDF70DFDEAE77846FDF7A0
:10B41C0009FDF3E770B508B30E4604468368FBB12B
:10B42C00EFF3108572B60369C268934212D00168BB
:10B43C004268806800F1FF3C03EA0C0303FB021135
:10B44C0016B130461AF038FA2369013323614DB92D
:10B45C0062B608E005B962B6052504E00E2502E0E7
:10B46C00092500E00025284670BD00000246C0F307
:10B47C000B0030BB39B301F6FF714FEA113C134B93
:10B48C000221C3F80415114BD3F80034002BFAD069
:10B49C0001460AE00D4BC3F808250C4BD3F80034D9
:10B4AC00002BFAD002F5805201316145F2D3074BE3
:10B4BC000022C3F80425054BD3F80034002BFAD036
:10B4CC007047102070470920704700BF00E0014012
:10B4DC00844610F0030F2DD111F0030F2CD16AB359
:10B4EC0012F0030F2CD19008164B0122C3F804253F
:10B4FC00144BD3F80034002BFAD003E00CF1040CFD
:10B50C0004311046421E58B10B68B3F1FF3FF5D021
:10B51C00CCF800300B4BD3F80034002BFAD0EDE70D
:10B52C00084B0022C3F80425064BD3F80034002B3B
:10B53C00FAD07047102070471020704709207047D0
:10B54C000920704700E00140094B1B7813F0040FF1
:10B55C0002D00378122B00D07047064B1A68064BAA
:10B56C005A60034B1A786FF382021A70F4E700BF2B
:10B57C006839002058390020F438002010B582B00A
:10B58C0001900C46BDF80630012B11D123680A49F5
:10B59C000B600A4B1A7842F001021A70D3B25B08A6
:10B5AC0083F0010303F001030B71002002B010BD06
:10B5BC007846FDF737FCE9E7583900206839002058
:10B5CC0010B582B001900C46BDF80630022B0FD19D
:10B5DC002268094B1A6022791A71002058719871EF
:10B5EC00D871064A137843F00203137002B010BDF1
:10B5FC007846FDF717FCEBE750390020683900203E
:10B60C0010B582B001900C46BDF80630032B06D164
:10B61C00054B186820601B79237102B010BD784669
:10B62C00FDF700FCF4E700BF5839002010B582B0DC
:10B63C0001900C46BDF80630032B0CD1084B20684A
:10B64C00186022791A71074A137843F001031370BA
:10B65C00002002B010BD7846FDF7E4FBEEE700BF1A
:10B66C00583900206839002010B582B001900C4682
:10B67C00BDF80630042B05D1044B03CB2060616070
:10B68C0002B010BD7846FDF7CDFBF5E75039002030
:10B69C0010B582B001900C46BDF80630042B0BD1CE
:10B6AC00074B2068616803C3064A137843F0020312
:10B6BC001370002002B010BD7846FDF7B3FBEFE726
:10B6CC00503900206839002000B583B00190BDF8D6
:10B6DC000630032B06D1054B00221A601A7103B0F9
:10B6EC005DF804FB7846FDF79DFBF4E75839002024
:10B6FC0000B583B00190BDF80630042B06D1054B84
:10B70C0000221A605A6003B05DF804FB7846FDF71E
:10B71C0089FBF4E75039002000B585B01A4B1B7833
:10B72C0013F0400F13D0184B1B7813F0040F0BD1F0
:10B73C00002301938DF80830144B5B6803F500531C
:10B74C000193B3F1807F06D905B05DF804FB784610
:10B75C00FDF768FBE7E70E4B1B788DF808300A4ABB
:10B76C00137843F0040313700023ADF80C3003235B
:10B77C00ADF80E3001A9039806F066FA0028E3D064
:10B78C007846FDF74FFBDFE768390020F4380020DE
:10B79C006939002000B585B00022019202920F4B4E
:10B7AC00996801911B7B8DF808300D490B7801339A
:10B7BC00DBB20B708DF80B30ADF80C200423ADF818
:10B7CC000E300DEB0301039806F03EFA10B905B0EC
:10B7DC005DF804FB7846FDF725FBF8E7F43800200C
:10B7EC006939002000B585B00023019302930F4AFC
:10B7FC0091680191117B8DF80810128AADF809201F
:10B80C000B4A12788DF80B20ADF80C300423ADF8F0
:10B81C000E300DEB0301039806F016FA10B905B0C3
:10B82C005DF804FB7846FDF7FDFAF8E7F4380020E4
:10B83C006939002000B58DB00B4B1B7B012B0ED052
:10B84C00094A926804928DF80830039002238DF80F
:10B85C00043001A8FEF710FF0DB05DF804FB024A9E
:10B86C009268013A0492EEE7F438002008B51D48BE
:10B87C001D4B036000F036FF1C4B1B7813F0200FA0
:10B88C002AD103F00303032B14D1194B1968194A5D
:10B89C00916019791173B3F805001082DB79164A9F
:10B8AC001370164A1279934217D0B1B9114B00227A
:10B8BC001A6007E00F4B00221A609A601A731A8202
:10B8CC00FFF768FF0B4B1A685A60084A137843F06D
:10B8DC0040031370FFF720FF08BD084B1A68054B97
:10B8EC001A60EFE74439002055B502006839002092
:10B8FC0050390020F43800206939002058390020D4
:10B90C0010B582B00024ADF800400123ADF8023030
:10B91C00009806F0CAF9ADF804400223ADF80630E1
:10B92C00019806F0C2F902B010BD000008B5002065
:10B93C0006F0E2F9094A0023136053609360D36068
:10B94C001361074A117863F345111170CBB243F0C0
:10B95C0040031370FFF7E0FE08BD00BFF438002071
:10B96C006839002038B50C4D00242C606C60AC603C
:10B97C00EC602C6101F0BAF9084B5860084A9A60E7
:10B98C00084ADA601C615C61074B1A7864F3C302E5
:10B99C001A706C6038BD00BFF4380020D03800201D
:10B9AC0011BB0200008793036839002008B50C4BCB
:10B9BC001B7813F0100F00D008BD0A480A4B036027
:10B9CC0000F090FEFFF752FFFFF79AFF074801F0D7
:10B9DC0011F9034A137843F010031370ECE700BF1E
:10B9EC0068390020E838002069BC0200D0380020FB
:10B9FC00034B1878800880F0010000F001007047BC
:10BA0C006839002010B501F0FBFE174B1B7B1BBBEC
:10BA1C00154B9B7B2BBB144B1A8A41F282639A42C7
:10BA2C0006D8124B1B7813F0080F05D0012300E049
:10BA3C0001231BB9082410E00023FAE70A4B01226A
:10BA4C001A7300241C829A6801329A60FFF7A2FED6
:10BA5C002046FFF7EFFE00E0082401F017FF204618
:10BA6C0010BD0824F9E700BFF43800206839002025
:10BA7C0010B501F0C5FE214B5B7BABB11F4B9B7B23
:10BA8C0003BB1E4B1A8A41F282639A4206D81C4BA6
:10BA9C001B7813F0080F05D0012300E001239BB1A4
:10BAAC00012302E00023FAE700231C460BB3134BDF
:10BABC0000225A731B7B4BB1012B0ED07846FDF73D
:10BACC00B1F916E00023F0E70023EEE7FFF79AFF49
