:020000022000DC
:1060000000F0002069630200516302005363020044
:10601000556302005763020059630200000000004C
:106020000000000000000000000000005B630200B0
:106030005D630200000000005F6302006163020014
:106040006363020063630200636302006363020030
:10605000636302006363020059B7030063630200D5
:106060006363020063630200358C03006363020014
:106070006363020063630200636302006363020000
:10608000636302003D230400ADDB02006363020092
:10609000A123040063630200E1BA0300636302000A
:1060A00063630200636302006363020063630200D0
:1060B0006363020063630200000000000000000050
:1060C00063630200636302006363020063630200B0
:1060D0006363020063630200636302000000000068
:1060E00000000000000000000000000000000000B0
:1060F00000000000000000000000000000000000A0
:10610000000000000000000000000000000000008F
:10611000000000000000000000000000000000007F
:10612000000000000000000000000000000000006F
:10613000000000000000000000000000000000005F
:10614000000000000000000000000000000000004F
:10615000000000000000000000000000000000003F
:10616000000000000000000000000000000000002F
:10617000000000000000000000000000000000001F
:10618000000000000000000000000000000000000F
:1061900000000000000000000000000000000000FF
:1061A00000000000000000000000000000000000EF
:1061B00000000000000000000000000000000000DF
:1061C00000000000000000000000000000000000CF
:1061D00000000000000000000000000000000000BF
:1061E00000000000000000000000000000000000AF
:1061F000000000000000000000000000000000009F
:10620000334934480A1A02D0072291438D46324955
:1062100032480A1A06D00722914381F309880222E4
:1062200082F314882E482F492F4A00F03FF82F4858
:106230002F49304A00F03AF82F483049304A00F0F0
:1062400035F830483049314A00F030F830483149AB
:10625000314A00F02BF831483149324A00F026F833
:1062600031483249324A00F021F83248324900229E
:1062700000F027F831483249002200F022F8314876
:106280003149091A1CF042FB1F482049884205D0B9
:106290000268043003B4904703BCF7E70020864649
:1062A000EC4600200021294A9047FEE7884207D0AB
:1062B000521A05D0037801300B700131013AF9D13F
:1062C0007047884202D002700130FAE77047000040
:1062D00000F0002000E8002000F0002000F0002086
:1062E000E4590400F02D0020682E00209C63020079
:1062F0009C63020074290400E4590400F02D00207E
:10630000F02D00202C2D04002C2D04002C2D040039
:106310002C2D04002C2D04002C2D04002C2D040009
:106320002C2D0400E45904005C5A0400682E00205F
:10633000682E0020682E0020F45C0020F45C002011
:10634000F45C0020F45C0020F46000201D71020069
:10635000FEE7FEE7FEE7FEE7FEE7FEE7FEE7FEE715
:10636000FEE7FEE700F002B8FFF7FCBF08484FF079
:10637000070188438546074880470748016841F47C
:1063800070010160BFF34F8FBFF36F8FFFF738BF0E
:0C63900000F00020D1BC030088ED00E00C
:10639C0041DF70470B781BBB124B1B6813F4804F0B
:1063AC001ED0114B1B68032B1ADD10B584B00F4B9C
:1063BC00D3F804354A685088097B526914786CB953
:1063CC0092F90D20039202910190094A0092E12268
:1063DC000849042008F038FC04B010BD0022F1E795
:1063EC00704700BF142E0020102E0020001001401A
:1063FC006C2D0400632D040010B5C6B0744B1B68E3
:10640C0013F4804F03D0734B1B68032B31DC704BA0
:10641C001B6813F4804F03D06E4B1B68032B34DCCA
:10642C006B4B1B6813F4804F03D06A4B1B68032B18
:10643C0067DC674B1B6813F4804F04D0654B1B68FB
:10644C00032B00F38A80624B1B6813F4804F04D03B
:10645C00604B1B68032B00F3AD805D4B1B6813F482
:10646C00804F04D05B4B1B68032B00F3A58046B018
:10647C0010BD594BD3F80435584A009240F2032210
:10648C005749042008F0E0FBC1E7534BD3F804351F
:10649C00544A1178527802920191534A00924FF467
:1064AC0001724F49042008F0CFFBB9E74D4A1A445A
:1064BC0092F830204D490C681009590014F800C0AE
:1064CC0005A800F813C002F00F020131A25C42547F
:1064DC0001330F2BEAD905AA00238DF8343003F1D0
:1064EC00804303F58833D3F804350292404A019275
:1064FC00404A009240F206223949042008F0A4FBDD
:10650C0097E70023E5E7374A1A44127C37490C68B1
:10651C001009590014F800C005A800F813C002F0C7
:10652C000F020131A25C425401330F2BEBD905AAA7
:10653C0000238DF8343003F1804303F58833D3F80E
:10654C00043502922C4A01922A4A009240F2072208
:10655C002349042008F078FB75E70023E5E7214A7E
:10656C001A4492F8202021490C681009590014F89B
:10657C0000C005A800F813C002F00F020131A25CA4
:10658C00425401330F2BEAD905AA00238DF834307D
:10659C0003F1804303F58833D3F804350292174A8C
:1065AC000192144A00924FF402720D49042008F033
:1065BC004BFB52E70023E5E7074BD3F80435104AB1
:1065CC00009240F209220649042008F03DFB4EE7F8
:1065DC00142E0020102E002000100140A42D0400C9
:1065EC00632D0400842E0020C02D0400182E0020E2
:1065FC00F02D0400FC2D0400042E0400102E0400C9
:10660C001C2E040000B585B00390124B1B6813F4CC
:10661C00804F03D0104B1B68042B0BDCBDF80E30E5
:10662C00012B12D1402200210C481CF09BF805B024
:10663C005DF804FB0A4BD3F804350A4A0092902209
:10664C000949052008F000FBE8E7784602F0BEFC9B
:10665C00E8E700BF142E0020102E0020842E00200E
:10666C0000100140642E0400632D040000B583B0BB
:10667C000378142B1BD01D2B0AD11C4B1B6813F455
:10668C00804F03D01A4B1B68042B04DCFFF7B4FEBD
:10669C0003B05DF804FB174BD3F80435164A00928F
:1066AC004FF4A1721549052008F0CEFAEEE7C38825
:1066BC00102BEDD10D4B1B6813F4804F03D00C4BFA
:1066CC001B68032B05DC402200210D481CF04AF806
:1066DC00DEE7084BD3F804350A4A00924FF4A67251
:1066EC000649042008F0B0FAEDE700BF142E002094
:1066FC00102E002000100140802E0400632D040099
:10670C00842E0020A02E040030B585B003900C46DA
:10671C00184B1B6813F4804F03D0174B1B68042BCA
:10672C0018DCBDF80E30012B1FD1144DA44605F119
:10673C00400E2C460FCCCCF80000CCF80410CCF852
:10674C000820CCF80C3025460CF1100C7445F0D117
:10675C0005B030BD0A4BD3F804350A4A00928722A3
:10676C000949052008F070FADBE7784602F02EFCA8
:10677C00DBE700BF142E0020102E0020842E0020FA
:10678C0000100140E42E0400632D040030B585B0E8
:10679C0003900C46184B1B6813F4804F03D0174B17
:1067AC001B68042B19DCBDF80E30012B20D1A4463C
:1067BC00134D4034AE46DCF80000DCF80410DCF875
:1067CC000820DCF80C30AEE80F000CF1100C75460C
:1067DC00A445EFD1002005B030BD0A4BD3F80435E9
:1067EC00094A00927C220949052008F02DFADAE7C3
:1067FC00784602F0EBFBDAE7142E0020102E002076
:10680C00842E002000100140FC2E0400632D040097
:10681C0000B583B0194B1B6813F4804F03D0184B91
:10682C001B68032B12DC174B4FF6FF725A809A80B1
:10683C001A80154817F0A0FEA0B9144A002114487C
:10684C001BF084FAA0B903B05DF804FB114BD3F82C
:10685C000435114A00924FF4D5721049042008F007
:10686C00F3F9E0E70E4A4FF4D97115F059FBE4E760
:10687C000B4A40F2B31115F053FBE4E7142E002041
:10688C00102E0020682E0020B1680200A1630200C7
:10689C00702E002000100140142F0400632D040002
:1068AC002C2D040070B582B004460D4616460D4BD7
:1068BC001B6813F4804F03D00B4B1B68032B06DCB7
:1068CC0032462946204601F02DFF02B070BD074B21
:1068DC00D3F80435064A0092FD220649042008F03C
:1068EC00B3F9EDE7142E0020102E0020001001400B
:1068FC00342F0400632D040000B583B0234B1B68B8
:10690C0013F4804F03D0224B1B68032B1ADC1F4B54
:10691C001B6813F4804F03D01D4B1B68032B1FDC2B
:10692C001A4B1B6813F4804F03D0194B1B68032BB5
:10693C0021DC0021174B1970122002F029F903B049
:10694C005DF804FB144BD3F80435144A52780192C9
:10695C00134A0092BF221349042008F075F9D6E7B8
:10696C000D4BD3F80435104A0092C0220D49042077
:10697C0008F06AF9D4E7084BD3F804350B4A0092B7
:10698C00C1220849042008F05FF9D2E7142E002038
:10699C00102E0020802E002000100140842E00209C
:1069AC004C2F0400632D0400702F04009C2F040056
:1069BC0000B583B00E4B1B6813F4804F03D00D4B06
:1069CC001B68032B08DC00210B4B1970112002F003
:1069DC00DFF803B05DF804FB084BD3F80435084A24
:1069EC000092D2220749042008F02EF9EBE700BFF1
:1069FC00142E0020102E0020802E002000100140AC
:106A0C00D42F0400632D040000B583B00F4B1B681A
:106A1C0013F4804F03D00E4B1B68032B0ADC00F0E1
:106A2C00CBFC00F071FC0121112002F0B1F803B095
:106A3C005DF804FB074BD3F80435074A00924FF47A
:106A4C0083720649042008F0FFF8E8E7142E0020B2
:106A5C00102E00200010014004300400632D0400AF
:106A6C0000B583B0254B1B78002B31D1244B5A78C1
:106A7C001B789A4229D2234B1B6813F4804F03D006
:106A8C00214B1B68032B14DC1D48C36801930023A6
:106A9C00009300F120020221408801F09BFE0121AD
:106AAC00122002F075F8154B01221A7003B05DF834
:106ABC0004FB164BD3F80435154A009240F227120A
:106ACC001449042008F0C0F8DEE7FFF79DFFEAE761
:106ADC000C4B1B6813F4804FE8D00B4B1B68032B3B
:106AEC00E4DD0A4BD3F804350B4A009240F237121E
:106AFC000849042008F0A8F8D8E700BF802E002031
:106B0C00842E0020142E0020102E00200010014096
:106B1C0028300400632D04005C30040008B5094BD8
:106B2C001B7823B9084B5A781B789A4200D308BDBE
:106B3C00013B054A1370FFF767FF024B01221A70E5
:106B4C00F5E700BF802E0020842E002008B500F051
:106B5C000DFC024B18680BF012F808BD2C32040027
:106B6C0000B583B00F4B1B6813F4804F03D00E4B52
:106B7C001B68032B09DC0322C8210F2002F074F8D8
:106B8C000BF09AFF03B05DF804FB084BD3F8043507
:106B9C00074A00924FF4B2720649042008F054F8E8
:106BAC00E9E700BF142E0020102E00200010014039
:106BBC008C300400632D040010B582B0441C214BB2
:106BCC001B6813F4804F03D01F4B1B68032B1ADC7C
:106BDC00022C29D0042C2AD0012C21D0194B1B6853
:106BEC0013F4804F1ED0184B1B68032B1ADD174B68
:106BFC00D3F80435164A00924FF4CB721549042091
:106C0C0008F022F80EE0114BD3F804350194124A27
:106C1C0000924FF4BC720F49042008F015F8D7E726
:106C2C00FFF71EFF02B010BDFFF778FFFAE70BF07D
:106C3C00F0FE10B9FFF794FFF4E7FFF787FF0BF0B6
:106C4C00DCFEF7E7142E0020102E0020001001406F
:106C5C0034320400632D0400A830040000B583B066
:106C6C003138032814D90D4B1B6813F4804F11D005
:106C7C000B4B1B68032B0DDD0A4BD3F804350A4A6A
:106C8C0000924FF4D2720949042007F0DDFF01E0B5
:106C9C00FFF792FF03B05DF804FB00BF142E002039
:106CAC00102E00200010014034320400632D04002B
:106CBC0000B583B0064B1868019006490AF02EFF08
:106CCC0010B903B05DF804FB784602F07FF9F8E7E1
:106CDC0010320400842E002000B583B0154B1B68C5
:106CEC0013F4804F03D0144B1B68032B14DC0021CE
:106CFC00122001F04DFF0121112001F049FF0F4A34
:106D0C00537801335370FFF7D3FF00F055FB00F0BD
:106D1C00FBFA03B05DF804FB094BD3F80435074AC2
:106D2C0052780192074A0092B2220749042007F0D8
:106D3C008BFFDCE7142E0020102E0020842E002068
:106D4C0000100140BC300400632D040000B583B07A
:106D5C00104B1B6813F4804F03D00F4B1B68032B95
:106D6C000CDC0021112001F013FF0121122001F095
:106D7C000FFFFFF79DFF03B05DF804FB074BD3F843
:106D8C000435074A0092C8220649042007F05CFF2C
:106D9C00E7E700BF142E0020102E00200010014049
:106DAC00E4300400632D040008B5FFF781FF08BD33
:106DBC0010B582B004460F4B1B6813F4804F03D000
:106DCC000D4B1B68032B04DC2378232B0ED002B055
:106DDC0010BD0A4BD3F8043502780192084A009290
:106DEC00F1220849042007F02FFFEDE7002005F001
:106DFC005BFDECE7142E0020102E0020001001404B
:106E0C0000310400632D040000B583B064212148D7
:106E1C0001F03EFE204B1B6813F4804F03D01F4B38
:106E2C001B68032B17DC0BF0E4FD00BB1A4B1B6833
:106E3C0013F4804F03D0194B1B68032B1DDC00216E
:106E4C000F2001F0FBFE0222C8210F2001F00CFFE5
:106E5C0003B05DF804FB124BD3F80435114A0092D1
:106E6C0040F20F221049042007F0EEFEDBE70F4A38
:106E7C0040F2112115F054F8D8E7094BD3F804353A
:106E8C000B4A009240F217220749042007F0DCFE5F
:106E9C00D5E700BF696C0200142E0020102E0020D4
:106EAC00001001401C310400632D04002C2D040043
:106EBC003432040008B5124B998818890DF078FE0D
:106ECC0058B90F4B998818890DF020FF58B90C4B05
:106EDC0018881AF045FB60B908BD0A4A40F25B11EC
:106EEC0015F01EF8EDE7074A4FF4AE7115F018F8DF
:106EFC00EDE7044A40F25F1115F012F8ECE700BF21
:106F0C00682E00202C2D040030B593B024220021D3
:106F1C0008A81BF027FC01238DF8203007238DF8DF
:106F2C00233006238DF82830444B0C93444B10939C
:106F3C00444805F04DFC0DF1470108A80BF06EFD1F
:106F4C00044660B30B2829D13F4B1B6813F4804FC8
:106F5C0003D03E4B1B68032B14DC3B4B1B6813F418
:106F6C00804F1CD0394B1B68032B18DD384BD3F8E2
:106F7C000435384A009240F2C7123749042007F012
:106F8C0063FE0CE0324BD3F80435344A00924FF4D4
:106F9C00E3723149042007F057FEDEE710B93CB12B
:106FAC0013B030BD2E4A4FF4E67114F0B9FFF6E77A
:106FBC0002AC2C4D0FCD0FC495E8030084E8030000
:106FCC0002A800F075FD9DF84730FBB91E4B1B68FD
:106FDC0013F4804F03D01D4B1B68032B0ADC00F00D
:106FEC0091FDFFF767FFFFF7DFFE1F491F4801F018
:106FFC0093FCD5E7164BD3F804351D4A00924FF499
:10700C00F0721549042007F01FFEE8E70E4B1B68D1
:10701C0013F4804F03D00D4B1B68032B02DC00F0E4
:10702C00D3FCE2E70A4BD3F80435124A00924FF432
:10703C00F4720949042007F007FEF0E7BD6D020069
:10704C001D680200F02D0020142E0020102E0020B0
:10705C000010014058310400632D04002831040055
:10706C002C2D04001432040005690200E56C0200AA
:10707C0094310400CC31040000B583B01C4A0421C7
:10708C004FF4C04007F0C4FD1A4B1B6813F4804F3B
:10709C0003D0194B1B68032B11DC1BF07FF9D0B903
:1070AC0001F016FE154801F047FED0B901F084FE40
:1070BC00FFF72AFF01F066FC03B05DF804FB104BF0
:1070CC00D3F804350F4A009240F2F3120E49042013
:1070DC0007F0BAFDE1E70D4A40F2F51114F020FF7C
:1070EC00DEE70A4A40F2F91114F01AFFDEE700BF9E
:1070FC00F1EB0200142E0020102E0020C56B0200B4
:10710C0000100140E0310400632D04002C2D04001C
:10711C0008B5FFF7B1FFFFF777FEFFF739F9FCE78A
:10712C00184B1B781BB1174B01221A70704700B516
:10713C0087B0154A03AB07CA03C323F8022B120C02
:10714C001A70124B009303AB114A1249124815F0F6
:10715C0059FA68B9114816F0A3FF01460E4815F00C
:10716C007DFA50B9074B01221A7007B05DF804FB89
:10717C000B4A962114F0D4FEECE7094A972114F03F
:10718C00CFFEEFE74032002088380400397402004B
:10719C00082F002044320020F0300020282F00203F
:1071AC006833040038B52F4B5C68E56829462E48D7
:1071BC001BF03EFA30B9A37903F201300133A3710D
:1071CC00608038BD294629481BF032FA28B963790A
:1071DC0003F2012001336371F2E7294624481BF0C6
:1071EC0027FA28B9E37903F201400133E371E7E7A9
:1071FC00294620481BF01CFA38B9237A03EB4300CC
:10720C0000F2015001332372DAE729461A481BF0C9
:10721C000FFA38B9637A03EB430000F201600133D3
:10722C006372CDE7294615481BF002FA38B9A37AE8
:10723C0003EB430000F201700133A372C0E729464F
:10724C000F481BF0F5F928B9E37A03F60100013376
:10725C00E372B5E7237903F1400080000133237119
:10726C00AEE700BF28320020B4330400D43304004E
:10727C00F03304002034040048340400703404005B
:10728C009C34040030B58BB0044600230393049364
:10729C0005930693079308938DF82430154D2B898D
:1072AC00ADF81C30FFF77EFFADF822006B680DF1D6
:1072BC000C0C186959699A69DB69ACE80F000E4926
:1072CC000E4815F0E1F958B90123009303AB094AB4
:1072DC00927A21460A4815F0DBF930B90BB030BD73
:1072EC00084A8C2114F01CFEEEE7064A8D2114F09E
:1072FC0017FEF3E728320020082F0020443200202C
:10730C00F03000206833040000B583B0104B1B68CC
:10731C0013F4804F03D00F4B1B68032B06DC0E4875
:10732C0015F065FA70B903B05DF804FB0B4BD3F89C
:10733C0004350B4A00924FF4A3720A49042007F05B
:10734C0083FCECE7084A40F2471114F0E9FDEAE748
:10735C00142E0020102E0020397402000010014061
:10736C00BC3404009F3304006833040000B583B0C0
:10737C000C4B1B6813F4804F03D00B4B1B68032B77
:10738C0004DC15F03CFA03B05DF804FB074BD3F8B2
:10739C000435074A00924FF4A6720649042007F000
:1073AC0053FCEEE7142E0020102E0020001001409C
:1073BC00E03404009F33040000B583B0134B5B68CA
:1073CC005B78282B0AD0124B02221A70114B012227
:1073DC001A70FFF7A5FE03B05DF804FBFFF7C6FFBC
:1073EC000D4B1B6813F4804FF5D00C4B1B68032B13
:1073FC00F1DD0B4BD3F804350A4A00924FF49D7221
:10740C000949042007F020FCE5E700BF28320020E2
:10741C008432002024320020142E0020102E002054
:10742C00001001400C3504009F33040070B5C8B047
:10743C00044603780A2B10D8DFE813F00B00840203
:10744C00BE000F000F000F000F005B020F00F901D0
:10745C0077019C4B1B78012B01D048B070BD9A4B27
:10746C001B6813F4804F03D0984B1B68032B5CDC18
:10747C00E269137843B9944B1B6813F4804F03D023
:10748C00924B1B68032B52DC637D002BE5D08E4B9B
:10749C001B6813F4804F03D08C4B1B68032B7BDCD5
:1074AC008B4D6E6804F1160001F04CFAF0606B68BD
:1074BC00DB68002BD1D0FFF759FF834B1B6813F40B
:1074CC00804F03D0814B1B68032B67DC7D4B032261
:1074DC001A70201DFFF7D6FEBFE7E21812797D491E
:1074EC000D681009590015F800C007A800F813C062
:1074FC0002F00F020131AA5C425401330F2BECD97C
:10750C0007AA00238DF83C3003F1804303F5883340
:10751C00D3F804350292704A0192704A0092A82264
:10752C006F49042007F090FBA2E70023E6E76D4BC0
:10753C00D3F8043592F90D2001926B4A0092AB22DC
:10754C006749042007F080FB9EE7E218927D6149B1
:10755C000D68100959002E5C07A800F8136002F0A2
:10756C000F020131AA5C42540133032BEDD907AA57
:10757C0000238DF8243003F1804303F58833D3F8CE
:10758C0004350292594A0192544A0092B12254494C
:10759C00042007F059FB83E70023E6E7514BD3F8AF
:1075AC0004356A68D2680192514A0092B7224C495C
:1075BC00042007F049FB89E7434B1B6813F4804F09
:1075CC0003D0424B1B68032B28DC3E4B1B78032B50
:1075DC0035D0022B7FF441AF3D4C626813780133F8
:1075EC001370E368984723699847374B1B6813F46B
:1075FC00804F04D0354B1B68032B00F38380344B36
:10760C005A685088D3680193002400942346203292
:10761C00022101F0DFF82B4B1C701EE7314BD3F825
:10762C000435344A12780292264A12780192324A70
:10763C000092C0222A49042007F006FBC5E72D4B17
:10764C001B78EBB1204B1B6813F4804F03D01F4BFE
:10765C001B68032B09DC1B4B01221A70254A13787B
:10766C00013B1370FFF750FEF7E61E4BD3F80435C1
:10767C00224A0092C5221A49042007F0E5FAEAE7EB
:10768C00114B1B6813F4804F03D0104B1B68002B5D
:10769C0006DC0C4B00221A700D4B5B699847DCE63C
:1076AC00104BD3F80435227A09494968498802916C
:1076BC000192134A0092CC220949012007F0C4FA26
:1076CC00E7E700BF24320020142E0020102E0020EB
:1076DC0028320020182E002068350400FC2D0400F0
:1076EC009F33040000100140703504007C35040009
:1076FC008835040084320020B4350400FC350400C5
:10770C00203604009B4BD3F80435626851889A48A4
:10771C00008803900291D2680192984A0092D82274
:10772C009749042007F090FA69E7964B1B6813F40D
:10773C00804F03D0944B1B68032B4EDC934B0222DF
:10774C001A70904B1B6813F4804F03D08E4B1B6840
:10775C00032B4DDCE3688E49D88A0FF007FC002818
:10776C0051D1E0688B4B19688B4BA2684988C08A51
:10777C0010F06AF900284BD1874B188816F074FF6B
:10778C0000284AD1824B1988834B188816F022FFA7
:10779C00002847D17B4B1B6813F4804F3FF45DAE40
:1077AC00794B1B68032B7FF758AE724BD3F804351B
:1077BC00E268D28A7749096849887748008804903A
:1077CC0003917349098802910192744A0092FB2239
:1077DC006B49042007F038FA3FE6664BD3F80435C2
:1077EC006F4A0092E9226649042007F02DFAA5E7BA
:1077FC00604BD3F804356B4A0092EE2260490420AA
:10780C0007F022FAA6E7684AEF2114F089FBA8E7F3
:10781C00654AF12114F084FBAEE7634AF72114F0BA
:10782C007FFBAFE7604AF82114F07AFBB2E7027AEB
:10783C00514B1A80102300220121406814F057FF8D
:10784C0000283FF40AAE4F4B1B6813F4804F03D053
:10785C004D4B1B68002B13DC544B1B784BB3494B23
:10786C001B6813F4804F03D0474B1B68032B14DCAD
:10787C00464B01221A704D4A1378013B1370ECE50C
:10788C003C4BD3F804350190494A009240F20F1258
:10789C003B49012007F0D8F9DEE7364BD3F8043525
:1078AC00444A00924FF489723549042007F0CCF910
:1078BC00DEE7344B1B6813F4804F03D0324B1B684C
:1078CC00032B06DC314B00221A70324B5B69984754
:1078DC00C3E5284BD3F804352E4A526852880192DE
:1078EC00354A00924FF48C722549042007F0ACF90C
:1078FC00E8E70DF11C0C314B0FCB8CE80F0010227C
:10790C006146606814F0FCFEB0B91E4B1B6813F4A2
:10791C00804F3FF4A2AD1C4B1B68032B7FF79DAD32
:10792C00144BD3F80435264A009240F2271214491E
:10793C00042007F089F990E51B4A4FF4937114F079
:10794C00EFFAE2E70F4B1B6813F4804F3FF485AD61
:10795C000D4B1B68032B7FF780AD064BD3F804351A
:10796C00184A00924FF496720549042007F06CF9FE
:10797C0073E500BF0010014086320020643604001D
:10798C009F330400142E0020102E002024320020DF
:10799C00022F002028320020042F0020EC36040097
:1079AC00A0360400C436040068330400843200207E
:1079BC0030370400603704007037040020380400AE
:1079CC00D83704000038040030B589B00123069381
:1079DC0006A90DF1160010F029F860BB069B012BCF
:1079EC002FD12C4C2568BDF816000FF0A7FC688031
:1079FC0023685A884FF6FF739A4226D0254B1B6892
:107A0C0006AA191D588810F063FA10BB07A80FF0CE
:107A1C009FFA204B1968BDF81C0010F0A1F8F0B9C2
:107A2C001D4B1B6813F4804F03D01C4B1B68032B9E
:107A3C001BDC09B030BD1A4A4FF4AC7114F070FA6B
:107A4C00CCE7784601F0C2FACBE7784601F0BEFAF3
:107A5C00D4E7134A4FF4AE7114F062FAD6E7104A29
:107A6C004FF4B07114F05CFADAE70E4BD3F804352E
:107A7C00084A1268518890881288039202900191EA
:107A8C00094A00924FF4B1720849042007F0DCF85F
:107A9C00CFE700BF28320020142E0020102E00202B
:107AAC006833040000100140343804009F33040094
:107ABC0038B50446C36893B16369A3B12369B3B104
:107ACC000D4DA446BCE80F000FC59CE8030085E8EB
:107ADC0003000023094A1370094A137038BD784615
:107AEC0001F074FAE8E7784601F070FAE6E77846B8
:107AFC0001F06CFAE4E700BF28320020403200208D
:107B0C002432002010B584B0324BDB68039303A8F9
:107B1C000FF0EAF9002835D12F4C60681021084489
:107B2C0005F090FA60681021203005F08BFA60683F
:107B3C001021303005F086FA61682268023210316B
:107B4C0000200FF0EFFC18BB244B1B6813F4804F84
:107B5C0003D0234B1B68032B20DC1F4B19685A687E
:107B6C000B1D20324988002010F016F830BB1A4A41
:107B7C00136852683032598801200FF065FF18BB2A
:107B8C0004B010BD174A4FF4BB7114F0C9F9C3E728
:107B9C00144A4FF4BF7114F0C3F9D5E7124BD3F864
:107BAC0004350D4A126852880192104A009240F234
:107BBC007F120F49042007F047F8CEE7094A4FF42B
:107BCC00C07114F0ADF9D2E7064A40F2831114F0FB
:107BDC00A7F9D5E78838040028320020142E00209D
:107BEC00102E00206833040000100140743804008B
:107BFC009F33040082B04FF6FF73ADF800300D4B8D
:107C0C001B685B88ADF80230009B019300209DF847
:107C1C00043063F307009DF8053063F30F209DF8E3
:107C2C00063063F317409DF8073063F31F6002B012
:107C3C00704700BFFC2D002010F0010F02D04CF259
:107C4C00050070474CF20400704710F0010F02D091
:107C5C004CF2030070474CF20200704741F20323D0
:107C6C00984264D015D941F2103398426BD8B0F5D4
:107C7C00985F3AD3A0F59850102821D8DFE800F08F
:107C8C005B431E4F51555320202020202020204B99
:107C9C004D0041F20703984218D8B0F5805F09D324
:107CAC00A0F5805007280FD8DFE800F00C47292BEF
:107CBC00330E2F3102283CD1264870472648704796
:107CCC0026487047264870472448704741F20113F4
:107CDC00984234D041F20213984201D121487047A6
:107CEC00B0F5885F2DD12048704741F204239842AB
:107CFC002BD041F20523984229D11C4870471C48CF
:107D0C0070471C4870471C4870471C4870471C48FB
:107D1C0070471C4870471C4870471C4870471C48EB
:107D2C0070471C4870471C4870471C4870471C48DB
:107D3C0070470A4870471B4870471B4870471B48E0
:107D4C007047064870470548704719487047034804
:107D5C00704700BF9838040008390400B03A04009A
:107D6C00A83804006C3A0400483A04007C3A040039
:107D7C00D8380400F03804003839040058390400AD
:107D8C007439040098390400C0390400D039040057
:107D9C00E8390400FC390400143A0400343A0400B5
:107DAC008C3A040020390400C0380400583A04000E
:107DBC009C3A040070B5054614460E4601B122B13A
:107DCC00044B5D801E705C6070BD784601F0FEF85F
:107DDC00F6E700BF9032002010B584B0424B5A88B1
:107DEC0082420ED148F21F03984240D035D848F257
:107DFC00030398423DD048F2190398421AD10C78EB
:107E0C0046E03A4B1B6813F4804F03D0384B1B6889
:107E1C00002B02DC022004B010BD364BD3F8043525
:107E2C0002900192344A0092F3223449012006F068
:107E3C000BFFEFE702282AD02C4B1B6813F4804F62
:107E4C0003D02B4B1B68002B15DC2D4A4FF489718A
:107E5C00052014F065F8FF241AE048F22503984237
:107E6C0025D048F23E039842E6D10C7810E00C780D
:107E7C000EE00C780CE01F4BD3F80435214A00922D
:107E8C0040F211121D49012006F0DEFEDDE7FF2451
:107E9C00154B18780028BED0144B1B6813F4804F78
:107EAC0003D0134B1B68032B03DC00230FE0FF24D0
:107EBC00EEE7104BD3F804350194134A00924FF4BB
:107ECC008D720E49042006F0BFFEEEE70133064A20
:107EDC0012789A4206D9044A5268D25CA242F5D171
:107EEC00002098E7012096E790320020142E002005
:107EFC00102E002000100140043B0400F73A04004F
:107F0C00C03A0400303B0400503B040030B583B051
:107F1C000446094A012148F23E00FFF74BFF074B8C
:107F2C001D88FFF767FE024601902946204616F091
:107F3C0093FC03B030BD00BF403F040088320020EA
:107F4C0070B5044615461E460180104604F0BEFA74
:107F5C002071E580104B1B88A3810023A37328227A
:107F6C00E273267401256574A374FFF743FEE07475
:107F7C00C0F307232375C0F307436375C0F3076091
:107F8C00A075064A294648F21900FFF713FF204650
:107F9C0016F0E8FB70BD00BF883200203C3F0400A7
:107FAC0030B585B00446084601AD00230193029319
:107FBC00ADF8061004F08AFA8DF80400084A012185
:107FCC0048F21F00FFF7F6FEFFF714FE034603907E
:107FDC0095E80600204616F0DFFB05B030BD00BF6B
:107FEC00383F040010B50A4B1B7863B1084C23785A
:107FFC00013B04F8043B04F0EBFE06490144204627
:10800C0004F0B2FE10BD784600F0E0FFEEE700BFD2
:10801C00A8320020404B4C0008B5034804F08CFEFD
:10802C00024B034A1A6008BDAC320020FC2D002024
:10803C000441040008B5FFF7EFFF024B1B6898479B
:10804C0008BD00BF9C320020F0B58BB0994B1A686C
:10805C001378282B00F2B38059B2002900F06F82FC
:10806C00013B272B00F26B82DFE813F0AA013601EB
:10807C0060018501B401B401B401B401B401B401CF
:10808C00B401B401B401B401B401B401B401B4013C
:10809C00B401B401B401B401B401B401B401B4012C
:1080AC00B401D701C200390007023902C2003900FD
:1080BC0007023902C200390007023902343BDBB235
:1080CC00012202FA03F313F0AA0F40F0D68113F049
:1080DC00550F40F08D8013F4807F00F03082002328
:1080EC00049305930693079308930993724B1C888A
:1080FC002046FFF7AAFD02464FF00003214604A8D4
:10810C00FFF71EFF04466D4B1B6813F4804F00F005
:10811C00F5806B4B1B68032B40F3F080694BD3F855
:10812C000475654B1E883046FFF78FFD0546614B85
:10813C001B685888FFF792FD039602900195624BDD
:10814C0000933B464FF410726049042006F07CFD0E
:10815C00D4E013F4806F00F0F281574B1C885C4B19
:10816C001888FFF769FD01462046FFF719FF044602
:10817C00524B1B6813F4804F00F0C080504B1B68AF
:10818C00032B40F3BB804F4BD3F80465504B18883E
:10819C00FFF752FD0546474B1B685888FFF75EFDFD
:1081AC00454B1B880393029001954A4B0093334631
:1081BC0040F265224549042006F046FD9EE03C2B2A
:1081CC0050D8342BBFF47AAF332B00F2B881292B63
:1081DC00C0F0B581293BDBB2012202FA03F340F275
:1081EC00AA22134240F0498140F255121342B0D0FA
:1081FC0000230493059306930793089309932E4B3E
:10820C001C88334B1888FFF717FD02464FF000030C
:10821C00214604A8FFF794FE0446284B1B6813F470
:10822C00804F6BD0264B1B68032B67DD254BD3F897
:10823C000465274B1888FFF7FFFC05461D4B1B6890
:10824C005888FFF70BFD1C4B1B880393029001957C
:10825C001D4B0093334640F225221C49042006F0A6
:10826C00F3FC4BE0492B00F26A813D2BC0F0678197
:10827C003D3B0C2B00F2638101A252F823F000BFAE
:10828C00EB840200FD81020087840200FD81020064
:10829C0087840200EB800200EB840200EB8002007A
:1082AC00EB840200FD81020087840200FD81020044
:1082BC0087840200FC2D00208A320020142E00201E
:1082CC00102E002000100140243C0400F73A04005A
:1082DC008C3200206C3C04009E4B1B6813F4804FC6
:1082EC0003D09D4B1B68032B14DC002016F0D2F935
:1082FC000446002211460220FFF75CFD44B116F043
:10830C00B5FA964B1B78002B00F02081FFF76AFE24
:10831C000BB0F0BD924BD3F80435924A00924FF457
:10832C00D7729149042006F08FFCDEE7894B1B685D
:10833C0013F4804F03D0884B1B68032B0BDC0121FB
:10834C00022016F053FA04460022114648F225008A
:10835C00FFF730FDD2E7824BD3F8043501220292AD
:10836C0002220192814A009240F2B7127E49042007
:10837C0006F06AFCE3E7774B1B6813F4804F03D0DD
:10838C00754B1B68032B0FDC794B1A68794B1988DA
:10839C00794B188816F0A2F90446784A022148F263
:1083AC000300FFF707FDA9E76D4BD3F80435744ABA
:1083BC0000924FF4E1726C49042006F045FCE3E7AF
:1083CC0070490B8801330B8004326F4B1A60FFF736
:1083DC003BFE9DE75F4B1B6813F4804F03D05E4B55
:1083EC001B68032B05DC674B1888FFF78FFD0446D1
:1083FC0084E75B4BD3F804455088FFF72FFC614BA7
:10840C001B8802930190614B009323464FF4F67244
:10841C005549042006F018FCE5E700230493059366
:10842C000693079308930993594B1B7801225549DE
:10843C00098804A8FFF784FD0446464B1B6813F417
:10844C00804F3FF45BAF444B1B68032B7FF756AF59
:10845C00434BD3F804554C4B1B685888FFF7FEFB75
:10846C000123029301904B4B00932B4640F2FF12D9
:10847C003D49042006F0E8FB40E7424B1C88464B84
:10848C001888FFF7E2FB01462046FFF789FD0446FA
:10849C00304B1B6813F4804F3FF430AF2E4B1B68EE
:1084AC00032B7FF72BAF2E4BD3F804653A4B188870
:1084BC00FFF7CBFB0546344B1B685888FFF7CEFB08
:1084CC00304B1B88039302900195344B0093334639
:1084DC0040F25A222449042006F0B6FB0EE7294B41
:1084EC001C882046FFF7A8FB01462046FFF758FDE5
:1084FC000446184B1B6813F4804F3FF4FFAE164B29
:10850C001B68032B7FF7FAAE154BD3F804751D4B84
:10851C001E883046FFF790FB05461B4B1B6858889E
:10852C00FFF79CFB0396029001951C4B00933B4676
:10853C0040F275220C49042006F086FBDEE6184A50
:10854C0040F27D21052013F0EBFCD8E6FFF772FD1D
:10855C00DEE600BF142E0020102E0020A8320020D2
:10856C00001001406C3B0400F73A0400883B040007
:10857C00C43200208832002098320020443F04008E
:10858C00B83B04008A320020FC2D0020C83B0400BC
:10859C00343F0400F43B04008C3200206C3C04009B
:1085AC00C03A040008B5FFF74FFD08BD08B5FFF74A
:1085BC0033FD024B1B68984708BD00BFA03200205A
:1085CC0000B583B01C4B1B681A789AB14A2A11D09B
:1085DC0041680088FFF700FC28BB174A1368191D77
:1085EC001160164A032111701B794A2B18D0FFF722
:1085FC002BFD1AE0124B1B6813F4804F15D0114B56
:10860C001B68012B11DD104BD3F8043501920F4A76
:10861C00009240F2AB220E49022006F015FB04E05A
:10862C00FFF7C4FF01E0012802D003B05DF804FBA2
:10863C00FFF700FDF9E700BFFC2D0020A832002059
:10864C00142E0020102E002000100140B43C040019
:10865C00F73A040000B589B04FF6FF73ADF81E3041
:10866C00ADF81C3001238DF81430ADF816000DF167
:10867C001E0105A80EF02EFEE8B907A9BDF81600DC
:10868C000FF06EFAE8B9BDF81C0015F0EDFFF0B96B
:10869C00BDF81E10BDF81C0015F09CFFE8B91B4B73
:1086AC001B6813F4804F03D0194B1B68032B1ADC87
:1086BC0009B05DF804FB174A40F29D2113F030FC21
:1086CC00DBE7144A40F29E2113F02AFCDBE7114A47
:1086DC0040F2A12113F024FCDAE70E4A40F2A22169
:1086EC0013F01EFCDBE70C4BD3F80435BDF81E2051
:1086FC000292BDF81C200192084A009240F2A3227B
:10870C000749042006F0A0FAD2E700BF142E00207F
:10871C00102E0020C03A040000100140E83C040078
:10872C00F73A040030B583B0002837D1224B1B68D0
:10873C0013F4804F03D0214B1B68032B13DC204B0D
:10874C001B8843B31C4B1B6813F4804F03D01B4B8B
:10875C001B68032B13DC1A4A1388013B1380FFF7A9
:10876C0073FC03B030BD174BD3F80435164A009296
:10877C0040F2D3221549042006F066FADFE7114BCC
:10878C00D3F80435124A009240F2D7220F49042044
:10879C0006F05AFADFE7FFF74DFCE2E70C46154608
:1087AC000228DED121B129462046FFF709FFD8E780
:1087BC00784600F00BFCF6E7142E0020102E00205B
:1087CC00A432002000100140203D0400F73A0400C0
:1087DC004C3D040030B583B0079D3E4C2468247892
:1087EC00B4B93D4C20803D4C20803D4801803D4932
:1087FC003D48C860032008703C490A603C4A13801D
:10880C00BDF818203B4B1A800024324B1C6015E03D
:10881C00394B1B6813F4804F32D0384B1B68002B3C
:10882C002EDD374BD3F80435364A009240F2EF2256
:10883C003549012006F008FA22E001340E2C0DD83F
:10884C00324B53F83410284619F0F2FE0028F4D1BC
:10885C002E4B03EBC4035A681E4B1A601D4B1B684E
:10886C0083B1254B1B6813F4804F03D0234B1B683B
:10887C00032B20DC184B1888FFF7ECFEFFF7E4FB0A
:10888C0003B030BD1C4B1B6813F4804F03D01B4B43
:10889C001B68002B03DC784600F098FBE1E7184BD3
:1088AC00D3F804351A4A009240F2073216490120D7
:1088BC0006F0CAF9EFE7124BD3F80435064A1288D2
:1088CC000192144A009240F20B320F49042006F038
:1088DC00BBF9CFE7FC2D00208C3200208A3200201F
:1088EC00A4320020A8320020B1850200C43200203E
:1088FC008832002098320020142E0020102E0020E8
:10890C0000100140583D0400F73A0400784304007D
:10891C008C3D0400B83D040038B50C46054628B122
:10892C0044B1064B1D60064B1C6038BD784600F008
:10893C004DFBF5E7784600F049FBF2E7A03200204A
:10894C009C32002070B584B0064600240E2C12D840
:10895C000B4B53F83450284619F09EFE6A4681B2F0
:10896C00284605F029FA04226946304619F02AFFF8
:10897C0010B10134EAE70025284604B070BD00BFF1
:10898C0078430400F0B599B0002401E00134E4B25E
:10899C000E2C27D82F4B53F83450284619F07CFE58
:1089AC0014AA81B2284605F007FA149A18AB03EB07
:1089BC00840343F84C2C284B1B6813F4804FE5D0F0
:1089CC00264B1B68062BE1DD254BD3F804350292B0
:1089DC000195244A009240F235322349072006F0D3
:1089EC0033F9D3E700252DE00134E4B20E2C28D85E
:1089FC0018AB03EB850353F84C2C18AB03EB840337
:108A0C0053F84C3C9A42EFD1134B1B6813F4804F34
:108A1C00EAD0124B1B68002BE6DD114BD3F8043562
:108A2C000C4F57F8350057F834100392029101900F
:108A3C000E4A009240F23F320B49012006F004F935
:108A4C00D2E735460D2D03D86E1CF6B23446CDE771
:108A5C0019B0F0BD78430400142E0020102E002015
:108A6C0000100140D43D0400F73A0400F83D040026
:108A7C0008B5064B1B681BB906E0044B1B689847EE
:108A8C0011F030FA0028F8DA08BD00BFC832002017
:108A9C0010B50C46134B1860134A0121134819F0FA
:108AAC00B7FC98B9610CE00341F27073984271F114
:108ABC00000310D34FF47A72002319F021FD014604
:108ACC0000220B4819F0BAFC38B910BD094A4A21EA
:108ADC0013F026FAE6E70521F2E7064A4B2113F0DC
:108AEC001FFAF2E7C83200207D8A0200D04404004D
:108AFC00CC3200209044040070B50546002403E0FD
:108B0C000D4A93420ED80134032C14D80B4B1B5D29
:108B1C00AB42F8D10A4B1E6804F05AF9331AEFD560
:108B2C00831BEDE704F054F9054B1860054B1B68EB
:108B3C0020469847E7E770BD801A0600DC44040025
:108B4C0018330020143300204FF0A043D3F8043521
:108B5C00C34013F0010F0CBF012000207047000030
:108B6C0070B505460024264600E00134032C0AD8D3
:108B7C000123A3402B42F8D0044B185DFFF7E4FF10
:108B8C00A0400643F1E7304670BD00BFE04404004E
:108B9C0008B511B112F00DFD08BD12F003FDFBE795
:108BAC0070B50546002400E00134032C0FD80123D6
:108BBC00A3402B42F8D0064B1E5D3046FFF7C4FF96
:108BCC0080F00101C9B23046FFF7E2FFECE770BD5F
:108BDC00E044040010B5144B1B684BB1134B1868E0
:108BEC00FFF7DEFF104B1C68013C1C6024B110BD6C
:108BFC00002013F087F9F1E70D4819F041FC00E073
:108C0C000134032CF3D80123A340084A1268134201
:108C1C00F6D0084B1968E14001F00101064B185DD4
:108C2C00FFF7B6FFECE700BFEC320020F03200207B
:108C3C00F43200201C330020E044040070B50546DB
:108C4C000E46002400E00134032C09D80123A34074
:108C5C002B42F8D03146034B185DFFF799FFF2E732
:108C6C0070BD00BFE044040042B310B50C4613467F
:108C7C00132900D810BD124A10605B00013B114A49
:108C8C001360FFF76DFF104B1860610CE40314F5D3
:108C9C00FA704FF47A724FF0000341F1000119F0B1
:108CAC002FFC01460022094819F0C8FB0028E1D12D
:108CBC000121034B1868FFF7C1FFDBE7704700BFCA
:108CCC00F0320020EC3200201C330020F432002063
:108CDC0010B582B012F0F8FB40B10024ADF804409E
:108CEC008DF8064001238DF8053007E012F0A4FB47
:108CFC000028F2D013F006F9EFE70134032C09D861
:108D0C0001A90A4B185D12F0E9FB0028F5D013F00D
:108D1C00F9F8F2E7064A0121064819F079FB08B97F
:108D2C0002B010BD13F0EEF8FAE700BFE044040007
:108D3C00E18B0200D844040060B310B582B0164A2F
:108D4C00106012F0C1FB40B1144B1B68ADF804303D
:108D5C001B0C8DF8063000240CE012F06DFB002883
:108D6C00F2D013F0CFF8EFE701210D4B185D12F0A4
:108D7C0091FC0134032C0AD80A4A01A9084B185D4E
:108D8C0012F01EFC0028EFD013F0BCF8ECE700202A
:108D9C0002B010BD0E20704714330020D4440400E0
:108DAC00DC440400058B020060DF704769DF70470C
:108DBC0008B503F015FD08BD10B588B012F030FEF3
:108DCC0000282CD1224B0793079A06920023039379
:108DDC000493059303A90120FFF7E8FF10BB0023C0
:108DEC00039304930593F8230393069A03A9A120F4
:108DFC00FFF7DCFFC8B906A8FFF7D6FF0446069AB2
:108E0C00079B9A4208D0134B1B6813F4804F03D076
:108E1C00114B1B68012B0BDCB4B908B010BD13F05F
:108E2C0071F8CFE713F06EF8D9E713F06BF8E2E7BF
:108E3C000A4BD3F804350192094A0092AB22094936
:108E4C00022005F001FFE7E7204613F05BF8E4E7AA
:108E5C00F02D0020142E0020102E002000100140B8
:108E6C0030450400164504000620704700B587B055
:108E7C0044F2010398425DD01BD8012836D041F250
:108E8C000103984271D1474B1B6813F4804F36D0C5
:108E9C00454B1B68002B32DD444BD3F80435029252
:108EAC000191434A009263224249012005F0CCFE15
:108EBC0025E044F20203984257D13A4B1B6813F455
:108ECC00804F1CD0384B1B68002B18DD374BD3F868
:108EDC00043510680390526802920191364A009250
:108EEC0069223449012005F0AFFE08E02D4B1B68C8
:108EFC0013F4804F03D02C4B1B68002B0DDC4FF070
:108F0C00A0434FF4F012C3F81825C3F80C25EFF367
:108F1C00108372B64DF6AD6C3DE0244BD3F804359E
:108F2C0002920191254A009260222249012005F00B
:108F3C008BFEE4E71B4B1B6813F4804FDFD01A4BFE
:108F4C001B68002BDBDD194BD3F80435106804903B
:108F5C0050680390029192680192194A0092732210
:108F6C001449012005F070FEC9E70E4B1B6813F481
:108F7C00804FC4D00C4B1B68002BC0DD0B4BD3F8BF
:108F8C00043501910F4A00927B220A49012005F019
:108F9C005BFEB4E730BF0C4B1B78002BFAD107B04B
:108FAC005DF804FB142E0020102E00200010014050
:108FBC00CC4504009E450400F0450400B045040077
:108FCC001046040034460400002E002000B583B087
:108FDC00014600230093054B01936A4644F20200BC
:108FEC00FFF744FF03B05DF804FB00BFE02E040064
:108FFC0010B40346044C006859689A68DB680FC4C7
:10900C005DF8044B704700BF203300200E4B4FF02F
:10901C00805202F1600103C983E8030003F1080CDC
:10902C00A43292E803008CE8030093F9062002F0C6
:10903C000F0242F040029A7193F9082002F03F02AD
:10904C0042F080021A7270472033002000487047AB
:10905C0020330020002308E0074901EBC300002265
:10906C004280426001F8332001331F2BF4D9034BAB
:10907C0000221A60704700BF3033002030340020CB
:10908C0000B58646114B1B684FF0000C0BE01F23FC
:10909C000F4A12F83300B0B102EBC302528872458A
:1090AC0009D00CF1010CBCF11F0F0BD85A1E002B70
:1090BC00EDD01346ECE7064A02EBC30252688A4233
:1090CC00EFD100E000205DF804FB00BF303400203D
:1090DC003033002010B40B4A13680B4C04EBC30C58
:1090EC00ACF80200CCF80410012104F833100B4446
:1090FC001360202B02D05DF8044B704713460022FE
:10910C001A60F8E7303400203033002000210729A2
:10911C0018D830B402E00131072910D84FEA011CED
:10912C00094C34F80CC08445F5D104EB0114A56846
:10913C00E4689C4208BF9542EDD1012000E000207C
:10914C0030BC7047002070473834002030B4C369FD
:10915C008469C288190A1B06C4F30C0C944519D2F5
:10916C00A2EB0C022244A2F500529A1841F1000124
:10917C000A4C23685D1C256003F00703B0F814C08B
:10918C0007481C0100EB031320F804C09A60D96057
:10919C0030BC7047A2EB0C022244E6E7B834002046
:1091AC0038340020C37D9BB1C2780B7803F0800368
:1091BC000B7002F07F0213430B7002780B7803F0F4
:1091CC007F030B7043EAC2130B7003789BB9704793
:1091DC00C2780B7803F0BF030B70920102F04002CF
:1091EC0013430B70027903F0C0030B7002F03F02C3
:1091FC0013430B70E1E78278082A14BF0022012286
:10920C004B7803F07F034B7043EAC2134B70C28858
:10921C00DBB203F080034B70C2F3861C43EA0C03F1
:10922C004B708B7803F003038B7043EA82038B70D3
:10923C00027ADBB203F0FC038B70C2F3C10C43EA7D
:10924C000C038B70CB7803F01F03CB7043EA4213F3
:10925C00CB70427ADBB203F0E003CB7002F01F025A
:10926C001343CB70B3E70000002300E00133032B62
:10927C0028D8C3EBC30C144A02EB0C1292F848200A
:10928C00012AF3D1104A02EB0C12B2F814C0C289B5
:10929C009445EBD1C3EBC30C0B4A02EB0C12D288F6
:1092AC008A42E3D1084A02EB0C12B2F858201AB1E8
:1092BC00B0F814C06245D9D1C3EBC303024800EB2C
:1092CC000310704700207047E4340020002300E0B6
:1092DC000133032B15D8C3EBC3010B4A02EB01126C
:1092EC0092F84820022AF3D1074A02EB0112918A24
:1092FC00828A9142ECD1C3EBC303034800EB031009
:10930C0070470020704700BFE434002008B90420E7
:10931C0070470820704700B503468C460978C17029
:10932C0000214162DCF808100B2904D89CF80C10C1
:10933C0029B3012100E0012119700020987031B18E
:10934C00DCF808100731C90801395972187201216B
:10935C00D97503F10C0E0CF1100103C98EE8030052
:10936C00BCF80E109982DCF8181019629CF81C10CD
:10937C009975DCF82010D9629A625DF804FB002123
:10938C00DAE7000000210E4B1B688B4216D9002334
:10939C0000E001330B4A02EBC10252689A420BD92E
:1093AC00084A52F8312002EBC30C12F833208242E7
:1093BC00EFD1DCF8040070470131E4E7002070477E
:1093CC00BC340020C034002070B58CB006460D466D
:1093DC0014462C22002101A819F0C4F90F238DF892
:1093EC000430ADF808609DF80A3065F300038DF881
:1093FC000A308DF80B4001A801F012FA0CB070BDC8
:10940C0030B58DB005460C462C22002101A819F070
:10941C00A9F910238DF8043002958DF80C4001A8A1
:10942C0001F0FEF90DB030BD00B58DB010B913F1DF
:10943C00020F06D1074B186804F0E4FA0DB05DF882
:10944C0004FB01218DF804100293039201A801F092
:10945C00E7F9EFE7C834002070B5049C002962D00E
:10946C001D468E46D2F800C051689668D368C4F881
:10947C000CC021616661A361D2F810C05169C4F8B7
:10948C001CC02162002363700278D20922705AB387
:10949C000423734549D8E17D41B3037803F07F037E
:1094AC00E3700023A3709AB143789B0103F4FE533D
:1094BC00827843EA9203E3808378DB0003F018039D
:1094CC00C27843EA52132372C37803F01F0363720A
:1094DC00002363622B78032B21D82A78144B53F882
:1094EC002230E362002070BD0123D2E70178C1F382
:1094FC008011E170017801F03F01217142B190F9C6
:10950C000130002B02DB0423A370CCE70823FBE71C
:10951C000421A1700B447345C5D90920E3E77846B3
:10952C00FFF754FDD9E70920DDE70920DBE700BF91
:10953C00D047040070B50C461D4603789BB1042639
:10954C003244A26000F10C032360836A6360C36A37
:10955C00E36000232374204604F0C6FD10B9636950
:10956C0033442B6070BD0126EAE72DE9F0418EB043
:10957C000D4616461C46804600282DD0002D2FD0B7
:10958C00002C31D0636A0233059304F10C00E378AC
:10959C00002B2DD00121A27801AF3B46082A14BF25
:1095AC000022012204F079FB0697CDF81C80B2B2A0
:1095BC00ADF820200B9515440C95A3788DF834301C
:1095CC00237B022B16D00023ADF8283005A804F01D
:1095DC005CFB0EB0BDE8F0817846FFF7F7FCCDE7F9
:1095EC007846FFF7F3FCCBE77846FFF7EFFCC9E7CB
:1095FC000221D0E723692BB1236909931023ADF81D
:10960C002830E3E77846FFF7E1FCF5E72DE9F04178
:10961C0088B004460D46C37D002B3CD0082605FBC4
:10962C0006F8637AAB4238D0257201AB324602A9F8
:10963C002046FFF77FFF074648BB4DB994F85330DF
:10964C0033B9A369C3F30C03E380012384F85330CB
:10965C00E37D7BB994F8523063B91DBBE06EB4F86E
:10966C004A10A27823468A1A0146FFF77EFF01238F
:10967C0084F8523007992046FFF794FDE16E32468C
:10968C004144019819F038F802A804F053FD38460B
:10969C0008B0BDE8F0810C26C1E7B4F84A60A6EB2F
:1096AC000806C1E77846FFF791FCD7E770B5054689
:1096BC000E4609B100230B6095F85040002104E0E0
:1096CC00631C85F850300134E4B26B7AA34210D39A
:1096DC00EA6C0123A3401A42F5D121462846FFF734
:1096EC0095FF014628B9002EEAD033680133336068
:1096FC00E6E7084670BDF0B589B004460E4615463F
:10970C0083789A18C37D63B10B239A4221D801AB9D
:10971C0002A92046FFF70EFF074620B1384609B0D4
:10972C00F0BD0F23F1E707992046FFF73BFDE37DE2
:10973C0043B12A463146019818F0DEFF02A804F026
:10974C00F9FCEBE723462A4601993046FFF70DFF5B
:10975C00F4E70927E2E7000010B5044690F848301A
:10976C00012B0CD103F034FB237B012B0BD0094BC9
:10977C00D968014404F1300003F0F6FA10BD7846C4
:10978C00FFF724FCEEE7A27D024BD9681B6903FBB3
:10979C000211EEE7CC34002030B583B0002403E096
:1097AC002846FFF7D9FF0134032C17D8C4EBC402A9
:1097BC000B4B03EB021393F84830012BF3D100232E
:1097CC000193074D05EB021501A92846FFF76EFF23
:1097DC000428E5D0019B002BE5D0E1E703B030BDB8
:1097EC00E434002038B5044690F84830022B09D1F7
:1097FC00064B1D6803F0ECFA411904F1300003F03C
:10980C00B3FA38BD7846FFF7E1FBF1E7CC34002022
:10981C0038B5044690F84830022B10D10A4B5A7DCB
:10982C005D689B6803FB025503F0D2FA411904F101
:10983C00500003F099FA012384F8683038BD78465B
:10984C00FFF7C4FBEAE700BFCC34002010B5044698
:10985C00808A02F03BFE01281CD1237BE3B194F9F2
:10986C001620002A1ADBE27D4AB1022B18D094F99B
:10987C000330002B16DBA378B3B900200BE0E278A1
:10988C000AB9012B12D1237893B9A378042B11D1E7
:10989C00002000E0102010BD1020FCE70720FAE7A4
:1098AC001020F8E70720F6E70720F4E70720F2E797
:1098BC000020F0E70720EEE738B5044603784BB1FB
:1098CC00C388C2698169808A06F010FD054645B9D6
:1098DC00284638BDC2698169808A06F001FD0546BB
:1098EC00F5E7E169002201F00101A08AFFF76CFDA8
:1098FC00EEE700002DE9F04780460E4617464B1E5A
:10990C00DBB2012B0FD8B7F5C07F10D80024032C85
:10991C001AD8C4EBC402314B03EB021393F8483052
:10992C004BB10134F3E77846FFF750FBEBE7784691
:10993C00FFF74CFBEAE7DFF8A49009EB0215384679
:10994C0009F02FF8E86600E000255DB3EB6E002B04
:10995C0042D043462C4608F1300ED3F800C058686C
:10996C009968DA68C4F800C06060A160E2601033E6
:10997C0010347345F1D10023EB64A5F84A70012E25
:10998C0013D06FF00103AB62002385F86830144BE1
:10999C00AB652D66134BAB632D64012002F048FAC6
:1099AC0085F848602846BDE8F0870F4B1B7D85F88D
:1099BC005130002385F8523085F8533085F85030FB
:1099CC00D8F828206A65A5F858306FF00103AB620F
:1099DC00064BAB632D64E0E71D46E3E7E43400205F
:1099EC003BA402004D9D0200CC340020999D020046
:1099FC0000B585B000228DF80F20A0B10B460246B1
:109A0C0002320A600DF10F01184604F042F99DF87C
:109A1C000F3043B10C4B1B6813F0040F03D00B4BEE
:109A2C001B68032B04DC9DF80F0005B05DF804FBEC
:109A3C00074BD3F80435074A009240F21542064909
:109A4C00042005F001F9EEE7142E0020102E002062
:109A5C0000100140884604007C4604002DE9F043C8
:109A6C0091B005460E4614461F46D0F81880037870
:109A7C004BB1C388C8F30C029A4230D29B1A4344B0
:109A8C00A3F50053AB6105F10C00EB7853B3012146
:109A9C00AA780DF130094B46082A14BF0022012286
:109AAC0004F0FBF8C5F81880CDF810900596AB784B
:109ABC00E21A92B2ADF8182016440A9609978DF85E
:109ACC002C300023ADF82030EB78002B41D02B7BD1
:109ADC00022B09D000236B620193029316E09B1AB0
:109AEC004344CFE70221D3E71023ADF820302B6994
:109AFC000793EFE710AB03EB840454F83C3C6B6228
:109B0C00002011B0BDE8F083019BB3B102AB01AAF8
:109B1C002979286A0EF08CFA0024012CF4D810ABA9
:109B2C0003EB840353F83C0C0028EDD003A9FFF79A
:109B3C005FFF0028DED10134EFE72B7B022B2CD109
:109B4C0005F10C01E8890EF02DFB0028BFD1052092
:109B5C00D7E72B7B012B01D00520D2E7EB89ADF8A1
:109B6C000430AB8AADF806300024012C13D82946FA
:109B7C00002341F8243F10AB03EB440333F83C0CB7
:109B8C000EF07BFA03A9686AFFF732FF08B90134BB
:109B9C00EBE70020B5E70520B3E70520B1E70000AF
:109BAC0070B5F0B00E4614461D4610AB0A46014681
:109BBC002046FFF753FF50B1224B1B6813F0040FE4
:109BCC0003D0214B1B68052B2FDC70B070BD2046D9
:109BDC00FFF772FE0028F8D103AB01228DF80C20A0
:109BEC00A28AADF80E20002204928DF8142010AA3F
:109BFC000692A278B11AADF81C1008AA93E80300DB
:109C0C0082E803000AAB04F10C0292E8030083E83B
:109C1C000300A37D8DF83830236A0C93636A0D938F
:109C2C000F9505A800F0FCFDCFE7084BD3F80435E1
:109C3C00074A009240F203720649062005F004F828
:109C4C00C3E700BF142E0020102E0020001001408E
:109C5C009C4604007C46040010B50446C06E08F017
:109C6C00A4FE04F1300003F067F894F84830022B9E
:109C7C0008D070220021204618F074FD002002F05C
:109C8C00D7F810BD04F1500003F056F8F1E710B509
:109C9C008CB0044690F84830012B0FD101238DF87D
:109CAC000430636D029303F093F8039001A800F065
:109CBC00B7FD2046FFF7D0FF0CB010BD7846FFF77C
:109CCC0085F9EBE730B585B00D460446A8B194F89C
:109CDC004830022B15D02946606DFFF791FB2046CA
:109CEC00FFF7BAFF114B1B6813F0040F03D0104B96
:109CFC001B68032B09DC05B030BD7846FFF766F90D
:109D0C00E5E72046FFF722FAE5E70A4BD3F80435DE
:109D1C0094F8482002950192074A009240F2F312FF
:109D2C000649042004F090FFE5E700BF142E002044
:109D3C00102E002000100140C84604007C46040090
:109D4C0008B508460021FFF7BDFF08BD08B5037B29
:109D5C00012B02D0FFF79BFF08BD0121FFF7B2FFDB
:109D6C00FAE7000008B590F8513053B1013B80F888
:109D7C005130002380F85030034B186803F042FE3A
:109D8C0008BDFFF7E3FFFBE7C834002010B50C4615
:109D9C0091F84830012B03D12046FFF7E3FF10BDAB
:109DAC007846FFF713F9F7E770B5C6B00E461546BF
:109DBC0082782A44C37D2BB14FF48073934278D3BD
:109DCC00002303E04FF4C073F8E70133032B14D8DE
:109DDC00C3EBC30C394C04EB0C1C9CF84810012948
:109DEC00F3D1BCF81440818A8C42EED1BCF80E4001
:109DFC00C1898C42E9D1082554E00121FFF77AFD95
:109E0C000446002857D02A463146C06E18F074FC20
:109E1C000023459345A92046FFF748FC054608B1A9
:109E2C00042842D1459B8BB9254B1B6813F0040FBA
:109E3C0037D0244B1B68032B33DDB4F84AC0BCF17C
:109E4C00800F28BF4FF0800C002313E02046FFF753
:109E5C0083FCE9E7E26ED25C1B490D6810095900DE
:109E6C002E5C04A800F8136002F00F020131AA5C0A
:109E7C00425401336345EDD304AA002302F81C308D
:109E8C0003F1804303F58833D3F8043502920F4A6B
:109E9C0001920F4A00924FF4AC620E49042004F078
:109EAC00D3FE0025284646B070BD2046FFF7D4FEF1
:109EBC00F8E70925F6E70425F4E700BFE4340020B1
:109ECC00142E0020102E0020182E0020EC4604002A
:109EDC00FC2D04007C46040070B504460D46164665
:109EEC00FFF7B4FC30B923782BB132462946204613
:109EFC00FFF75AFF70BD324629462046FFF7FBFBA1
:109F0C00F8E7000038B504460D46CB695B78037161
:109F1C00CB691B7883F00103C370CB6943628B8AD6
:109F2C000B2B07D8CB7A002B35D10B7B012B02D016
:109F3C00002300E001232370002B31D0287B022862
:109F4C002BD0FFF7E3F9A070AB8A03440B33174A0D
:109F5C0082FB03235B10013B6372002323720023FB
:109F6C00E37504F10C0395E8030083E80300AB6987
:109F7C0023622B89A382AB7AA3752B6AA362DF239E
:109F8C00E36228460EF03CF920B12B78012B0AD065
:109F9C00FF23E36238BD0123CDE7054B987DD0E765
:109FAC000423A370DBE72023F3E700BFABAAAA2AA4
:109FBC00CC34002006297AD1F0B585B0154690F83E
:109FCC0000C04FEA8C1202F4FE5241788478C378B8
:109FDC001B0443EA0463047943EA0423407943EA0B
:109FEC0000044FFA8CF642EA91012846FFF73CF93F
:109FFC000746E0B1002E2FDBC289A98A8A422BD0FA
:10A00C002B4B1B6813F0040F30D02A4B1B68012B11
:10A01C002CDD294BD3F8043502910192274A00928A
:10A02C0040F27D622649022004F00EFE1EE0204B19
:10A03C001B6813F0040F19D01E4B1B68012B15DD88
:10A04C001D4BD3F804351F4A009240F279621C492B
:10A05C00022004F0F9FD09E0002E09DBFD6C25431C
:10A06C00FD644CB903213846FFF72CFE05B0F0BD5A
:10A07C00AB8AA7F85830F1E73B7883B17A7A013292
:10A08C0001239340013B9D420DD0002187F85010D5
:10A09C003846FFF70BFB3846FFF75EFBE6E77846E2
:10A0AC00FEF794FFEAE73846FFF7F1FDDEE770476D
:10A0BC00142E0020102E0020001001402C4704000C
:10A0CC007C460400FC4604002DE9F0438BB00746A7
:10A0DC000E4614461D461046FFF7EEFB50B994F899
:10A0EC000380B8F1000F08D12B4622463146384682
:10A0FC00FFF760FF0BB0BDE8F0834046FFF742F975
:10A10C0081460028F6D08DF80480236A0793A38A31
:10A11C00ADF8123005AB04F10C0292E8030083E8B1
:10A12C000300A37D8DF820300297039623788DF8D9
:10A13C001030E36A0993294601A8C847DAE792F878
:10A14C0001C01CF0010F08D010B5D47D14B1FFF77D
:10A15C00BBFF10BDFFF724FDFBE7704708B50139C5
:10A16C000130FFF7ECFF08BD10B54FF4E072002191
:10A17C00134818F0F7FA06F085F80024114B1C6010
:10A18C0080222146104818F0EDFA104B104A1A6044
:10A19C00104A5A604CF250329A600F49D9601A61D9
:10A1AC0004221A759C7508225A750C4803F00AFC97
:10A1BC000B4B18600B4B1C600B4806F061FB10BD81
:10A1CC00E4340020B834002038340020CC34002093
:10A1DC0080969800F049020020A107002DA40200EF
:10A1EC00C8340020BC3400203594020008B506F0B9
:10A1FC0069F808BD98B110B58CB00446036983B1F9
:10A20C00C36983B1836983B101466846FFF77AFE5F
:10A21C00A28A21696846FFF75FFE0CB010BD0E20C4
:10A22C0070470E20F9E70E20F7E70E20F5E7000047
:10A23C0058B310B590B00A46044643683BB38369E3
:10A24C003BB3014604A8FFF766F8134B1B6813F0E9
:10A25C00040F03D0114B1B68062B06DCA268616847
:10A26C0004A8FFF739FE10B010BD0D4BD3F8043520
:10A27C002278A169029101920A4A009240F60502E5
:10A28C000949072004F0E0FCE8E70E2070470E2097
:10A29C00E9E70E20E7E700BF142E0020102E002067
:10A2AC0000100140704704007C460400037B012B26
:10A2BC0001D00020704730B591B004460D463F4B9D
:10A2CC001B6813F0040F03D03D4B1B68032B59DCA8
:10A2DC0004A9002304930593CDF81730E0889DF86A
:10A2EC00102002F080028DF81020C0F3861C42EA88
:10A2FC000C028DF810209DF8112002F003028DF84D
:10A30C00112042EA80028DF811202A0E8DF81220BD
:10A31C002A0C8DF813202A0A8DF814208DF815506C
:10A32C006278022A0CBF012018469DF8102002F01A
:10A33C007F028DF8102042EAC0128DF810204FF0E9
:10A34C00060209924FF001028DF82C20A28AADF87A
:10A35C002E200C938DF81C300891226A0D928DF8EA
:10A36C002830E36A0F9319D0E389ADF82A30A37D26
:10A37C00F3B98DF838306FF0010107A8FFF758FFDB
:10A38C0011B030BD0F4BD3F804350F4A009240F298
:10A39C0063220E49042004F057FC99E70DF10E01DD
:10A3AC0003A80DF01BFFBDF80C30ADF82A30DEE72A
:10A3BC00074B5B7D8DF83830DDE700BF142E002095
:10A3CC00102E0020001001409C4704007C46040025
:10A3DC00CC34002090F84830022B00D0704710B5D8
:10A3EC00044690F86830022B00D010BDC16CFFF70A
:10A3FC005DFF0028F9D1002384F86830F5E70000F0
:10A40C0010B5002407E0C4EBC40213010348184440
:10A41C00FFF7E0FF0134032CF5D910BDE434002024
:10A42C0008B5FFF7B9F9FFF7EBFF012008BD10B530
:10A43C000C4691F84830022B06D1022384F8683080
:10A44C002046FFF7C7FF10BD7846FEF7BFFDF4E7C7
:10A45C00F0B583B00446C1698369C2880E0A090647
:10A46C00C3F30C0082422FD9121A1A44A2F50052DF
:10A47C008D1846F100062A463346A08AFEF746FEA2
:10A48C00002840F089802046FEF720FF074630B3B5
:10A49C00C2698069F988130A1206C0F30C0C8C454A
:10A4AC0015D2A1EB0C010144A1F50051521843F156
:10A4BC000003AA4273EB06010DD3954276EB03031E
:10A4CC0030D3384603B0F0BD121A1A44D0E7A1EBD2
:10A4DC000C010144EAE705213846FFF7F3FBE3885A
:10A4EC00E269A169A08A05F0D5FFE8B9627A013268
:10A4FC00E37DA3B3082101FB02F293B34FF4807305
:10A50C00934231D302212046FFF7F4F90746002885
:10A51C00D7D100212046FFF7C9FE02210020FEF70B
:10A52C006FFFCEE70027CCE7E388E269A169A08A38
:10A53C0006F028F808B90027C3E723785BB1637AE3
:10A54C0001330121994001392046FFF7AFFE204627
:10A55C00FFF7B2F9EFE77846FEF738FDEFE70C218D
:10A56C00C9E74FF4C073CBE70C4B1B6813F0040F17
:10A57C0003D00B4B1B68002B01DC0027A1E7094B18
:10A58C00D3F804350192084A009240F27F32074911
:10A59C00012004F059FBF0E7002792E7142E00206D
:10A5AC00102E002000100140AC4704007C46040033
:10A5BC002DE9F04182B007460E46144698461046E7
:10A5CC00FFF746FF002846D00546404B1B6813F0AA
:10A5DC00040F03D03E4B1B68032B3FDC2846FFF7D0
:10A5EC0001F92B7B012B47D0EB6C217A01228A409D
:10A5FC00134230D11343EB64043E237AE27D002AEC
:10A60C0042D04FF0080C0CFB03FC697A8B423ED015
:10A61C00002A41D00823B34240D1AA69A3699A42C7
:10A62C0009D205F10C0E0C340FCCAEE80F0094E8F7
:10A63C0003008EE80300E86E3246391D604418F0C2
:10A64C005BF8EC6C2B7873B36A7A0132012393407C
:10A65C00013B9C422BD002B0BDE8F0811D4BD3F8DE
:10A66C000435227A01921C4A009240F2A3321B4913
:10A67C00042004F0E9FAB1E795F86830002BB3D167
:10A68C002846FFF7C5F8AFE74FF00C0CBBE70CEB17
:10A69C000603A5F84A30C0E70C23BCE70421284682
:10A6AC00FFF710FBD7E77846FEF790FCCCE7E96C98
:10A6BC002846FFF7FBFD43462A46B5F84A10E86EDC
:10A6CC00FFF73DFD2846FFF7C7FAC4E7142E00201C
:10A6DC00102E002000100140C04704007C460400EE
:10A6EC002DE9F04190B000284CD00F4614461E4680
:10A6FC008046002A48D004AB00933346FEF7ACFEEC
:10A70C00054618B1284610B0BDE8F08104A8FFF743
:10A71C009DF805460028F5D100230293039302A966
:10A72C0060880DF03FFD28B19DF8113043F0010316
:10A73C008DF811302269E168208905F063FE38B18B
:10A74C009DF8113003F0FE038DF81130002BD9D099
:10A75C009DF81130002BD5D013F0010F01D0039BC5
:10A76C0008939DF8103033B1334604AA394640465D
:10A77C00FFF71EFFC6E7334604AA39464046FFF7EB
:10A78C00EDFCBFE70E25BDE70E25BBE7F8B508B31A
:10A79C000E460546164B1F68F7B93C46B4420FD21D
:10A7AC0005EBC4035B68D3B115F8340015F93430EC
:10A7BC00002B16DBB8B1FEF7E5FDB0B90134EDE7BF
:10A7CC000C4B43F8375003EBC7035E607B1C084A05
:10A7DC00136002E00E2700E004273846F8BD0E2770
:10A7EC00FBE70B27F9E70F27F7E70F27F5E700BF84
:10A7FC00BC340020C0340020084B196861B110B57E
:10A80C0001E021463CB10C680B79002BF9D00348D0
:10A81C0004F085F9F5E710BD704700BFA83600209D
:10A82C0038B5054630B1104B1C68C4B10F4B012232
:10A83C001A7004E07846FEF7C9FBF4E724683CB1D3
:10A84C002379002BFAD154F8043C28469847F5E7B5
:10A85C00064B1B78022B03D0044B00221A7038BD18
:10A86C00FFF7CAFFF8E700BFA8360020A436002087
:10A87C0010B5044630B100232372211D034804F0A7
:10A88C0023F910BD7846FEF7A1FBF4E7A8360020AB
:10A89C0010B5044658B10A4B1B78013BDBB2012BB7
:10A8AC0009D8074B02221A700123237210BD784677
:10A8BC00FEF78CFBEFE7211D024804F030F9F5E7B9
:10A8CC00A4360020A83600200A8883689B5A0733D8
:10A8DC009BB223F0030313449BB20288043A9342C5
:10A8EC0000D900230B80704710B582B004468368F2
:10A8FC00C91AADF806100DF10601FFF7E5FFBDF81A
:10A90C000630A068184402B010BD0088043880B22C
:10A91C00704743888268D018D152012383707047E6
:10A92C0082680023937043808380704708B5073199
:10A93C0089B221F0030189B2428883889A4204D2F9
:10A94C009B1A994220DC002008BD9A4212D9B0F81B
:10A95C0000C0ACEB020C614518D98B4218D3BCF18A
:10A96C00030F03D98368134404229A700023438095
:10A97C001846E9E782681A4493780BB10420E3E7A0
:10A98C00FFF7CEFF0020DFE70420DDE70020DBE748
:10A99C000420D9E738B504460D46836882881344F1
:10A9AC008B4202D07846FEF711FB0023AB70211DC1
:10A9BC002046FFF789FFA288A36813449B78042BD9
:10A9CC0000D038BD0023A380FBE710B50C4683688C
:10A9DC00428813448B4202D07846FEF7F7FA0023E4
:10A9EC00A37010BD70B5054614460E46002944D020
:10A9FC00002D46D0B6F1005F08D94FF08053D3F844
:10AA0C000C3103F50023B6EB832F0ED3B6F5000FF4
:10AA1C0008D94FF08053D3F80C3103F50053B6EB43
:10AA2C00832F02D37846FEF7D1FA631E3344B3F179
:10AA3C00005F08D94FF08052D2F80C2102F50022A9
:10AA4C00B3EB822F0ED3B3F5000F08D94FF0805221
:10AA5C00D2F80C2102F50052B3EB822F02D37846C8
:10AA6C00FEF7B4FA042C10D92C8000236B80AB8039
:10AA7C00AE60043C3480B37070BD7846FEF7A6FA25
:10AA8C00B6E77846FEF7A2FAB4E77846FEF79EFAE8
:10AA9C00EAE738B50446A0B16288A36813449B78F2
:10AAAC00012B12D0EFF3108572B6A388A16819445C
:10AABC008B78032B0DD02046FFF732FF05B962B619
:10AACC0038BD7846FEF782FAE6E77846FEF77EFA5E
:10AADC00E8E72046FFF708FFA368C31A638000234A
:10AAEC008370EBE72DE9F0410E4614460546D0B1D4
:10AAFC00EEB16A88AB6813449B78012B1BD024B34E
:10AB0C002846FFF702FFA04221D3EFF3108872B65C
:10AB1C0021462846FFF70AFF074680B1B8F1000F1F
:10AB2C0016D162B614E07846FEF750FAE0E77846A4
:10AB3C00FEF74CFADDE77846FEF748FADFE72146E8
:10AB4C002846FFF7E6FE3060E8E7092700E0092712
:10AB5C003846BDE8F081F8B50C4615460646E0B11E
:10AB6C00FCB1A378012B20D12388AB4221D325B390
:10AB7C00EFF3108772B625800223A370F1183046CC
:10AB8C00FFF7A2FE7388B288934203D0B2681344D5
:10AB9C0000229A7007B962B6F8BD7846FEF716FA2D
:10ABAC00DEE77846FEF712FADBE77846FEF70EFA98
:10ABBC00DAE77846FEF70AFAD9E77846FEF706FA9E
:10ABCC00D6E770B50C46054690B1ACB1EFF31086E4
:10ABDC0072B6AA88AB6813449A78042A10D09A7873
:10ABEC00022A15D0032A18D0052006B962B670BD0A
:10ABFC007846FEF7EBF9E8E77846FEF7E7F9E5E784
:10AC0C00291D2846FFF760FEAA88AB681344E6E7C7
:10AC1C0003229A7023600020E7E77846FEF7D6F906
:10AC2C000020E2E738B5044680B1EFF3108572B628
:10AC3C00A388A16819448B78042B0BD08878022840
:10AC4C0014BF0020012005B962B638BD7846FEF766
:10AC5C00BDF9EAE72046FFF747FE0146EEE738B5B7
:10AC6C00054630B1EFF3108472B6AB88A96819446D
:10AC7C0007E07846FEF7AAF9F4E72846FFF734FE1A
:10AC8C0001468878C31EDBB2012BF6D9022814BF0B
:10AC9C000020012004B962B638BD70B50C460646DA
:10ACAC0078B194B1EFF3108572B6A378012B10D064
:10ACBC00032B13D121463046FFF76CFE05B962B663
:10ACCC0070BD7846FEF782F9EBE77846FEF77EF921
:10ACDC00E8E721463046FFF778FEEFE77846FEF7C7
:10ACEC0075F9EBE710B5EFF3108472B683888168C1
:10ACFC0019448B78042B06D08878B0FA80F0400980
:10AD0C0004B962B610BDFFF7EFFD0146F4E7000091
:10AD1C00024B00221A769A6002207047AC36002053
:10AD2C0008B5064B986800221A605A609A60DA607F
:10AD3C001A615A619A6104F04FFF08BDAC360020CD
:10AD4C0000B585B00A4BDB6802228DF80020019318
:10AD5C004FF480530293074A6946012001F0CCFA64
:10AD6C0018B9012005B05DF804FB0020FAE700BF1C
:10AD7C00AC360020CA36002000B585B00A4B1B68E3
:10AD8C0002228DF8002001934FF480530293074A5E
:10AD9C006946012001F0B0FA18B9012005B05DF840
:10ADAC0004FB0020FAE700BFCC360020CA36002096
:10ADBC00164BDA68137951795B1A03F57F2303F686
:10ADCC00FF7302EB03339A4205D002F580520F4B0E
:10ADDC00DA600320704700B585B00D4B1B6801206D
:10ADEC008DF8000001930B4B0393042302930A4A42
:10ADFC00694601F081FA18B1002005B05DF804FB3A
:10AE0C00024B01221A760220F7E700BFAC36002075
:10AE1C00CC360020D0360020CA36002000B585B0D4
:10AE2C000C4BDA680C4B1B68043301208DF80000C6
:10AE3C000192039340F6FC730293084A694601F0B1
:10AE4C005BFA28B90120034B187605B05DF804FBBA
:10AE5C000020FAE7AC360020CC360020CA360020A1
:10AE6C0000B585B00A4B1B6801208DF800000193DA
:10AE7C00084B039304230293074A694601F03CFAFA
:10AE8C0018B9012005B05DF804FB0020FAE700BFFB
:10AE9C00CC360020B8360020CA36002010B584B05D
:10AEAC00104BDA681478104B1B68043301208DF8B2
:10AEBC0000000193039202940C4A694601F01CFABB
:10AECC0070B9094B1B6804F0FC0423440433054A95
:10AEDC005361D1680B780B441361012004B010BD91
:10AEEC000020FBE7AC360020CC360020CA36002010
:10AEFC0008B500230A2B09D8064A52F823208242AF
:10AF0C0001D00133F6E7044A536002E07846FEF7BD
:10AF1C005DF808BD58480400AC36002010B5214B34
:10AF2C00DB6853B11F4B1B7E5BB91E4B5B680A2B56
:10AF3C0026D97846FEF74AF822E07846FEF746F81E
:10AF4C00F0E77846FEF742F8EFE7164A536801330C
:10AF5C0053600A2B21D97846FEF738F81DE0114BC7
:10AF6C0000225A6019E00F4B1B7E1BB10D4B0222C5
:10AF7C001A7012E0FFF7D4FE0FE00A4B1B7E83B968
:10AF8C00084B5A68084B53F822309847044602285D
:10AF9C00E9D00328E3D00128D7D0012CEDD0032C25
:10AFAC00EBD010BDAC36002058480400104B1B6889
:10AFBC001B685A1E12F1030F18D8C3F30B020AB107
:10AFCC000020704710B50B4AD360002313765376DC
:10AFDC000124147093600848FFF78AFF0749204644
:10AFEC0001F078F9FFF79AFF204610BD002070475A
:10AFFC00CC360020AC3600204DAD02000DB0020066
:10B00C0008B50B78032B06D00B4B1B78012B06D005
:10B01C00022B0BD008BD084B00221A76F4E7064B26
:10B02C001B7E002BF6D1FFF779FFF3E70B78032B90
:10B03C00F0D1FFF775FEEDE7AC36002000B585B01A
:10B04C00174BDB6818784FF6FF7203F580511844E4
:10B05C0005F0CCFBE0B10246114BD9680B780B44E0
:10B06C00984217D00E4B5B7E83B10E4B01208DF8AE
:10B07C00000001920393042302930B4A694601F0EA
:10B08C003BF948B90120064B187606E0074BEDE773
:10B09C00012002E0012000E0002005B05DF804FB77
:10B0AC00AC360020A84A0400CA360020A44A04008A
:10B0BC0008B5104BDB681878002203F58051184452
:10B0CC0005F094FB08B1012008BD0A4BDA6813792E
:10B0DC0051795B1A03F57F2303F6FF7302EB0333FD
:10B0EC009A4205D002F58052024BDA600320EBE75E
:10B0FC000220E9E7AC360020F0B585B0514BDE6894
:10B10C0072793379591E8A4214D006F580510D7824
:10B11C000D444D490968081D0F7907449B1A06EB2D
:10B12C0003366B88013B9BB247F6FE62934260D9B3
:10B13C002C461AE00120434B58767EE07846FDF70A
:10B14C0045FF15E024F47F6424F00F0404F58054CB
:10B15C0023781C44A6421CD9A5421CD26388013B0F
:10B16C009BB247F6FE62934211D92388002BE5D09F
:10B17C00238804EB830323F47F6222F00F029342B3
:10B18C00E0D06288B2F5FE4FDCD01C46E2E72546E3
:10B19C002FE000252DE000252BE07846FDF716FF6B
:10B1AC0015E024F47F6424F00F0404F58054237814
:10B1BC001C44A6421CD9A54237D26388013B9BB2E2
:10B1CC0047F6FE62934211D92388002BE5D02388E1
:10B1DC0004EB830323F47F6222F00F029342E0D04E
:10B1EC006288B2F5FE4FDCD01C46E2E7254600E053
:10B1FC000025E5B1144B19686A8801F58051384671
:10B20C0005F0F4FA074690B101200E4B18768DF834
:10B21C00000001950D4B0393042302930C4A6946DD
:10B22C0001F06AF858B92C46CEE70025E1E7B5FAEB
:10B23C0085F56D09034B5D76012005B0F0BD00204E
:10B24C00FBE700BFAC360020CC360020A04A04003F
:10B25C00CA3600202DE9F04186B0654B1B6923B13D
:10B26C00634B5B692BB1002748E07846FDF7AEFED7
:10B27C00F6E77846FDF7AAFEF5E7A04618E0784613
:10B28C00FDF7A4FE18E028F47F6828F00F0808F5F5
:10B29C00805898F800309844454520D944454AD206
:10B2AC00B8F80230013B9BB247F6FE62934214D9C8
:10B2BC00B8F80030002BE2D0B8F8003008EB83036C
:10B2CC0023F47F6222F00F029342DCD0B8F8022004
:10B2DC00B2F5FE4FD7D09846DEE7444600E0002496
:10B2EC003CBB00230093019B002B5CD10127002C5D
:10B2FC0078D0628847F6FF739A4273D0002F75D1CD
:10B30C003B4B5A6922F47F6626F00F06B61A06F5F7
:10B31C0080561C69DD682B796A799B1A05EB03351D
:10B32C00002301936388013B9BB247F6FE62934274
:10B33C00A3D800940EE00024D2E77846FDF746FE31
:10B34C0023E024F47F6323F00F0303F580531A7872
:10B35C0013441C46A542C6D92388019A02EB8302EA
:10B36C009642C0D9009B634023F47F6323F00F0304
:10B37C00002BB8D16388013B9BB247F6FE618B4230
:10B38C00B1D801922388002BD7D0238804EB8303F8
:10B39C0023F47F6222F00F029342D2D06288B2F57E
:10B3AC00FE4FD6D1CDE7124A526901208DF8080024
:10B3BC000392009A059204930E4A02A900F09CFF96
:10B3CC0070B90B49019B23F003024B6913444B6189
:10B3DC0014B1074B1C618AE77846FDF7F7FDF8E7D7
:10B3EC00002000E0012006B0BDE8F0810120FAE762
:10B3FC00AC360020CA36002000B585B00023294A9F
:10B40C001370D3F8F83FB3F1FF3F09D0B3F1FF3F0E
:10B41C000DD08BB1B3F1FF3F39D0A3F5805211E0C1
:10B42C004FF010225269B2F1FF3FEFD104E04FF020
:10B43C0010225269002AEDD14FF080535A691B69D2
:10B44C0003FB02F2A2F58052174B1A60174B1B68D4
:10B45C0013F4801F16D0164B1B68062B12DD154BF0
:10B46C00D3F804350021D1F8F81FB1F1FF3F14D007
:10B47C0002920191104A009240F276220F49072065
:10B48C0003F0E2FBFFF792FD05B05DF804FB4FF013
:10B49C0010235A69A2F58052D4E74FF01021496964
:10B4AC00E6E700BFC8360020CC360020142E002062
:10B4BC00102E002000100140244804000C48040009
:10B4CC0010B50446B0B1104B1B78BBB10E4BD9680C
:10B4DC00E3685879A3EB0032914211D31A79121A0E
:10B4EC0002F57F2202F6FF7203EB0233994209D870
:10B4FC00012004E07846FDF769FDE4E7002010BD6B
:10B50C000020FCE70020FAE7AC360020024B18784C
:10B51C00003818BF01207047AC36002010B5044627
:10B52C00124B1B78BBB92378032B18D10F4B9C60A3
:10B53C00E268DA600E4B1B78ABB10A220B4B5A60F7
:10B54C0000221A76012018705A760A4900F0C2FEC1
:10B55C00FFF7E4FC10BD7846FDF738FDE3E77846CD
:10B56C00FDF734FDE2E70022E8E700BFAC3600202F
:10B57C00C83600200DB00200014B1868704700BFA0
:10B58C00CC36002010B5044680B163681BB123682B
:10B59C000BB1A36813B97846FDF718FDA3685A1EC2
:10B5AC00134207D10023E360236110BD7846FDF7F9
:10B5BC000DFDEAE77846FDF709FDF3E770B508B332
:10B5CC000E4604468368FBB1EFF3108572B603692F
:10B5DC00C268934212D001684268806800F1FF3C57
:10B5EC0003EA0C0303FB021116B1304617F084F882
:10B5FC002369013323614DB962B608E005B962B61F
:10B60C00052504E00E2502E0092500E0002528466A
:10B61C0070BD00000246C0F30B0030BB39B301F61D
:10B62C00FF714FEA113C134B0221C3F80415114B67
:10B63C00D3F80034002BFAD001460AE00D4BC3F8C6
:10B64C0008250C4BD3F80034002BFAD002F58052AD
:10B65C0001316145F2D3074B0022C3F80425054B99
:10B66C00D3F80034002BFAD0704710207047092013
:10B67C00704700BF00E00140844610F0030F2DD14D
:10B68C0011F0030F2CD16AB312F0030F2CD19008D8
:10B69C00164B0122C3F80425144BD3F80034002BAD
:10B6AC00FAD003E00CF1040C04311046421E58B1E0
:10B6BC000B68B3F1FF3FF5D0CCF800300B4BD3F84F
:10B6CC000034002BFAD0EDE7084B0022C3F8042518
:10B6DC00064BD3F80034002BFAD07047102070477B
:10B6EC0010207047092070470920704700E0014086
:10B6FC00094B1B7813F0040F02D00378122B00D0E7
:10B70C007047064B1A68064B5A60034B1A786FF356
:10B71C0082021A70F4E700BF7837002068370020E7
:10B72C000437002010B582B001900C46BDF80630ED
:10B73C00012B11D123680A490B600A4B1A7842F08D
:10B74C0001021A70D3B25B0883F0010303F001030A
:10B75C000B71002002B010BD7846FDF737FCE9E70D
:10B76C00683700207837002010B582B001900C4665
:10B77C00BDF80630022B0FD12268094B1A602279D2
:10B78C001A71002058719871D871064A137843F0D9
:10B79C000203137002B010BD7846FDF717FCEBE7FF
:10B7AC00603700207837002010B582B001900C462D
:10B7BC00BDF80630032B06D1054B186820601B79A9
:10B7CC00237102B010BD7846FDF700FCF4E700BF12
:10B7DC006837002010B582B001900C46BDF80630D9
:10B7EC00032B0CD1084B2068186022791A71074A78
:10B7FC00137843F001031370002002B010BD78469B
:10B80C00FDF7E4FBEEE700BF683700207837002037
:10B81C0010B582B001900C46BDF80630042B05D152
:10B82C00044B03CB2060616002B010BD7846FDF77D
:10B83C00CDFBF5E76037002010B582B001900C46C7
:10B84C00BDF80630042B0BD1074B2068616803C38D
:10B85C00064A137843F002031370002002B010BDA7
:10B86C007846FDF7B3FBEFE7603700207837002010
:10B87C0000B583B00190BDF80630032B06D1054B03
:10B88C0000221A601A7103B05DF804FB7846FDF7CC
:10B89C009DFBF4E76837002000B583B00190BDF83C
:10B8AC000630042B06D1054B00221A605A6003B0F7
:10B8BC005DF804FB7846FDF789FBF4E76037002060
:10B8CC0000B585B01A4B1B7813F0400F13D0184BF2
:10B8DC001B7813F0040F0BD1002301938DF8083063
:10B8EC00144B5B6803F500530193B3F1807F06D9C9
:10B8FC0005B05DF804FB7846FDF768FBE7E70E4BF7
:10B90C001B788DF808300A4A137843F0040313703F
:10B91C000023ADF80C300323ADF80E3001A90398C9
:10B92C0006F0FCF80028E3D07846FDF74FFBDFE784
:10B93C0078370020043700207937002000B585B017
:10B94C000022019202920F4B996801911B7B8DF89A
:10B95C0008300D490B780133DBB20B708DF80B30CE
:10B96C00ADF80C200423ADF80E300DEB0301039859
:10B97C0006F0D4F810B905B05DF804FB7846FDF775
:10B98C0025FBF8E7043700207937002000B585B097
:10B99C000023019302930F4A91680191117B8DF85A
:10B9AC000810128AADF809200B4A12788DF80B207A
:10B9BC00ADF80C300423ADF80E300DEB03010398F9
:10B9CC0006F0ACF810B905B05DF804FB7846FDF74D
:10B9DC00FDFAF8E7043700207937002000B58DB068
:10B9EC000B4B1B7B012B0ED0094A926804928DF8ED
:10B9FC000830039002238DF8043001A8FEF710FFE5
:10BA0C000DB05DF804FB024A9268013A0492EEE72D
:10BA1C000437002008B51D481D4B036000F0D8FE0C
:10BA2C001C4B1B7813F0200F2AD103F00303032BBC
:10BA3C0014D1194B1968194A916019791173B3F81B
:10BA4C0005001082DB79164A1370164A127993425C
:10BA5C0017D0B1B9114B00221A6007E00F4B00222E
:10BA6C001A609A601A731A82FFF768FF0B4B1A68F8
:10BA7C005A60084A137843F040031370FFF720FF15
:10BA8C0008BD084B1A68054B1A60EFE754370020C5
:10BA9C00FDB6020078370020603700200437002004
:10BAAC00793700206837002010B582B00024ADF83B
:10BABC0000400123ADF80230009806F060F8ADF8B4
:10BACC0004400223ADF80630019806F058F802B095
