:020000022000DC
:1060000000F0002069630200516302005363020044
:10601000556302005763020059630200000000004C
:106020000000000000000000000000005B630200B0
:106030005D630200000000005F6302006163020014
:106040006363020063630200636302006363020030
:106050006363020063630200F5D60300636302001A
:1060600063630200636302008DAB0300636302009D
:106070006363020063630200636302006363020000
:1060800063630200BD51040045D80200636302004F
:106090002152040063630200D5E103006363020040
:1060A00063630200636302006363020063630200D0
:1060B0006363020063630200000000000000000050
:1060C00063630200636302006363020063630200B0
:1060D0006363020063630200636302000000000068
:1060E00000000000000000000000000000000000B0
:1060F00000000000000000000000000000000000A0
:10610000000000000000000000000000000000008F
:10611000000000000000000000000000000000007F
:10612000000000000000000000000000000000006F
:10613000000000000000000000000000000000005F
:10614000000000000000000000000000000000004F
:10615000000000000000000000000000000000003F
:10616000000000000000000000000000000000002F
:10617000000000000000000000000000000000001F
:10618000000000000000000000000000000000000F
:1061900000000000000000000000000000000000FF
:1061A00000000000000000000000000000000000EF
:1061B00000000000000000000000000000000000DF
:1061C00000000000000000000000000000000000CF
:1061D00000000000000000000000000000000000BF
:1061E00000000000000000000000000000000000AF
:1061F000000000000000000000000000000000009F
:10620000334934480A1A02D0072291438D46324955
:1062100032480A1A06D00722914381F309880222E4
:1062200082F314882E482F492F4A00F03FF82F4858
:106230002F49304A00F03AF82F483049304A00F0F0
:1062400035F830483049314A00F030F830483149AB
:10625000314A00F02BF831483149324A00F026F833
:1062600031483249324A00F021F83248324900229E
:1062700000F027F831483249002200F022F8314876
:106280003149091A1FF04EFA1F482049884205D0AB
:106290000268043003B4904703BCF7E70020864649
:1062A000EC4600200021294A9047FEE7884207D0AB
:1062B000521A05D0037801300B700131013AF9D13F
:1062C0007047884202D002700130FAE77047000040
:1062D00000F0002000E8002000F0002000F0002086
:1062E00044810400F02D00209C2E00209C630200BD
:1062F0009C6302008C57040044810400F02D0020B0
:10630000F02D00205C5B04005C5B04005C5B04001F
:106310005C5B04005C5B04005C5B04005C5B040091
:106320005C5B040044810400F08104009C2E00208A
:106330009C2E00209C2E0020CC6E0020CC6E0020D5
:10634000CC6E0020CC6E0020CC720020CD790200F3
:10635000FEE7FEE7FEE7FEE7FEE7FEE7FEE7FEE715
:10636000FEE7FEE700F002B8FFF7FCBF08484FF079
:10637000070188438546074880470748016841F47C
:1063800070010160BFF34F8FBFF36F8FFFF738BF0E
:0C63900000F0002015E7030088ED00E09D
:10639C0041DF70470C4B1B6813F4804F03D00B4B41
:1063AC001B68012B00DC704700B583B0084BD3F899
:1063BC0004350190074A0092B2220749022008F0E6
:1063CC003FFB03B05DF804FB382E0020342E002078
:1063DC00001001409C5B0400955B04002DE9F0412A
:1063EC00C6B014461D461688578892F80480374B61
:1063FC001B6813F4804F03D0354B1B68032B1ADC3E
:10640C00324B1B6813F4804F03D0314B1B68032BAA
:10641C001FDC2E4B1B6813F4804F54D02C4B1B6885
:10642C00032B50DDA5F1050EBEF1800F28BF4FF0F8
:10643C00800E002130E0274BD3F804354A880192B6
:10644C00254A009240F2D1122449042008F0F8FAAF
:10645C00D6E7204BD3F80435CDF80C800297019683
:10646C001F4A00924FF4E9721C49042008F0E8FA24
:10647C00CFE7631858791B4B1B6802094FEA410C94
:10648C009D5C05AA02F8115000F00F000CF1010CF4
:10649C001B5C02F80C3001317145EAD305AA0023CC
:1064AC0002F81E3003F1804303F58833D3F804352A
:1064BC0002920D4A01920D4A009240F2D7120749FE
:1064CC00042008F0BDFA46B0BDE8F081382E00205B
:1064DC00342E002000100140BC5B0400955B0400CE
:1064EC00E85B04003C2E00200C5C04001C5C0400E7
:1064FC0070B584B016461D4614883F4B1B6813F4C8
:10650C00804F03D03D4B1B68032B18DC3A4B1B68A8
:10651C0013F4804F03D0394B1B68032B1DDC022D69
:10652C0053D9354B1B6813F4804F03D0334B1B6886
:10653C00032B20DC023DC5F34F05002429E0304B32
:10654C00D3F804354A8801922E4A00924FF4D9723E
:10655C002D49042008F074FAD8E7294BD3F80435F8
:10656C0002950194294A009240F2B3122649042064
:10657C0008F066FAD3E7224BD3F80435244A00928C
:10658C0040F2B7122049042008F05AFAD2E701343D
:10659C00A4B2AC4222D2184B1B6813F4804FF6D035
:1065AC00164B1B68032BF2DD154BD3F8043506EBA9
:1065BC004402528802920192164A009240F2BB1297
:1065CC001149042008F03CFAE1E70B4B1B6813F46B
:1065DC00804F03D0094B1B68032B01DC04B070BD4A
:1065EC00074BD3F804350C4A009240F2C11206490D
:1065FC00042008F025FAF1E7382E0020342E002074
:10660C0000100140245C0400955B0400545C040001
:10661C006C5C0400845C0400905C040030B5C7B072
:10662C0015461C46284A126812F4804F03D0274B9B
:10663C001B68032B0EDC244A126812F4804F41D0E5
:10664C00224B1B68032B3DDD2346802C28BF802367
:10665C00002123E01E4BD3F804354A882988029187
:10666C0001921C4A009240F2A3121B49042008F02C
:10667C00E7F9E0E76A189078184A146802094FEABB
:10668C00410CA25C0DF1140E0EF8112000F00F005D
:10669C000CF1010C225C0EF80C2001319942E9D36B
:1066AC0005AA002102F81310094BD3F80435029205
:1066BC000B4A01920B4A00924FF4D3720649042004
:1066CC0008F0BEF947B030BD382E0020342E002023
:1066DC0000100140A05C0400955B04003C2E0020DF
:1066EC00DC5C04001C5C040030B5C7B015461C46CD
:1066FC00284A126812F4804F03D0274B1B68032BD7
:10670C000EDC244A126812F4804F41D0224B1B68D5
:10671C00032B3DDD2346802C28BF8023002123E062
:10672C001E4BD3F804354A882988029101921C4AE1
:10673C00009240F295121B49042008F081F9E0E721
:10674C006A189078184A146802094FEA410CA25C46
:10675C000DF1140E0EF8112000F00F000CF1010CCD
:10676C00225C0EF80C2001319942E9D305AA0021D4
:10677C0002F81310094BD3F8043502920B4A01921C
:10678C000B4A00924FF4CC720649042008F058F9D9
:10679C0047B030BD382E0020342E002000100140B0
:1067AC00F05C0400955B04003C2E0020DC5C0400D3
:1067BC001C5C0400F0B587B00F4616461D4600243D
:1067CC0011E0234BD3F804357A8831880291019279
:1067DC00204A00924FF49E721F49042008F030F9B1
:1067EC000CE00134A4B2AC422FD21C4B186810F44C
:1067FC00804F03D01A4B1B68032BE2DC1748006850
:10680C0010F4804FEDD0164B1B68032BE9DD104BB9
:10681C00D3F8043504EB840206EB420251889088CD
:10682C0092F806C092F807E0127A0592CDF810E0C3
:10683C00CDF80CC0029001910A4A00924FF4A0725C
:10684C000549042008F0FCF8CBE707B0F0BD00BF09
:10685C00001001402C5D0400955B0400382E0020D4
:10686C00342E0020585D040010B5D6B0B823ADF816
:10687C005631441C914B1B6813F4804F03D0904B42
:10688C001B68032B0EDC601E082800F2C782DFE8B1
:10689C0010F016004C006C008C00670127024702B8
:1068AC006702A502874BD3F804350194864A0092FF
:1068BC0040F207228549042008F0C2F8E3E77F4B39
:1068CC001B6813F4804F03D07D4B1B68032B20DC1B
:1068DC007F4B1878C0EBC00000217E4B03EBC0004F
:1068EC001EF017F9112800F2D782DFE810F0AC0285
:1068FC00D502D502D5029E02D502D502BD029E025A
:10690C00D502D502D502D502D502D502D502D502C3
:10691C009E026C4BD3F804356F4A009240F20D2264
:10692C006A49042008F08CF8D2E7644B1B6813F416
:10693C00804F03D0624B1B68032B0ADC644B187826
:10694C00C0EBC0004221634B03EBC0001EF0E1F82A
:10695C00C8E75C4BD3F804355F4A009240F213222F
:10696C005A49042008F06CF8E8E7544B1B6813F400
:10697C00804F03D0524B1B68032B0ADC544B187806
:10698C00C0EBC0004221534B03EBC0001EF0F0F8EB
:10699C00A8E74C4BD3F80435504A009240F2192228
:1069AC004A49042008F04CF8E8E70DF5AB724C4965
:1069BC00422001F082FA0346002838D0072280F8E2
:1069CC00A620002180F8A710D0F8800001220270C8
:1069DC00D3F88400027083F8A820D3F888201170B3
:1069EC00D3F88C20312111704022ADF8542155AAD6
:1069FC0045A9184601F0A5FABDF85431002B4ED12B
:106A0C002E4B1B6813F4804F00F01D822C4B1B681F
:106A1C00032B40F318822B4BD3F80435314A0092E8
:106A2C0040F241222949042008F00AF80BE2BDF893
:106A3C005621B82A19D9214B1B6813F4804F00F04A
:106A4C0002821F4B1B68032B40F3FD811D4BD3F8B7
:106A5C0004350292B8220192234A009240F2262277
:106A6C001A49042007F0ECFFEDE1144B1B6813F4FA
:106A7C00804F00F0E881124B1B68032B40F3E3813D
:106A8C00104BD3F80435422202920192174A00921D
:106A9C0040F22D220D49042007F0D2FFD3E1074A22
:106AAC00126812F4804F4ED0054A1268032A4ADD50
:106ABC00802B28BF80239C4600232DE0382E0020FD
:106ACC00342E0020001001408C5D0400955B040006
:106ADC00542F0020582F0020A05D0400B05D04004E
:106AEC009C2E0020385E0400CC5D04000C5E04007B
:106AFC0003F5AC726A4412F8442CA9490C681009CD
:106B0C00590014F800E004A800F813E002F00F029A
:106B1C000131A25C425401336345E9D304AA00233A
:106B2C0002F81C3003F1804303F58833D3F80435A5
:106B3C0002929C4A01929C4A009240F245229B4947
:106B4C00042007F07DFF9A4B1878C0EBC000BDF80D
:106B5C00542145A9974B03EBC0001DF017FFC1E66C
:106B6C000DF5AB729449422001F0A7F903460028B9
:106B7C0036D0002180F8A61080F8A710D0F880003D
:106B8C0001220270D3F88400027083F8A820D3F895
:106B9C0088000270D3F88C2011704022ADF854217B
:106BAC0055AA45A9184601F0CCF9BDF85431002B73
:106BBC004ED1824B1B6813F4804F00F04481804B04
:106BCC001B68032B40F33F817E4BD3F804357E4A80
:106BDC0000924FF41C727549042007F031FF32E12A
:106BEC00BDF85621B82A19D9744B1B6813F4804F81
:106BFC0000F02981724B1B68032B40F32481714BED
:106C0C00D3F804350292B8220192704A009240F2F5
:106C1C0053226649042007F013FF14E1674B1B68ED
:106C2C0013F4804F00F00F81654B1B68032B40F36E
:106C3C000A81644BD3F80435422202920192644AD1
:106C4C00009240F25A225949042007F0F9FEFAE06A
:106C5C005A4A126812F4804F34D0594A1268032AE7
:106C6C0030DD802B28BF80239C46002313E003F5E6
:106C7C00AC726A4412F8442C49490C68100959004A
:106C8C0014F800E004A800F813E002F00F02013140
:106C9C00A25C425401336345E9D304AA002302F8F1
:106CAC001C3003F1804303F58833D3F8043502928A
:106CBC003C4A01923C4A00924FF41D723B4904201D
:106CCC0007F0BEFE3A4B1878C0EBC0000323BDF8AA
:106CDC00542145A9374C04EBC0001DF0C5FE01E65C
:106CEC00364B1B6813F4804F03D0354B1B68032BBA
:106CFC000ADC2F4B1878C0EBC00042212D4B03EB64
:106D0C00C0001DF062FFEDE52E4BD3F80435314A7F
:106D1C00009240F27D222549042007F091FEE8E71D
:106D2C00264B1B6813F4804F03D0254B1B68032B99
:106D3C000ADC1F4B1878C0EBC00000211D4B03EB85
:106D4C00C0001DF0B2FECDE51E4BD3F80435224A2F
:106D5C0000924FF421721549042007F071FEE8E708
:106D6C00164B1B6813F4804F03D0154B1B68032B79
:106D7C000ADC0F4B1878C0EBC00042210D4B03EB23
:106D8C00C0001DF092FEADE50E4BD3F80435124A4F
:106D9C00009240F28A220549042007F051FEE8E7F0
:106DAC003C2E0020585E04001C5C0400955B040023
:106DBC00542F0020582F00209C2E0020382E00200D
:106DCC00342E002000100140385E0400CC5D04001D
:106DDC000C5E0400705E04008C5E0400324B1A786A
:106DEC000132D2B21A70012A00D900222E4B1A702D
:106DFC002E4B1B6813F4804F25D02D4B1B68032B97
:106E0C0021DD2C4BD3F8043501922B4A009240F231
:106E1C0091222A49042007F013FE14E0284A40F27C
:106E2C009521032017F09EFD0DE0204B1B6813F4F9
:106E3C00804F03D01E4B1B68032B06DC062232212D
:106E4C000F2001F017FB56B010BD1A4BD3F80435C8
:106E5C00154A127801921B4A009240F2A12217495E
:106E6C00042007F0EDFDE9E7104B1B6813F4804F8D
:106E7C00E9D00F4B1B68032BE5DD0E4BD3F8043523
:106E8C00094A12780192104A009240F2B2220B4940
:106E9C00042007F0D5FDD6E70028D4D0084A40F2EC
:106EAC00B62117F05FFDCEE7542F0020382E0020BE
:106EBC00342E002000100140A05E0400955B0400FD
:106ECC005C5B0400C45E0400DC5E040010B582B0A0
:106EDC00A0F13104082C0AD90E4B1B6813F4804F17
:106EEC0003D00D4B1B68032B08DC02B010BD2046F1
:106EFC00FFF7BAFCB4F1FF3FF7D1EDE7074BD3F83E
:106F0C000435074A009240F2C6220649042007F0D5
:106F1C0097FDEAE7382E0020342E002000100140A7
:106F2C00F4620400955B040000B583B0012A1ED006
:106F3C00022A35D03AB1244ACD21032017F012FD94
:106F4C0003B05DF804FB214B1B6813F4804FF7D0A2
:106F5C001F4B1B68032BF3DD1E4BD3F804351E4A65
:106F6C000092C0221D49042007F06AFDE8E70622C2
:106F7C0032210F2001F07EFA144B1B6813F4804F62
:106F8C00DED0134B1B68032BDADD124BD3F8043520
:106F9C00134A0092C5221149042007F051FDCFE796
:106FAC000A4B1B6813F4804FCAD0094B1B68032B88
:106FBC00C6DD084BD3F804350A4A0092C9220749AA
:106FCC00042007F03DFDBBE75C5B0400382E00207D
:106FDC00342E002000100140085F0400955B040073
:106FEC00285F0400485F040000B58DB02422002106
:106FFC0003A81EF0C3FA01238DF80C3007238DF87B
:10700C000F3006238DF814301D4B07931D4B0B933B
:10701C001D4903A80BF07AFD60B30B2829D11B4B3B
:10702C001B6813F4804F03D0194B1B68032B14DC23
:10703C00164B1B6813F4804F1CD0154B1B68032B8D
:10704C0018DD144BD3F80435134A009240F2EA22AF
:10705C001249042007F0F4FC0CE00E4BD3F8043575
:10706C000F4A009240F2E9220C49042007F0E8FC98
:10707C00DEE710B90DB05DF804FB17F065FCF9E71D
:10708C00217802004D710200C82F0020382E0020FC
:10709C00342E002000100140BC5F0400955B0400FE
:1070AC006C5F040000B583B01D4A04214FF4C0404E
:1070BC0007F0AAFC1B4B1B6813F4804F03D01A4B30
:1070CC001B68032B13DC1EF0A9F8E0B901F014FACD
:1070DC00164801F045FAE0B901F000FC01F03CFC67
:1070EC0001F06AFCFFF780FF03B05DF804FB104B66
:1070FC00D3F804350F4A009240F2F6220E490420D0
:10710C0007F09EFCDFE70D4A40F2F92117F02AFC4C
:10711C00DCE70A4A40F2FD2117F024FCDCE700BF53
:10712C00E9E90200382E0020342E00207568020098
:10713C0000100140F85F0400955B04005C5B0400E8
:10714C0010B582B0002406E01C4A40F2D52117F09D
:10715C0009FC1BE00134012C2ED8C4EBC4031848E5
:10716C0000EBC300174BC3620023436280F8283046
:10717C0080F82930144B03EB84130363402383867C
:10718C00611C89B21DF0A0FB0028DDD10F4B1B68E0
:10719C0013F4804FDED00E4B1B68032BDADD0D4B46
:1071AC00D3F8043501940C4A009240F2D6220B49D4
:1071BC00042007F045FCCDE702B010BD5C5B040079
:1071CC00582F0020D0620400CC2F0020382E002035
:1071DC00342E00200010014024600400955B040054
:1071EC00F0B5F5B015461F46B823ADF81631168824
:1071FC00A34B1B6813F4804F03D0A24B1B68032BCB
:10720C000FDC9F4B1B6813F4804F45D09D4B1B68C4
:10721C00032B41DD3846802F28BF80204FF0000C17
:10722C0023E0994BD3F804354A88039602970192D0
:10723C00964A009240F257129549042007F000FC40
:10724C00DFE715F80CE0934B1A684FEA1E134FEA70
:10725C004C04D15C05AB03F81C100EF00F0E01347E
:10726C0012F80E201A550CF1010C8445E9D305AA2D
:10727C00002302F8103003F1804303F58833D3F870
:10728C0004350292844A0192844A009240F25D12C3
:10729C007F49042007F0D4FB0DF58B7346AA3946C1
:1072AC00284600F030FE0446002800F01881744B8C
:1072BC001B6813F4804F03D0724B1B68032B22DC2A
:1072CC006F4B1B6813F4804F47D06E4B1B68032B1E
:1072DC0043DDB4F8AA70802F28BF80270023BB425F
:1072EC0026D2D4F88020D25C6A490D681009590066
:1072FC002E5C05A800F8136002F00F020131AA5CA5
:10730C0042540133EBE7604BD3F8043590F8A620D8
:10731C0090F8A71090F8A800039002910192604A8F
:10732C0000924FF4B3725A49042007F089FBC7E767
:10733C0005AA002302F8173003F1804303F58833C4
:10734C00D3F804350292574A0192544A00924FF4F2
:10735C00B6724F49042007F073FB494B1B6813F4BA
:10736C00804F32D0474B1B68032B2EDDB4F8AA702C
:10737C00802F28BF80270023BB4211D2D4F8842051
:10738C00D25C44490D68100959002E5C05A800F820
:10739C00136002F00F020131AA5C42540133EBE797
:1073AC0005AA002302F8173003F1804303F5883354
:1073BC00D3F8043502923C4A0192384A00924FF4B9
:1073CC00B8723349042007F03BFB2D4B1B6813F4B8
:1073DC00804F32D02B4B1B68032B2EDDB4F8AA70D8
:1073EC00802F28BF80270023BB4211D2D4F88820DD
:1073FC00D25C28490D68100959002E5C05A800F8CC
:10740C00136002F00F020131AA5C42540133EBE726
:10741C0005AA002302F8173003F1804303F58833E3
:10742C00D3F804350292214A01921C4A00924FF47F
:10743C00BA721749042007F003FB114B1B6813F4B5
:10744C00804F4AD00F4B1B68032B46DDB4F8AA7053
:10745C00802F28BF80270023BB4229D2D4F88C2050
:10746C00D25C0C490D68100959002E5C05A800F877
:10747C00136002F00F020131AA5C42540133EBE7B6
:10748C00382E0020342E00200010014048600400EB
:10749C00955B04003C2E0020986004001C5C0400EA
:1074AC00A0600400E4600400FC60040010610400AF
:1074BC0005AA002302F8173003F1804303F5883343
:1074CC00D3F8043502921F4A01921F4A00924FF4DE
:1074DC00BC721E49042007F0B3FA75B0F0BDBDF8BC
:1074EC001621B82A17D91A4B1B6813F4804FF4D005
:1074FC00184B1B68032BF0DD174BD3F804350292A5
:10750C00B8220192154A009240F281120F490420D0
:10751C0007F096FAE1E70E4B1B6813F4804FDCD0B2
:10752C000C4B1B68032BD8DD0B4BD3F804350196A1
:10753C000B4A009240F289120449042007F080FAA9
:10754C00CBE700BF246104001C5C0400955B0400C5
:10755C00382E0020342E002000100140CC5D040099
:10756C003C6104002DE9F04782B005460F46914678
:10757C009846DDF828A000268AF8006008463446B4
:10758C0005E007EB090383420DD90134A4B26EB9AF
:10759C002B1D0093AB1C6A1C294600F043FC444590
:1075AC00EFD10126EDE701238AF80030304602B016
:1075BC00BDE8F0872DE9F041CAB00F4616461D46CE
:1075CC0000248DF8274123E00134A4B2BDF81E201D
:1075DC00422A31D04D2A58D06B4B1B6813F4804F84
:1075EC0003D06A4B1B68032B73DC674B1B6813F4CB
:1075FC00804F03D0654B1B68032B77DC624B1B68F9
:10760C0013F4804F04D0614B1B68032B00F3838071
:10761C009DF82701002840F0B3800DF2271300934A
:10762C0023462A46314607A8FFF79CFF0028CBD1FA
:10763C0001238DF82731EBE7089B09A9187800F096
:10764C002FFC514B1B6813F4804FCED04F4B1B6853
:10765C00032BCADD4E4BD3F804357A883978DDF824
:10766C0020C09CF800C09DF824E0CDF814E00490F4
:10767C00CDF80CC002910192464A00924FF48A72E6
:10768C004549042007F0DCF9AFE7089B1A783E4B1C
:10769C001B6813F4804FA8D03C4B1B68032BA4DD54
:1076AC003B4BD3F80435798838787AB1DFF804C1CC
:1076BC00CDF810C0039202900191384A009240F22A
:1076CC001D123549042007F0BBF98EE7DFF8E8C03E
:1076DC00EEE72F4BD3F804350192314A009240F279
:1076EC0025122D49042007F0ABF97EE7284BD3F87F
:1076FC0004359DF81C209DF81D10BDF81E0003904C
:10770C0002910192274A009240F22712224904204A
:10771C0007F096F972E79DF81D80B8F1800F28BF2D
:10772C004FF080080020404514D2089B13F800C08D
:10773C001D4B19684FEA1C12430011F802E009AA0C
:10774C0002F810E00CF00F0C013311F80C10D154AE
:10775C000130E8E709AA002302F8183003F180434E
:10776C0003F58833D3F804350292104A0192104A7B
:10777C00009240F22D120849042007F061F947E706
:10778C004AB0BDE8F08100BF382E0020342E002016
:10779C00001001408C610400955B0400CC61040076
:1077AC0008620400286204003C2E0020546204008D
:1077BC001C5C0400606104007461040000B583B0BB
:1077CC000F4B1B6813F4804F03D00E4B1B68032B1D
:1077DC0009DC0322C8210F2000F04CFE0BF0F6F957
:1077EC0003B05DF804FB084BD3F80435074A00924C
:1077FC0040F2DF120649042007F022F9E9E700BF46
:10780C00382E0020342E002000100140606204004D
:10781C00955B040008B50378232B00D008BDFFF757
:10782C00CDFFFBE700B58BB06421284800F036FD96
:10783C00274B1B78E3B101F0E5F900F0C9FE0BF022
:10784C00B7F9002830D1234B1B6813F4804F03D0B9
:10785C00214B1B68032B2DDC00210F2000F0F4FDC5
:10786C000222C8210F2000F005FE0BB05DF804FBCE
:10787C000393049305930693079308930993174B6B
:10788C000493174B0593174B0793174B0893174B00
:10789C00099303A800F098FC0028CCD0144A40F2BD
:1078AC001A3117F05FF8C6E7114A40F21F3117F092
:1078BC0059F8C8E70F4BD3F804350F4A009240F241
:1078CC0021320E49042007F0BBF8C5E7D96E02003F
:1078DC00C82F0020382E0020342E002031790200D1
:1078EC000D790200297902007C620400FC65040019
:1078FC005C5B040000100140F4620400955B040022
:10790C0010B5044600210F2000F09EFD04EB84040A
:10791C0062003221032000F0ADFD10BD08B500F06F
:10792C00DDFD08BD00B585B01F4B1B6813F4804FFF
:10793C0003D01E4B1B68032B1DDC01F00DF801F06E
:10794C003BF803A811F086FA174B1B6813F4804F11
:10795C0003D0164B1B68032B18DC00F0BFFD002175
:10796C000F2000F071FD0422C8210F2000F082FDD1
:10797C0005B05DF804FB0E4BD3F804350D4A0092AC
:10798C009B220D49042007F05BF8D6E7084BD3F88F
:10799C000435BDF80C200192084A0092A722064932
:1079AC00042007F04DF8D8E7382E0020342E0020A4
:1079BC00001001409C620400955B0400B862040056
:1079CC0008B5FFF76FFBFFF72DFFFEF7E1FCFCE7B7
:1079DC00422805D04D2801D0002070470120704767
:1079EC0001207047422803D04D2801D00020704759
:1079FC0009B9012070470220704710B5044690F871
:107A0C00A710B0F8A400FFF7EDFF0230B4F8AA30CD
:107A1C001844400080B210BDB0F8AA300133934234
:107A2C002EDA10B4002308E09A1CD0F8944014F815
:107A3C0003C001F802C001339BB2B0F8AA209A42ED
:107A4C00F2D8B0F8A4C0013AD2B20B786FF30003AD
:107A5C000B70DBB262F344030B700CF00702DBB269
:107A6C0003F01F0343EA42130B70CCF3C70C81F8ED
:107A7C0001C0B0F8AA00023080B25DF8044B704728
:107A8C0000207047B0F8AA300233934228DA10B4C1
:107A9C00002308E0DA1CD0F8944014F803C001F875
:107AAC0002C001339BB2B0F8AA209A42F2D8B0F8C7
:107ABC00A4C09AB1D3B2013BDBB20A7842F0010206
:107ACC000A70D2B263F347020A70A1F801C0B0F891
:107ADC00AA00033080B25DF8044B70477F23ECE7BB
:107AEC000020704770B504460D46B0F8A4300B80EA
:107AFC0090F8A63003F07F038B7090F8A72043EA30
:107B0C00C2138B7090F8A710B0F8A400FFF76AFFAF
:107B1C000023032209E0511CD4F8806016F803C03E
:107B2C0005F802C001339BB28AB28342F3D300231F
:107B3C0009E0511CD4F8846016F803C005F802C0A3
:107B4C0001339BB28AB28342F3D3531C9BB294F899
:107B5C00A810A954002207E0D4F88800591C805CB6
:107B6C00E854013292B28BB2B4F8AA109142F3D815
:107B7C00002207E0D4F88C00591C805CE8540132D8
:107B8C0092B28BB2B4F8AA109142F3D8284670BDC9
:107B9C00102905D8B0F5006F02D2023188B27047B7
:107BAC00033188B270472DE9F04180460D461646E8
:107BBC001F46FFF70DFF288000214046FFF712FFFC
:107BCC00044601214046FFF70DFF844238BF0446AE
:107BDC00A0B230802B8800EB430058304000388036
:107BEC002B881BB1338823B9002000E00020BDE8AE
:107BFC00F0810120FBE70000F8B50446A0B30E4667
:107C0C0015461F46BDF8182000211DF0B7FCA4F83E
:107C1C00A460A4F8AA50A4F8AC7029463046FFF72B
:107C2C00B7FFA4F8AE00102D04D8B6F5006F1DD325
:107C3C000F4B00E00E4BC4F8A03004F1B002C4F8B6
:107C4C0088205319C4F88C3002EB4503C4F89030EB
:107C5C0005EB45031344C4F8943002EB8502C4F8D9
:107C6C0080203A44C4F884202046F8BD014BE2E75A
:107C7C00917A0200257A0200002800F0B6802DE9E6
:107C8C00F04F87B08A460646022A40F2B080098837
:107C9C00B0F8A400884257D1023A94B20AF1020813
:107CAC009AF8025015F0700F68D105F07F09ED09B4
:107CBC002946FFF797FE0746844240F29A800AF164
:107CCC000301431C9BB21A189442C0F2948008EB37
:107CDC00030B92B29442C0F0908018F802A0BAF153
:107CEC001A0F67D8013292B2B6F8AA30D018844273
:107CFC00C0F2858008EB020005901A4492B213443E
:107D0C009C427EDB904486F8A69086F8A7503A46B3
:107D1C00D6F880001DF0FCFB3A465946D6F8840094
:107D2C001DF0F6FB86F8A8A0B6F8AA200599D6F89F
:107D3C0088001DF0EDFBB6F8AA204146D6F88C0061
:107D4C001DF0E6FB002009E02F4B1B6813F4804F5D
:107D5C0003D02E4B1B68002B03DC0B2007B0BDE8B7
:107D6C00F08F2B4BD3F8043502910190294A0092E5
:107D7C009C222949012006F063FEEEE7224B1B688A
:107D8C0013F4804F03D0214B1B68002B01DC0B201C
:107D9C00E4E71F4BD3F8043505F07F05002203926E
:107DAC00029501951D4A0092AF221B49012006F055
:107DBC0047FEECE7144B1B6813F4804F03D0134BB6
:107DCC001B68002B01DC0B20C8E7114BD3F80435E2
:107DDC000392CDF808A0CDF804A0114A0092D3224A
:107DEC000D49012006F02CFEEDE70E20704709200E
:107DFC00B4E70920B2E70920B0E70920AEE7092073
:107E0C00ACE70920AAE700BF382E0020342E002052
:107E1C0000100140B46604003E660400EC660400E9
:107E2C003C6704002DE9F0410D4616461F46DDF86F
:107E3C001880044628B121B11AB113B1B8F1000F62
:107E4C0002D1784600F09EFE237813F0010F13D177
:107E5C001946C3F3430201326378DB0043EA511342
:107E6C003B800234C8F80040327000232B70D8F8E5
:107E7C0000001044BDE8F08123785B087F2B0DD007
:107E8C000133B4F801203A800334C8F80040337051
:107E9C0001222A70D8F800001844EBE70023F0E721
:107EAC0038B504460D4621B104F001032B7060086F
:107EBC0038BD784600F066FEF6E7F0B585B00546AD
:107ECC0014460F46B9B1B2B12688234603AA0DF168
:107EDC000E012846FFF767FE88B12388B34210D8FD
:107EEC000093BDF80C30BDF80E2029463846FFF73C
:107EFC0083FE05B0F0BD784600F044FEE4E70020B8
:107F0C00F7E70020F5E7F8B50C4615461E46074680
:107F1C0008B102B113B9784600F034FE012C0CD92B
:107F2C00324629463888FFF7C8FF054622463946AF
:107F3C00FFF7A2FE18B92846F8BD0025FBE700257F
:107F4C00F9E770B50D461446064608B101B112B9F1
:107F5C00784600F017FE3046FFF74FFD238883422A
:107F6C0000D20020208000B970BD29463046FFF7B2
:107F7C00B9FDF9E769DF704703781F2B00D0704714
:107F8C00014B01221A70FAE74F3000203F4B1B784F
:107F9C00002B79D000B587B0012804D003286CD011
:107FAC0007B05DF804FB0023019301A9012015F033
:107FBC00ABFF00284BD100230393049305939DF84A
:107FCC000C20012363F303028DF80C20D2B263F36F
:107FDC0007128DF80C209DF80D2063F301028DF82B
:107FEC000D201823ADF81630019A03A94120FFF794
:107FFC00C1FF78BB01A815F0E1FF70BB244B1B68D7
:10800C0003B198470123029302A90DF1020011F06C
:10801C00A9FC28BBBDF8020011F00EF90DF101010D
:10802C0011F0A8FAF8B90CF0B1F89DF80110002085
:10803C000CF0A8FBD0B904F097F9D8B9134B002277
:10804C001A70134B5B68002BAAD09847A8E716F060
:10805C007BFCB0E716F078FCCCE716F075FCCDE7AE
:10806C0016F072FCD6E716F06FFCDCE7784600F0F1
:10807C0089FDE0E716F068FCE0E716F019F8002837
:10808C008ED016F061FC8BE7704700BF4E3000209D
:10809C005030002008B5064B01221A70054804F038
:1080AC00D1F904F0B3F900B908BD16F04DFCFBE7AB
:1080BC004E300020F02D002008B503781C2B00D08A
:1080CC0008BD074B1B78002BFAD016F035F818B901
:1080DC00044804F0BBF9F3E716F036FCF8E700BFF0
:1080EC004E300020F02D002008B5094B1B7863B9E9
:1080FC000849094817F0F0F840B903230022074952
:10810C004969074817F004F900E0082008BD00BFD2
:10811C004F3000206C300020D8330020503000202D
:10812C00A432002008B50378023B082B3FD8DFE8C7
:10813C0003F01C05113E3E2C3E3E36001E4B9B6848
:10814C00002B34D0007A002831D01C4A0121117048
:10815C0098472CE0184BDB684BB3184A127832B3B3
:10816C00164A00211170984721E0154B1B784BB92A
:10817C00114B1B691BB1114A002111709847FFF775
:10818C00B3FF14E0FFF786FF11E010220A4B996948
:10819C000C4817F040F950B116F0D6FB07E0816897
:1081AC00C0680AF033FC18B9054B01221A7008BDDF
:1081BC0016F0CAFBF8E700BF503000204C3000200E
:1081CC004D300020A432002010B586B08446224ADF
:1081DC0003AB07CA03C323F8022B120C1A701F4CF3
:1081EC00A646BCE80F00AEE80F009CE807008EE83E
:1081FC000700A369002B2DD0194B009303AB194A30
:10820C0019491A4817F026F8034610B1184606B05B
:10821C0010BD174818F0CEFD0146144817F046F86B
:10822C0003460028F2D1134818F044FF03460028F7
:10823C00ECD1104818F076FF01460C4817F036F8D0
:10824C0003460028E2D10C4804F0FCF8FFF74CFF81
:10825C000346DBE70723D9E7906704005030002082
:10826C00318102006C300020D8330020A432002071
:10827C008C30002054320020FC2D002008B5064B19
:10828C001B681BB906E0044B1B68984713F0F8FDFC
:10829C000028F8DA08BD00BF1834002010B50C46D1
:1082AC00134B1860134A012113481CF0F1FF98B9C5
:1082BC00610CE00341F27073984271F1000310D32A
:1082CC004FF47A7200231DF05BF8014600220B4834
:1082DC001CF0F4FF38B910BD094A4A2116F042FBD4
:1082EC00E6E70521F2E7064A4B2116F03BFBF2E7E5
:1082FC001834002089820200DC6704001C34002042
:10830C009C67040070B50546002403E00D4A9342B7
:10831C000ED80134032C14D80B4B1B5DAB42F8D197
:10832C000A4B1E6804F092FB331AEFD5831BEDE762
:10833C0004F08CFB054B1860054B1B6820469847D6
:10834C00E7E770BD801A0600E86704006834002077
:10835C00643400204FF0A043D3F80435C34013F02D
:10836C00010F0CBF012000207047000070B50546BE
:10837C000024264600E00134032C0AD80123A34034
:10838C002B42F8D0044B185DFFF7E4FFA0400643E6
:10839C00F1E7304670BD00BFEC67040008B511B1C1
:1083AC0015F0D5F808BD15F0CBF8FBE770B5054610
:1083BC00002400E00134032C0FD80123A3402B42EE
:1083CC00F8D0064B1E5D3046FFF7C4FF80F001016C
:1083DC00C9B23046FFF7E2FFECE770BDEC67040072
:1083EC0010B5144B1B684BB1134B1868FFF7DEFF2D
:1083FC00104B1C68013C1C6024B110BD002016F011
:10840C00A3FAF1E70D481CF07BFF00E00134032CCC
:10841C00F3D80123A340084A12681342F6D0084B44
:10842C001968E14001F00101064B185DFFF7B6FF3A
:10843C00ECE700BF3C3400204034002044340020E2
:10844C006C340020EC67040070B505460E46002421
:10845C0000E00134032C09D80123A3402B42F8D0AF
:10846C003146034B185DFFF799FFF2E770BD00BF73
:10847C00EC67040042B310B50C461346132900D820
:10848C0010BD124A10605B00013B114A1360FFF7EC
:10849C006DFF104B1860610CE40314F5FA704FF487
:1084AC007A724FF0000341F100011CF069FF0146A4
:1084BC00002209481CF002FF0028E1D10121034BE6
:1084CC001868FFF7C1FFDBE7704700BF403400209E
:1084DC003C3400206C3400204434002008B504489F
:1084EC001CF00EFF0021034B1868FFF7ADFF08BD11
:1084FC00443400204034002010B582B014F0B2FF98
:10850C0040B10024ADF804408DF8064001238DF8ED
:10851C00053007E014F05EFF0028F2D016F014FAD4
:10852C00EFE70134032C09D801A90A4B185D14F0AC
:10853C00A3FF0028F5D016F007FAF2E7064A01214E
:10854C0006481CF0A5FE08B902B010BD16F0FCF9E7
:10855C00FAE700BFEC670400ED830200E467040057
:10856C0060B310B582B0164A106014F07BFF40B1B6
:10857C00144B1B68ADF804301B0C8DF8063000242E
:10858C000CE014F027FF0028F2D016F0DDF9EFE72D
:10859C0001210D4B185D15F04BF80134032C0AD852
:1085AC000A4A01A9084B185D14F0D8FF0028EFD037
:1085BC0016F0CAF9ECE7002002B010BD0E2070478F
:1085CC0064340020E0670400E867040011830200B3
:1085DC00002800F082802DE9F04FD1B004463F4BCB
:1085EC001B6813F4804F03D03D4B1B68032B31DC0D
:1085FC003A4B1B6813F4804F03D0394B1B68032B89
:10860C002ADC51B0BDE8F08FE25C36490D681009E8
:10861C0059002E5C0FA800F8136002F00F02013114
:10862C00AA5C425401330F2BEED90FAA00238DF80C
:10863C005C3003F1804303F58833D3F804350292A0
:10864C00294A0192294A009242222949042006F023
:10865C00F7F9CDE70023E6E7264BD3F804350D9365
:10866C002068020202F47F0242EA0062010A01F46D
:10867C007F4142EA0108B4F804C04FEA0C2292B2DE
:10868C00B4F806E04FEA0E2189B2257A667AA77A09
:10869C00E37A94F80C9094F80DA094F80EB0E47B67
:1086AC000B94CDF828B0CDF824A0CDF820900793EA
:1086BC0006970596049541EA1E21039142EA1C2275
:1086CC00029248EA106001900B4A00920D9B4322E3
:1086DC000749042006F0B4F993E77047382E0020C0
:1086EC00342E00203C2E0020346804001C5C040056
:1086FC0022680400001001404868040072DF7047D3
:10870C0073DF704774DF70472DE9F047A2B007465E
:10871C0088469146324C002525606560A560E56071
:10872C0030490B78C3EB43102F4E064426602F4A7A
:10873C000244A2601F22A280A281013303F0010334
:10874C000B704FF03C0A5246294613A81CF016FF3A
:10875C0006238DF84F30ADF8487001238DF84A3060
:10876C00ADF85C3012AA1892ADF83C70ADF84090A0
:10877C00CDF844800DEB0A021D928DF878305246EC
:10878C00294668461CF0FAFE02238DF80030221DA3
:10879C00314613A815F0ABFA90B9114B03F10C024A
:1087AC009968684615F0A3FA68B9114A0C49114842
:1087BC00FFF7A4FF082809D070B922B0BDE8F087F4
:1087CC0016F0C2F8E9E716F0BFF8EEE7002204490C
:1087DC000848FFF793FFEFE716F0B6F8EDE700BF98
:1087EC00B43400207034002074340020C4340020D1
:1087FC000C2E0020082E0020B0F5202F0AD2074B9B
:10880C00A3FB0023DB0808B103B90123044A9381BD
:10881C00916070474FF6FF73F5E700BFCDCCCCCC21
:10882C000C2E002008B50121054B1878FFF768FFC6
:10883C0018B9002004F0F6FC08BD16F085F8F8E72E
:10884C00082E002008B5044B1878FFF75BFF00B921
:10885C0008BD16F079F8FBE7082E002076DF70478C
:10886C007ADF70477CDF704769DF704708B516F018
:10887C006BF808BD08B503F0EDFD08BD00B583B07D
:10888C00037823B1012B0BD003B05DF804FB3B2123
:10889C004088FFF7E3FF0028F6D016F055F8F3E711
:1088AC00094B1B6813F4804FEED0084B1B68032B4D
:1088BC00EADD074BD3F80435064A009268220649D4
:1088CC00042006F0BDF8DFE7382E0020342E0020FF
:1088DC0000100140D4680400BA68040000B585B0EB
:1088EC0015F0E6FB60BB0023039303A9012015F0F0
:1088FC000BFB40BB00230093019302939DF80020D7
:10890C00012363F303028DF80020D2B263F3071244
:10891C008DF800209DF8012063F301028DF80120F1
:10892C001823ADF80A30039A69464120FFF79CFFE3
:10893C0060B903A815F042FB58B905B05DF804FB0B
:10894C0016F002F8CFE715F0FFFFD3E715F0FCFFA8
:10895C00EFE715F0F9FFF0E700B585B09DF80C30A6
:10896C00012262F303038DF80C30DBB262F30713C0
:10897C008DF80C3018220F4903A8FFF773FF98B934
:10898C000023019302937823ADF80430C823ADF88B
:10899C0006304FF4C873ADF80A3001A8FFF760FF3A
:1089AC0028B905B05DF804FB15F0CEFFE8E715F02B
:1089BC00CBFFF6E70069040000B58BB001AA0023D9
:1089CC00019302937821ADF80410C821ADF806107C
:1089DC004FF4C871ADF80A100393049305930693F2
:1089EC00079308930993039240F6CD4304934FF4F5
:1089FC008033059303238DF81830074B0893074BEE
:108A0C00099303A815F040FD10B90BB05DF804FBF9
:108A1C0015F09AFFF9E700BF8988020079880200F7
:108A2C000620704700B587B044F2010398425DD030
:108A3C001BD8012836D041F20103984271D1474B23
:108A4C001B6813F4804F36D0454B1B68002B32DD6E
:108A5C00444BD3F8043502920191434A00926322AD
:108A6C004249012005F0ECFF25E044F20203984254
:108A7C0057D13A4B1B6813F4804F1CD0384B1B68F2
:108A8C00002B18DD374BD3F804351068039052686F
:108A9C0002920191364A009269223449012005F074
:108AAC00CFFF08E02D4B1B6813F4804F03D02C4BE9
:108ABC001B68002B0DDC4FF0A0434FF4F012C3F8F1
:108ACC001825C3F80C25EFF3108372B64DF6AD6C78
:108ADC003DE0244BD3F8043502920191254A0092D3
:108AEC0060222249012005F0ABFFE4E71B4B1B6819
:108AFC0013F4804FDFD01A4B1B68002BDBDD194BB6
:108B0C00D3F8043510680490506803900291926871
:108B1C000192194A009273221449012005F090FF2A
:108B2C00C9E70E4B1B6813F4804FC4D00C4B1B6869
:108B3C00002BC0DD0B4BD3F8043501910F4A00928A
:108B4C007B220A49012005F07BFFB4E730BF0C4BB8
:108B5C001B78002BFAD107B05DF804FB382E0020EF
:108B6C00342E0020001001407C6904004E69040082
:108B7C00A069040060690400C0690400E469040091
:108B8C00242E002000B583B0014600230093054B32
:108B9C0001936A4644F20200FFF744FF03B05DF80C
:108BAC0004FB00BFE866040010B40346044C0068E4
:108BBC0059689A68DB680FC45DF8044B704700BFB6
:108BCC00043500200E4B4FF0805202F1600103C9B6
:108BDC0083E8030003F1080CA43292E803008CE84C
:108BEC00030093F9062002F00F0242F040029A7142
:108BFC0093F9082002F03F0242F080021A7270478B
:108C0C00043500200048704704350020002308E09C
:108C1C00074901EBC30000224280426001F8332077
:108C2C0001331F2BF4D9034B00221A60704700BF8D
:108C3C00143500201436002000B58646114B1B68F5
:108C4C004FF0000C0BE01F230F4A12F83300B0B1A9
:108C5C0002EBC3025288724509D00CF1010CBCF135
:108C6C001F0F0BD85A1E002BEDD01346ECE7064A0B
:108C7C0002EBC30252688A42EFD100E000205DF89B
:108C8C0004FB00BF143600201435002010B40B4A2E
:108C9C0013680B4C04EBC30CACF80200CCF80410BA
:108CAC00012104F833100B441360202B02D05DF823
:108CBC00044B7047134600221A60F8E71436002064
:108CCC00143500200021072918D830B402E00131F6
:108CDC00072910D84FEA011C094C34F80CC0844504
:108CEC00F5D104EB0114A568E4689C4208BF9542D9
:108CFC00EDD1012000E0002030BC7047002070470F
:108D0C001836002030B4C3698469C288190A1B065E
:108D1C00C4F30C0C944519D2A2EB0C022244A2F51C
:108D2C0000529A1841F100010A4C23685D1C256021
:108D3C0003F00703B0F814C007481C0100EB031341
:108D4C0020F804C09A60D96030BC7047A2EB0C02CA
:108D5C002244E6E79836002018360020C37D9BB1EC
:108D6C00C2780B7803F080030B7002F07F02134380
:108D7C000B7002780B7803F07F030B7043EAC2137D
:108D8C000B7003789BB97047C2780B7803F0BF0364
:108D9C000B70920102F0400213430B70027903F046
:108DAC00C0030B7002F03F0213430B70E1E78278B3
:108DBC00082A14BF002201224B7803F07F034B706A
:108DCC0043EAC2134B70C288DBB203F080034B70D2
:108DDC00C2F3861C43EA0C034B708B7803F003033D
:108DEC008B7043EA82038B70027ADBB203F0FC03D4
:108DFC008B70C2F3C10C43EA0C038B70CB7803F07D
:108E0C001F03CB7043EA4213CB70427ADBB203F000
:108E1C00E003CB7002F01F021343CB70B3E70000EA
:108E2C00002300E00133032B28D8C3EBC30C144AF6
:108E3C0002EB0C1292F84820012AF3D1104A02EBF3
:108E4C000C12B2F814C0C2899445EBD1C3EBC30C1D
:108E5C000B4A02EB0C12D2888A42E3D1084A02EB8D
:108E6C000C12B2F858201AB1B0F814C06245D9D11E
:108E7C00C3EBC303024800EB03107047002070479C
:108E8C00C4360020002300E00133032B15D8C3EBBC
:108E9C00C3010B4A02EB011292F84820022AF3D1CB
:108EAC00074A02EB0112918A828A9142ECD1C3EB00
:108EBC00C303034800EB031070470020704700BF4A
:108ECC00C436002008B9042070470820704700B54C
:108EDC0003468C460978C17000214162DCF8081009
:108EEC000B2904D89CF80C1029B3012100E00121B6
:108EFC0019700020987031B1DCF808100731C908DE
:108F0C000139597218720121D97503F10C0E0CF14B
:108F1C00100103C98EE80300BCF80E109982DCF82E
:108F2C00181019629CF81C109975DCF82010D96285
:108F3C009A625DF804FB0021DAE7000000210E4B79
:108F4C001B688B4216D9002300E001330B4A02EB5D
:108F5C00C10252689A420BD9084A52F8312002EBEE
:108F6C00C30C12F833208242EFD1DCF804007047B6
:108F7C000131E4E7002070479C360020A036002029
:108F8C0070B58CB006460D4614462C22002101A863
:108F9C001CF0F4FA0F238DF80430ADF808609DF83E
:108FAC000A3065F300038DF80A308DF80B4001A8E8
:108FBC0001F012FA0CB070BD30B58DB005460C4600
:108FCC002C22002101A81CF0D9FA10238DF80430B2
:108FDC0002958DF80C4001A801F0FEF90DB030BDE2
:108FEC0000B58DB010B913F1020F06D1074B1868FC
:108FFC0004F054FB0DB05DF804FB01218DF8041056
:10900C000293039201A801F0E7F9EFE7A8360020DC
:10901C0070B5049C002962D01D468E46D2F800C063
:10902C0051689668D368C4F80CC021616661A3616D
:10903C00D2F810C05169C4F81CC0216200236370BF
:10904C000278D20922705AB30423734549D8E17DC2
:10905C0041B3037803F07F03E3700023A3709AB14C
:10906C0043789B0103F4FE53827843EA9203E38036
:10907C008378DB0003F01803C27843EA521323729F
:10908C00C37803F01F036372002363622B78032BF6
:10909C0021D82A78144B53F82230E362002070BD9B
:1090AC000123D2E70178C1F38011E170017801F05E
:1090BC003F01217142B190F90130002B02DB0423F6
:1090CC00A370CCE70823FBE70421A1700B44734584
:1090DC00C5D90920E3E77846FFF754FDD9E7092005
:1090EC00DDE70920DBE700BF806B040070B50C46A0
:1090FC001D4603789BB104263244A26000F10C0398
:10910C002360836A6360C36AE36000232374204690
:10911C0004F040FE10B9636933442B6070BD012626
:10912C00EAE72DE9F0418EB00D4616461C46804606
:10913C0000282DD0002D2FD0002C31D0636A0233A3
:10914C00059304F10C00E378002B2DD00121A278BB
:10915C0001AF3B46082A14BF0022012204F0E9FBB0
:10916C000697CDF81C80B2B2ADF820200B951544B3
:10917C000C95A3788DF83430237B022B16D000236A
:10918C00ADF8283005A804F0CCFB0EB0BDE8F0819A
:10919C007846FFF7F7FCCDE77846FFF7F3FCCBE713
:1091AC007846FFF7EFFCC9E70221D0E723692BB122
:1091BC00236909931023ADF82830E3E77846FFF7CD
:1091CC00E1FCF5E72DE9F04188B004460D46C37D7E
:1091DC00002B3CD0082605FB06F8637AAB4238D04E
:1091EC00257201AB324602A92046FFF77FFF0746E6
:1091FC0048BB4DB994F8533033B9A369C3F30C038E
:10920C00E380012384F85330E37D7BB994F852302A
:10921C0063B91DBBE06EB4F84A10A27823468A1AD3
:10922C000146FFF77EFF012384F852300799204650
:10923C00FFF794FDE16E3246414401981CF068F949
:10924C0002A804F0CDFD384608B0BDE8F0810C262C
:10925C00C1E7B4F84A60A6EB0806C1E77846FFF709
:10926C0091FCD7E770B505460E4609B100230B609B
:10927C0095F85040002104E0631C85F8503001340F
:10928C00E4B26B7AA34210D3EA6C0123A3401A42D6
:10929C00F5D121462846FFF795FF014628B9002E47
:1092AC00EAD0336801333360E6E7084670BDF0B5A9
:1092BC0089B004460E46154683789A18C37D63B16F
:1092CC000B239A4221D801AB02A92046FFF70EFFCF
:1092DC00074620B1384609B0F0BD0F23F1E70799D6
:1092EC002046FFF73BFDE37D43B12A46314601980A
:1092FC001CF00EF902A804F073FDEBE723462A4696
:10930C0001993046FFF70DFFF4E70927E2E700006B
:10931C0010B5044690F84830012B0CD103F096FBA5
:10932C00237B012B0BD0094BD968014404F130008D
:10933C0003F058FB10BD7846FFF724FCEEE7A27D46
:10934C00024BD9681B6903FB0211EEE7AC36002017
:10935C0030B583B0002403E02846FFF7D9FF013471
:10936C00032C17D8C4EBC4020B4B03EB021393F87A
:10937C004830012BF3D100230193074D05EB021567
:10938C0001A92846FFF76EFF0428E5D0019B002BAE
:10939C00E5D0E1E703B030BDC436002038B5044653
:1093AC0090F84830022B09D1064B1D6803F04EFB98
:1093BC00411904F1300003F015FB38BD7846FFF776
:1093CC00E1FBF1E7AC36002038B5044690F84830A4
:1093DC00022B10D10A4B5A7D5D689B6803FB02552A
:1093EC0003F034FB411904F1500003F0FBFA0123A4
:1093FC0084F8683038BD7846FFF7C4FBEAE700BF55
:10940C00AC36002010B50446808A02F067FE0128B5
:10941C001CD1237BE3B194F91620002A1ADBE27DE0
:10942C004AB1022B18D094F90330002B16DBA37829
:10943C00B3B900200BE0E2780AB9012B12D12378E2
:10944C0093B9A378042B11D1002000E0102010BD9B
:10945C001020FCE70720FAE71020F8E70720F6E7D2
:10946C000720F4E70720F2E70020F0E70720EEE7FB
:10947C0038B5044603784BB1C388C2698169808AC8
:10948C0006F030FE054645B9284638BDC2698169EB
:10949C00808A06F021FE0546F5E7E169002201F01D
:1094AC000101A08AFFF76CFDEEE700002DE9F04703
:1094BC0080460E4617464B1EDBB2012B0FD8B7F574
:1094CC00C07F10D80024032C1AD8C4EBC402314B33
:1094DC0003EB021393F848304BB10134F3E77846B1
:1094EC00FFF750FBEBE77846FFF74CFBEAE7DFF8BA
:1094FC00A49009EB0215384609F05FFAE86600E023
:10950C0000255DB3EB6E002B42D043462C4608F190
:10951C00300ED3F800C058689968DA68C4F800C0F7
:10952C006060A160E260103310347345F1D1002308
:10953C00EB64A5F84A70012E13D06FF00103AB62F7
:10954C00002385F86830144BAB652D66134BAB6369
:10955C002D64012002F048FA85F848602846BDE8E1
:10956C00F0870F4B1B7D85F85130002385F8523066
:10957C0085F8533085F85030D8F828206A65A5F85E
:10958C0058306FF00103AB62064BAB632D64E0E720
:10959C001D46E3E7C4360020F39F02000599020044
:1095AC00AC3600205199020000B585B000228DF830
:1095BC000F20A0B10B46024602320A600DF10F01DA
:1095CC00184604F0B2F99DF80F3043B10C4B1B68F0
:1095DC0013F0040F03D00B4B1B68032B04DC9DF81A
:1095EC000F0005B05DF804FB074BD3F80435074AB0
:1095FC00009240F215420649042005F021FAEEE7EC
:10960C00382E0020342E002000100140386A04004F
:10961C002C6A04002DE9F04391B005460E46144621
:10962C001F46D0F8188003784BB1C388C8F30C02DE
:10963C009A4230D29B1A4344A3F50053AB6105F117
:10964C000C00EB7853B30121AA780DF130094B468D
:10965C00082A14BF0022012204F06BF9C5F8188007
:10966C00CDF810900596AB78E21A92B2ADF81820AE
:10967C0016440A9609978DF82C300023ADF820304B
:10968C00EB78002B41D02B7B022B09D000236B6293
:10969C000193029316E09B1A4344CFE70221D3E7D0
:1096AC001023ADF820302B690793EFE710AB03EBD9
:1096BC00840454F83C3C6B62002011B0BDE8F0838C
:1096CC00019BB3B102AB01AA2979286A10F05CFCAA
:1096DC000024012CF4D810AB03EB840353F83C0C9E
:1096EC000028EDD003A9FFF75FFF0028DED101347D
:1096FC00EFE72B7B022B2CD105F10C01E88910F044
:10970C00FDFC0028BFD10520D7E72B7B012B01D016
:10971C000520D2E7EB89ADF80430AB8AADF8063002
:10972C000024012C13D82946002341F8243F10AB08
:10973C0003EB440333F83C0C10F04BFC03A9686AB0
:10974C00FFF732FF08B90134EBE70020B5E705203D
:10975C00B3E70520B1E7000070B5F0B00E46144633
:10976C001D4610AB0A4601462046FFF753FF50B189
:10977C00224B1B6813F0040F03D0214B1B68052BE5
:10978C002FDC70B070BD2046FFF772FE0028F8D1B8
:10979C0003AB01228DF80C20A28AADF80E2000221A
:1097AC0004928DF8142010AA0692A278B11AADF882
:1097BC001C1008AA93E8030082E803000AAB04F12A
:1097CC000C0292E8030083E80300A37D8DF8383087
:1097DC00236A0C93636A0D930F9505A800F0FCFDAA
:1097EC00CFE7084BD3F80435074A009240F20372D6
:1097FC000649062005F024F9C3E700BF382E0020E7
:10980C00342E0020001001404C6A04002C6A040025
:10981C0010B50446C06E09F0D4F804F1300003F022
:10982C00C9F894F84830022B08D070220021204649
:10983C001BF0A4FE002002F0D7F810BD04F150007C
:10984C0003F0B8F8F1E710B58CB0044690F8483046
:10985C00012B0FD101238DF80430636D029303F0BB
:10986C00F5F8039001A800F0B7FD2046FFF7D0FFF4
:10987C000CB010BD7846FFF785F9EBE730B585B035
:10988C000D460446A8B194F84830022B15D0294651
:10989C00606DFFF791FB2046FFF7BAFF114B1B6879
:1098AC0013F0040F03D0104B1B68032B09DC05B01D
:1098BC0030BD7846FFF766F9E5E72046FFF722FA58
:1098CC00E5E70A4BD3F8043594F848200295019249
:1098DC00074A009240F2F3120649042005F0B0F852
:1098EC00E5E700BF382E0020342E00200010014088
:1098FC00786A04002C6A040008B508460021FFF7BA
:10990C00BDFF08BD08B5037B012B02D0FFF79BFF01
:10991C0008BD0121FFF7B2FFFAE7000008B590F887
:10992C00513053B1013B80F85130002380F8503056
:10993C00034B186803F0B2FE08BDFFF7E3FFFBE72B
:10994C00A836002010B50C4691F84830012B03D1F5
:10995C002046FFF7E3FF10BD7846FFF713F9F7E752
:10996C0070B5C6B00E46154682782A44C37D2BB11D
:10997C004FF48073934278D3002303E04FF4C07309
:10998C00F8E70133032B14D8C3EBC30C394C04EBAD
:10999C000C1C9CF848100129F3D1BCF81440818AA6
:1099AC008C42EED1BCF80E40C1898C42E9D108251D
:1099BC0054E00121FFF77AFD0446002857D02A46CF
:1099CC003146C06E1BF0A4FD0023459345A92046EB
:1099DC00FFF748FC054608B1042842D1459B8BB9DA
:1099EC00254B1B6813F0040F37D0244B1B68032B3B
:1099FC0033DDB4F84AC0BCF1800F28BF4FF0800CA7
:109A0C00002313E02046FFF783FCE9E7E26ED25C0B
:109A1C001B490D68100959002E5C04A800F813604E
:109A2C0002F00F020131AA5C425401336345EDD3BD
:109A3C0004AA002302F81C3003F1804303F5883399
:109A4C00D3F8043502920F4A01920F4A00924FF458
:109A5C00AC620E49042004F0F3FF0025284646B002
:109A6C0070BD2046FFF7D4FEF8E70925F6E704257C
:109A7C00F4E700BFC4360020382E0020342E00201E
:109A8C003C2E00209C6A04001C5C04002C6A040020
:109A9C0070B504460D461646FFF7B4FC30B9237872
:109AAC002BB1324629462046FFF75AFF70BD32468D
:109ABC0029462046FFF7FBFBF8E7000038B50446C3
:109ACC000D46CB695B780371CB691B7883F001037E
:109ADC00C370CB6943628B8A0B2B07D8CB7A002BD4
:109AEC0035D10B7B012B02D0002300E00123237026
:109AFC00002B31D0287B02282BD0FFF7E3F9A07084
:109B0C00AB8A03440B33174A82FB03235B10013BE4
:109B1C006372002323720023E37504F10C0395E8B0
:109B2C00030083E80300AB6923622B89A382AB7A21
:109B3C00A3752B6AA362DF23E362284610F00CFBAB
:109B4C0020B12B78012B0AD0FF23E36238BD01230F
:109B5C00CDE7054B987DD0E70423A370DBE72023EA
:109B6C00F3E700BFABAAAA2AAC36002006297AD1AB
:109B7C00F0B585B0154690F800C04FEA8C1202F48F
:109B8C00FE5241788478C3781B0443EA0463047959
:109B9C0043EA0423407943EA00044FFA8CF642EA84
:109BAC0091012846FFF73CF90746E0B1002E2FDB68
:109BBC00C289A98A8A422BD02B4B1B6813F0040F45
:109BCC0030D02A4B1B68012B2CDD294BD3F80435E4
:109BDC0002910192274A009240F27D6226490220AE
:109BEC0004F02EFF1EE0204B1B6813F0040F19D05D
:109BFC001E4B1B68012B15DD1D4BD3F804351F4A7A
:109C0C00009240F279621C49022004F019FF09E02D
:109C1C00002E09DBFD6C2543FD644CB9032138464D
:109C2C00FFF72CFE05B0F0BDAB8AA7F85830F1E772
:109C3C003B7883B17A7A013201239340013B9D42F8
:109C4C000DD0002187F850103846FFF70BFB384633
:109C5C00FFF75EFBE6E77846FEF794FFEAE7384647
:109C6C00FFF7F1FDDEE77047382E0020342E002080
:109C7C0000100140DC6A04002C6A0400AC6A040089
:109C8C002DE9F0438BB007460E4614461D46104690
:109C9C00FFF7EEFB50B994F80380B8F1000F08D130
:109CAC002B46224631463846FFF760FF0BB0BDE825
:109CBC00F0834046FFF742F981460028F6D08DF834
:109CCC000480236A0793A38AADF8123005AB04F124
:109CDC000C0292E8030083E80300A37D8DF820308A
:109CEC000297039623788DF81030E36A099329467E
:109CFC0001A8C847DAE792F801C01CF0010F08D0A0
:109D0C0010B5D47D14B1FFF7BBFF10BDFFF724FDD8
:109D1C00FBE7704708B501390130FFF7ECFF08BDD0
:109D2C0010B54FF4E072002113481BF027FC06F02D
:109D3C00A5F90024114B1C608022214610481BF011
:109D4C001DFC104B104A1A60104A5A604CF25032EB
:109D5C009A600F49D9601A6104221A759C75082201
:109D6C005A750C4803F07AFC0B4B18600B4B1C60BB
:109D7C000B4806F081FC10BDC4360020983600203C
:109D8C0018360020AC36002080969800F04902006E
:109D9C0020A10700E59F0200A83600209C36002079
:109DAC00ED8F020008B506F089F908BD98B110B521
:109DBC008CB00446036983B1C36983B1836983B1F1
:109DCC0001466846FFF77AFEA28A21696846FFF7CA
:109DDC005FFE0CB010BD0E2070470E20F9E70E2070
:109DEC00F7E70E20F5E7000058B310B590B00A461F
:109DFC00044643683BB383693BB3014604A8FFF7B1
:109E0C0066F8134B1B6813F0040F03D0114B1B683F
:109E1C00062B06DCA268616804A8FFF739FE10B0B7
:109E2C0010BD0D4BD3F804352278A1690291019233
:109E3C000A4A009240F605020949072004F000FE88
:109E4C00E8E70E2070470E20E9E70E20E7E700BF99
:109E5C00382E0020342E002000100140206B04000E
:109E6C002C6A0400037B012B01D00020704730B515
:109E7C0091B004460D463F4B1B6813F0040F03D002
:109E8C003D4B1B68032B59DC04A900230493059359
:109E9C00CDF81730E0889DF8102002F080028DF884
:109EAC001020C0F3861C42EA0C028DF810209DF89D
:109EBC00112002F003028DF8112042EA80028DF885
:109ECC0011202A0E8DF812202A0C8DF813202A0A44
:109EDC008DF814208DF815506278022A0CBF0120E1
:109EEC0018469DF8102002F07F028DF8102042EAEF
:109EFC00C0128DF810204FF0060209924FF00102AB
:109F0C008DF82C20A28AADF82E200C938DF81C30E5
:109F1C000891226A0D928DF82830E36A0F9319D0BC
:109F2C00E389ADF82A30A37DF3B98DF838306FF0A2
:109F3C00010107A8FFF758FF11B030BD0F4BD3F844
:109F4C0004350F4A009240F263220E49042004F0BB
:109F5C0077FD99E70DF10E0103A810F0EBF8BDF8B1
:109F6C000C30ADF82A30DEE7074B5B7D8DF83830CE
:109F7C00DDE700BF382E0020342E002000100140F9
:109F8C004C6B04002C6A0400AC36002090F848306E
:109F9C00022B00D0704710B5044690F86830022BA5
:109FAC0000D010BDC16CFFF75DFF0028F9D1002374
:109FBC0084F86830F5E7000010B5002407E0C4EB26
:109FCC00C402130103481844FFF7E0FF0134032CCB
:109FDC00F5D910BDC436002008B5FFF7B9F9FFF765
:109FEC00EBFF012008BD10B50C4691F84830022B50
:109FFC0006D1022384F868302046FFF7C7FF10BD56
:10A00C007846FEF7BFFDF4E7F0B583B00446C169AE
:10A01C008369C2880E0A0906C3F30C0082422FD949
:10A02C00121A1A44A2F500528D1846F100062A465F
:10A03C003346A08AFEF746FE002840F08980204671
:10A04C00FEF720FF074630B3C2698069F988130A0E
:10A05C001206C0F30C0C8C4515D2A1EB0C0101447B
:10A06C00A1F50051521843F10003AA4273EB06010B
:10A07C000DD3954276EB030330D3384603B0F0BDD5
:10A08C00121A1A44D0E7A1EB0C010144EAE70521AE
:10A09C003846FFF7F3FBE388E269A169A08A06F072
:10A0AC00F5F8E8B9627A0132E37DA3B3082101FB2C
:10A0BC0002F293B34FF48073934231D302212046C2
:10A0CC00FFF7F4F907460028D7D100212046FFF707
:10A0DC00C9FE02210020FEF76FFFCEE70027CCE778
:10A0EC00E388E269A169A08A06F048F908B900275B
:10A0FC00C3E723785BB1637A0133012199400139BD
:10A10C002046FFF7AFFE2046FFF7B2F9EFE778469F
:10A11C00FEF738FDEFE70C21C9E74FF4C073CBE72E
:10A12C000C4B1B6813F0040F03D00B4B1B68002B5C
:10A13C0001DC0027A1E7094BD3F804350192084A4A
:10A14C00009240F27F320749012004F079FCF0E7DD
:10A15C00002792E7382E0020342E002000100140FA
:10A16C005C6B04002C6A04002DE9F04182B00746B8
:10A17C000E46144698461046FFF746FF002846D078
:10A18C000546404B1B6813F0040F03D03E4B1B6875
:10A19C00032B3FDC2846FFF701F92B7B012B47D023
:10A1AC00EB6C217A01228A40134230D11343EB64C9
:10A1BC00043E237AE27D002A42D04FF0080C0CFBBF
:10A1CC0003FC697A8B423ED0002A41D00823B3426B
:10A1DC0040D1AA69A3699A4209D205F10C0E0C343C
:10A1EC000FCCAEE80F0094E803008EE80300E86E95
:10A1FC003246391D60441BF08BF9EC6C2B7873B331
:10A20C006A7A013201239340013B9C422BD002B06D
:10A21C00BDE8F0811D4BD3F80435227A01921C4A1B
:10A22C00009240F2A3321B49042004F009FCB1E770
:10A23C0095F86830002BB3D12846FFF7C5F8AFE787
:10A24C004FF00C0CBBE70CEB0603A5F84A30C0E74B
:10A25C000C23BCE704212846FFF710FBD7E7784610
:10A26C00FEF790FCCCE7E96C2846FFF7FBFD434674
:10A27C002A46B5F84A10E86EFFF73DFD2846FFF771
:10A28C00C7FAC4E7382E0020342E002000100140FD
:10A29C00706B04002C6A04002DE9F04190B000288A
:10A2AC004CD00F4614461E468046002A48D004ABBC
:10A2BC0000933346FEF7ACFE054618B1284610B0A5
:10A2CC00BDE8F08104A8FFF79DF805460028F5D1FC
:10A2DC0000230293039302A960880FF00FFF28B1AB
:10A2EC009DF8113043F001038DF811302269E168BB
:10A2FC00208905F083FF38B19DF8113003F0FE037F
:10A30C008DF81130002BD9D09DF81130002BD5D001
:10A31C0013F0010F01D0039B08939DF8103033B15B
:10A32C00334604AA39464046FFF71EFFC6E73346BC
:10A33C0004AA39464046FFF7EDFCBFE70E25BDE702
:10A34C000E25BBE7F8B508B30E460546164B1F683D
:10A35C00F7B93C46B4420FD205EBC4035B68D3B1EA
:10A36C0015F8340015F93430002B16DBB8B1FEF7B4
:10A37C00E5FDB0B90134EDE70C4B43F8375003EB76
:10A38C00C7035E607B1C084A136002E00E2700E0E6
:10A39C0004273846F8BD0E27FBE70B27F9E70F27F4
:10A3AC00F7E70F27F5E700BF9C360020A03600200A
:10A3BC00084B196861B110B501E021463CB10C683D
:10A3CC000B79002BF9D0034804F0A5FAF5E710BD82
:10A3DC00704700BF8838002038B5054630B1104BA7
:10A3EC001C68C4B10F4B01221A7004E07846FEF7CA
:10A3FC00C9FBF4E724683CB12379002BFAD154F85B
:10A40C00043C28469847F5E7064B1B78022B03D0F3
:10A41C00044B00221A7038BDFFF7CAFFF8E700BFE3
:10A42C00883800208438002010B5044630B1002351
:10A43C002372211D034804F043FA10BD7846FEF741
:10A44C00A1FBF4E78838002010B5044658B10A4B3C
:10A45C001B78013BDBB2012B09D8074B02221A7087
:10A46C000123237210BD7846FEF78CFBEFE7211D0C
:10A47C00024804F050FAF5E78438002088380020B0
:10A48C000A8883689B5A07339BB223F00303134457
:10A49C009BB20288043A934200D900230B80704788
:10A4AC0010B582B004468368C91AADF806100DF1D8
:10A4BC000601FFF7E5FFBDF80630A068184402B0AE
:10A4CC0010BD0088043880B2704743888268D01869
:10A4DC00D1520123837070478268002393704380AC
:10A4EC008380704708B5073189B221F0030189B226
:10A4FC00428883889A4204D29B1A994220DC00201D
:10A50C0008BD9A4212D9B0F800C0ACEB020C614500
:10A51C0018D98B4218D3BCF1030F03D983681344A9
:10A52C0004229A70002343801846E9E782681A4493
:10A53C0093780BB10420E3E7FFF7CEFF0020DFE7B1
:10A54C000420DDE70020DBE70420D9E738B504461A
:10A55C000D468368828813448B4202D07846FEF7FE
:10A56C0011FB0023AB70211D2046FFF789FFA28849
:10A57C00A36813449B78042B00D038BD0023A38020
:10A58C00FBE710B50C468368428813448B4202D01B
:10A59C007846FEF7F7FA0023A37010BD70B5054698
:10A5AC0014460E46002944D0002D46D0B6F1005F6B
:10A5BC0008D94FF08053D3F80C3103F50023B6EBD8
:10A5CC00832F0ED3B6F5000F08D94FF08053D3F874
:10A5DC000C3103F50053B6EB832F02D37846FEF70C
:10A5EC00D1FA631E3344B3F1005F08D94FF08052A7
:10A5FC00D2F80C2102F50022B3EB822F0ED3B3F567
:10A60C00000F08D94FF08052D2F80C2102F50052FD
:10A61C00B3EB822F02D37846FEF7B4FA042C10D990
:10A62C002C8000236B80AB80AE60043C3480B37014
:10A63C0070BD7846FEF7A6FAB6E77846FEF7A2FAA2
:10A64C00B4E77846FEF79EFAEAE738B50446A0B1BF
:10A65C006288A36813449B78012B12D0EFF310850A
:10A66C0072B6A388A16819448B78032B0DD02046B1
:10A67C00FFF732FF05B962B638BD7846FEF782FAAD
:10A68C00E6E77846FEF77EFAE8E72046FFF708FF94
:10A69C00A368C31A638000238370EBE72DE9F041B4
:10A6AC000E4614460546D0B1EEB16A88AB68134429
:10A6BC009B78012B1BD024B32846FFF702FFA04246
:10A6CC0021D3EFF3108872B621462846FFF70AFF14
:10A6DC00074680B1B8F1000F16D162B614E0784687
:10A6EC00FEF750FAE0E77846FEF74CFADDE77846DD
:10A6FC00FEF748FADFE721462846FFF7E6FE306012
:10A70C00E8E7092700E009273846BDE8F081F8B5ED
:10A71C000C4615460646E0B1FCB1A378012B20D1BE
:10A72C002388AB4221D325B3EFF3108772B6258073
:10A73C000223A370F1183046FFF7A2FE7388B2888B
:10A74C00934203D0B268134400229A7007B962B6E0
:10A75C00F8BD7846FEF716FADEE77846FEF712FAF1
:10A76C00DBE77846FEF70EFADAE77846FEF70AFAE8
:10A77C00D9E77846FEF706FAD6E770B50C460546DB
:10A78C0090B1ACB1EFF3108672B6AA88AB681344E3
:10A79C009A78042A10D09A78022A15D0032A18D055
:10A7AC00052006B962B670BD7846FEF7EBF9E8E70E
:10A7BC007846FEF7E7F9E5E7291D2846FFF760FE26
:10A7CC00AA88AB681344E6E703229A702360002042
:10A7DC00E7E77846FEF7D6F90020E2E738B50446FD
:10A7EC0080B1EFF3108572B6A388A16819448B78F9
:10A7FC00042B0BD08878022814BF0020012005B947
:10A80C0062B638BD7846FEF7BDF9EAE72046FFF799
:10A81C0047FE0146EEE738B5054630B1EFF310843C
:10A82C0072B6AB88A968194407E07846FEF7AAF916
:10A83C00F4E72846FFF734FE01468878C31EDBB2E6
:10A84C00012BF6D9022814BF0020012004B962B6EE
:10A85C0038BD70B50C46064678B194B1EFF310854F
:10A86C0072B6A378012B10D0032B13D1214630469E
:10A87C00FFF76CFE05B962B670BD7846FEF782F93B
:10A88C00EBE77846FEF77EF9E8E721463046FFF71E
:10A89C0078FEEFE77846FEF775F9EBE710B5EFF3C6
:10A8AC00108472B68388816819448B78042B06D087
:10A8BC008878B0FA80F0400904B962B610BDFFF791
:10A8CC00EFFD0146F4E70000024B00221A769A6075
:10A8DC00022070478C38002008B5064B986800227F
:10A8EC001A605A609A60DA601A615A619A6105F0CE
:10A8FC006FF808BD8C38002000B585B00A4BDB68BA
:10A90C0002228DF8002001934FF480530293074AE2
:10A91C006946012001F0F8FA18B9012005B05DF87C
:10A92C0004FB0020FAE700BF8C380020AA38002076
:10A93C0000B585B00A4B1B6802228DF800200193EC
:10A94C004FF480530293074A6946012001F0DCFA68
:10A95C0018B9012005B05DF804FB0020FAE700BF30
:10A96C00AC380020AA380020164BDA6813795179DC
:10A97C005B1A03F57F2303F6FF7302EB03339A4252
:10A98C0005D002F580520F4BDA600320704700B5FA
:10A99C0085B00D4B1B6801208DF8000001930B4B0B
:10A9AC000393042302930A4A694601F0ADFA18B1E5
:10A9BC00002005B05DF804FB024B01221A76022040
:10A9CC00F7E700BF8C380020AC380020B0380020EE
:10A9DC00AA38002000B585B00C4BDA680C4B1B680C
:10A9EC00043301208DF800000192039340F6FC73B0
:10A9FC000293084A694601F087FA28B90120034BF3
:10AA0C00187605B05DF804FB0020FAE78C380020BE
:10AA1C00AC380020AA38002000B585B00A4B1B6862
:10AA2C0001208DF800000193084B0393042302933B
:10AA3C00074A694601F068FA18B9012005B05DF8BB
:10AA4C0004FB0020FAE700BFAC3800209838002047
:10AA5C00AA38002010B584B0104BDA681478104B6B
:10AA6C001B68043301208DF80000019303920294BB
:10AA7C000C4A694601F048FA70B9094B1B6804F09E
:10AA8C00FC0423440433054A5361D1680B780B440E
:10AA9C001361012004B010BD0020FBE78C380020AE
:10AAAC00AC380020AA38002008B500230A2B09D89E
:10AABC00064A52F82320824201D00133F6E7044AB9
:10AACC00536002E07846FEF75DF808BD086C0400A0
:10AADC008C38002010B5214BDB6853B11F4B1B7E0B
:10AAEC005BB91E4B5B680A2B26D97846FEF74AF8F1
:10AAFC0022E07846FEF746F8F0E77846FEF742F893
:10AB0C00EFE7164A5368013353600A2B21D9784674
:10AB1C00FEF738F81DE0114B00225A6019E00F4B7C
:10AB2C001B7E1BB10D4B02221A7012E0FFF7D4FEF4
:10AB3C000FE00A4B1B7E83B9084B5A68084B53F83D
:10AB4C002230984704460228E9D00328E3D0012894
:10AB5C00D7D0012CEDD0032CEBD010BD8C380020BD
:10AB6C00086C0400104B1B681B685A1E12F1030F73
:10AB7C0018D8C3F30B020AB10020704710B50B4A6A
:10AB8C00D360002313765376012414709360084825
:10AB9C00FFF78AFF0749204601F0A4F9FFF79AFF57
:10ABAC00204610BD00207047AC3800208C380020A7
:10ABBC0005A90200C5AB020008B50B78032B06D023
:10ABCC000B4B1B78012B06D0022B0BD008BD084B6E
:10ABDC0000221A76F4E7064B1B7E002BF6D1FFF70A
:10ABEC0079FFF3E70B78032BF0D1FFF775FEEDE758
:10ABFC008C38002000B585B0174BDB6818784FF601
:10AC0C00FF7203F58051184405F0ECFCE0B10246EC
:10AC1C00114BD9680B780B44984217D00E4B5B7EC6
:10AC2C0083B10E4B01208DF8000001920393042395
:10AC3C0002930B4A694601F067F948B90120064BAB
:10AC4C00187606E0074BEDE7012002E0012000E05A
:10AC5C00002005B05DF804FB8C380020606E040009
:10AC6C00AA3800205C6E040008B5104BDB6818781D
:10AC7C00002203F58051184405F0B4FC08B1012002
:10AC8C0008BD0A4BDA68137951795B1A03F57F23F7
:10AC9C0003F6FF7302EB03339A4205D002F58052A0
:10ACAC00024BDA600320EBE70220E9E78C38002046
:10ACBC00F0B585B0514BDE6872793379591E8A42F2
:10ACCC0014D006F580510D780D444D490968081DC6
:10ACDC000F7907449B1A06EB03366B88013B9BB23A
:10ACEC0047F6FE62934260D92C461AE00120434B92
:10ACFC0058767EE07846FDF745FF15E024F47F6436
:10AD0C0024F00F0404F5805423781C44A6421CD96B
:10AD1C00A5421CD26388013B9BB247F6FE6293426C
:10AD2C0011D92388002BE5D0238804EB830323F46B
:10AD3C007F6222F00F029342E0D06288B2F5FE4FA0
:10AD4C00DCD01C46E2E725462FE000252DE000254F
:10AD5C002BE07846FDF716FF15E024F47F6424F011
:10AD6C000F0404F5805423781C44A6421CD9A54238
:10AD7C0037D26388013B9BB247F6FE62934211D9EE
:10AD8C002388002BE5D0238804EB830323F47F6214
:10AD9C0022F00F029342E0D06288B2F5FE4FDCD075
:10ADAC001C46E2E7254600E00025E5B1144B196886
:10ADBC006A8801F58051384605F014FC074690B1BD
:10ADCC0001200E4B18768DF8000001950D4B039366
:10ADDC00042302930C4A694601F096F858B92C46A4
:10ADEC00CEE70025E1E7B5FA85F56D09034B5D76F5
:10ADFC00012005B0F0BD0020FBE700BF8C3800201F
:10AE0C00AC380020586E0400AA3800202DE9F0411F
:10AE1C0086B0654B1B6923B1634B5B692BB1002773
:10AE2C0048E07846FDF7AEFEF6E77846FDF7AAFE59
:10AE3C00F5E7A04618E07846FDF7A4FE18E028F4E4
:10AE4C007F6828F00F0808F5805898F8003098446F
:10AE5C00454520D944454AD2B8F80230013B9BB253
:10AE6C0047F6FE62934214D9B8F80030002BE2D0BA
:10AE7C00B8F8003008EB830323F47F6222F00F0252
:10AE8C009342DCD0B8F80220B2F5FE4FD7D09846EA
:10AE9C00DEE7444600E000243CBB00230093019B0A
:10AEAC00002B5CD10127002C78D0628847F6FF7309
:10AEBC009A4273D0002F75D13B4B5A6922F47F66AE
:10AECC0026F00F06B61A06F580561C69DD682B793C
:10AEDC006A799B1A05EB0335002301936388013BC8
:10AEEC009BB247F6FE629342A3D800940EE0002476
:10AEFC00D2E77846FDF746FE23E024F47F6323F087
:10AF0C000F0303F580531A7813441C46A542C6D987
:10AF1C002388019A02EB83029642C0D9009B6340BE
:10AF2C0023F47F6323F00F03002BB8D16388013B1C
:10AF3C009BB247F6FE618B42B1D801922388002B5D
:10AF4C00D7D0238804EB830323F47F6222F00F0213
:10AF5C009342D2D06288B2F5FE4FD6D1CDE7124AD9
:10AF6C00526901208DF808000392009A059204930F
:10AF7C000E4A02A900F0C8FF70B90B49019B23F0DF
:10AF8C0003024B6913444B6114B1074B1C618AE7F4
:10AF9C007846FDF7F7FDF8E7002000E0012006B049
:10AFAC00BDE8F0810120FAE78C380020AA38002097
:10AFBC0000B585B00023294A1370D3F8F83FB3F1DC
:10AFCC00FF3F09D0B3F1FF3F0DD08BB1B3F1FF3F81
:10AFDC0039D0A3F5805211E04FF010225269B2F132
:10AFEC00FF3FEFD104E04FF010225269002AEDD15F
:10AFFC004FF080535A691B6903FB02F2A2F5805291
:10B00C00174B1A60174B1B6813F4801F16D0164B86
:10B01C001B68062B12DD154BD3F804350021D1F833
:10B02C00F81FB1F1FF3F14D002920191104A009227
:10B03C0040F276220F49072003F002FDFFF792FD44
:10B04C0005B05DF804FB4FF010235A69A2F580524D
:10B05C00D4E74FF010214969E6E700BFA83800207B
:10B06C00AC380020382E0020342E00200010014077
:10B07C00D46B0400BC6B040010B50446B0B1104B8B
:10B08C001B78BBB10E4BD968E3685879A3EB00323F
:10B09C00914211D31A79121A02F57F2202F6FF722D
:10B0AC0003EB0233994209D8012004E07846FDF7FE
:10B0BC0069FDE4E7002010BD0020FCE70020FAE762
:10B0CC008C380020024B1878003818BF01207047CC
:10B0DC008C38002010B50446124B1B78BBB9237872
:10B0EC00032B18D10F4B9C60E268DA600E4B1B7877
:10B0FC00ABB10A220B4B5A6000221A760120187051
:10B10C005A760A4900F0EEFEFFF7E4FC10BD7846D3
:10B11C00FDF738FDE3E77846FDF734FDE2E7002262
:10B12C00E8E700BF8C380020A8380020C5AB02002F
:10B13C00014B1868704700BFAC38002010B50446AE
:10B14C0080B163681BB123680BB1A36813B978464F
:10B15C00FDF718FDA3685A1E134207D10023E360C4
:10B16C00236110BD7846FDF70DFDEAE77846FDF743
:10B17C0009FDF3E770B508B30E4604468368FBB1CE
:10B18C00EFF3108572B60369C268934212D001685E
:10B19C004268806800F1FF3C03EA0C0303FB0211D8
:10B1AC0016B130461AF0B4F92369013323614DB955
:10B1BC0062B608E005B962B6052504E00E2502E08A
:10B1CC00092500E00025284670BD00000246C0F3AA
:10B1DC000B0030BB39B301F6FF714FEA113C134B36
:10B1EC000221C3F80415114BD3F80034002BFAD00C
:10B1FC0001460AE00D4BC3F808250C4BD3F800347C
:10B20C00002BFAD002F5805201316145F2D3074B85
:10B21C000022C3F80425054BD3F80034002BFAD0D8
:10B22C007047102070470920704700BF00E00140B4
:10B23C00844610F0030F2DD111F0030F2CD16AB3FB
:10B24C0012F0030F2CD19008164B0122C3F80425E1
:10B25C00144BD3F80034002BFAD003E00CF1040C9F
:10B26C0004311046421E58B10B68B3F1FF3FF5D0C4
:10B27C00CCF800300B4BD3F80034002BFAD0EDE7B0
:10B28C00084B0022C3F80425064BD3F80034002BDE
:10B29C00FAD0704710207047102070470920704773
:10B2AC000920704700E00140094B1B7813F0040F94
:10B2BC0002D00378122B00D07047064B1A68064B4D
:10B2CC005A60034B1A786FF382021A70F4E700BFCE
:10B2DC005839002048390020E438002010B582B0DD
:10B2EC0001900C46BDF80630012B11D123680A4998
:10B2FC000B600A4B1A7842F001021A70D3B25B0849
:10B30C0083F0010303F001030B71002002B010BDA8
:10B31C007846FDF737FCE9E748390020583900201A
:10B32C0010B582B001900C46BDF80630022B0FD13F
:10B33C002268094B1A6022791A7100205871987191
:10B34C00D871064A137843F00203137002B010BD93
:10B35C007846FDF717FCEBE7403900205839002000
:10B36C0010B582B001900C46BDF80630032B06D107
:10B37C00054B186820601B79237102B010BD78460C
:10B38C00FDF700FCF4E700BF4839002010B582B08F
:10B39C0001900C46BDF80630032B0CD1084B2068ED
:10B3AC00186022791A71074A137843F0010313705D
:10B3BC00002002B010BD7846FDF7E4FBEEE700BFBD
:10B3CC00483900205839002010B582B001900C4645
:10B3DC00BDF80630042B05D1044B03CB2060616013
:10B3EC0002B010BD7846FDF7CDFBF5E740390020E3
:10B3FC0010B582B001900C46BDF80630042B0BD171
:10B40C00074B2068616803C3064A137843F00203B4
:10B41C001370002002B010BD7846FDF7B3FBEFE7C8
:10B42C00403900205839002000B583B00190BDF898
:10B43C000630032B06D1054B00221A601A7103B09B
:10B44C005DF804FB7846FDF79DFBF4E748390020D6
:10B45C0000B583B00190BDF80630042B06D1054B26
:10B46C0000221A605A6003B05DF804FB7846FDF7C1
:10B47C0089FBF4E74039002000B585B01A4B1B78E6
:10B48C0013F0400F13D0184B1B7813F0040F0BD193
:10B49C00002301938DF80830144B5B6803F50053BF
:10B4AC000193B3F1807F06D905B05DF804FB7846B3
:10B4BC00FDF768FBE7E70E4B1B788DF808300A4A5E
:10B4CC00137843F0040313700023ADF80C300323FE
:10B4DC00ADF80E3001A9039806F066FA0028E3D007
:10B4EC007846FDF74FFBDFE758390020E4380020A1
:10B4FC005939002000B585B00022019202920F4B01
:10B50C00996801911B7B8DF808300D490B7801333C
:10B51C00DBB20B708DF80B30ADF80C200423ADF8BA
:10B52C000E300DEB0301039806F03EFA10B905B08E
:10B53C005DF804FB7846FDF725FBF8E7E4380020BE
:10B54C005939002000B585B00023019302930F4AAE
:10B55C0091680191117B8DF80810128AADF80920C1
:10B56C000B4A12788DF80B20ADF80C300423ADF893
:10B57C000E300DEB0301039806F016FA10B905B066
:10B58C005DF804FB7846FDF7FDFAF8E7E438002097
:10B59C005939002000B58DB00B4B1B7B012B0ED005
:10B5AC00094A926804928DF80830039002238DF8B2
:10B5BC00043001A8FEF710FF0DB05DF804FB024A41
:10B5CC009268013A0492EEE7E438002008B51D4871
:10B5DC001D4B036000F036FF1C4B1B7813F0200F43
:10B5EC002AD103F00303032B14D1194B1968194A00
:10B5FC00916019791173B3F805001082DB79164A42
:10B60C001370164A1279934217D0B1B9114B00221C
:10B61C001A6007E00F4B00221A609A601A731A82A4
:10B62C00FFF768FF0B4B1A685A60084A137843F00F
:10B63C0040031370FFF720FF08BD084B1A68054B39
:10B64C001A60EFE734390020B5B2020058390020F7
:10B65C0040390020E43800205939002048390020B6
:10B66C0010B582B00024ADF800400123ADF80230D3
:10B67C00009806F0CAF9ADF804400223ADF8063084
:10B68C00019806F0C2F902B010BD000008B5002008
:10B69C0006F0E2F9094A0023136053609360D3600B
:10B6AC001361074A117863F345111170CBB243F063
:10B6BC0040031370FFF7E0FE08BD00BFE438002024
:10B6CC005839002038B50C4D00242C606C60AC60EF
:10B6DC00EC602C6101F0BAF9084B5860084A9A608A
:10B6EC00084ADA601C615C61074B1A7864F3C30288
:10B6FC001A706C6038BD00BFE4380020C0380020E0
:10B70C0071B80200008793035839002008B50C4B20
:10B71C001B7813F0100F00D008BD0A480A4B0360C9
:10B72C0000F090FEFFF752FFFFF79AFF074801F079
:10B73C0011F9034A137843F010031370ECE700BFC0
:10B74C0058390020D8380020C9B90200C038002070
:10B75C00034B1878800880F0010000F0010070475E
:10B76C005839002010B501F0FBFE174B1B7B1BBB9F
:10B77C00154B9B7B2BBB144B1A8A41F282639A426A
:10B78C0006D8124B1B7813F0080F05D0012300E0EC
:10B79C0001231BB9082410E00023FAE70A4B01220D
:10B7AC001A7300241C829A6801329A60FFF7A2FE79
:10B7BC002046FFF7EFFE00E0082401F017FF2046BB
:10B7CC0010BD0824F9E700BFE438002058390020E8
:10B7DC0010B501F0C5FE214B5B7BABB11F4B9B7BC6
:10B7EC0003BB1E4B1A8A41F282639A4206D81C4B49
:10B7FC001B7813F0080F05D0012300E001239BB147
:10B80C00012302E00023FAE700231C460BB3134B81
:10B81C0000225A731B7B4BB1012B0ED07846FDF7DF
:10B82C00B1F916E00023F0E70023EEE7FFF79AFFEB
:10B83C0078B17846FDF7A6F90BE0084B00201860AC
:10B84C00586018731882FFF7A5FEFFF753FEFFF739
:10B85C0013FE01F0CBFE204610BD00BFE4380020E3
:10B86C005839002008B52C4B1B7BDBB1012B2ED09B
:10B87C007846FDF787F9284A138A01339BB2138265
:10B88C00264AA2FB03121209C2EB0212A3EB4203DB
:10B89C009BB2002B3DD0204B5B8A13B1013B1E4A5F
:10B8AC00538208BD1C4B1A8A41F282639A4206D815
:10B8BC001B4B1B7813F0080F07D0012300E001236A
:10B8CC00002BD8D0FFF784FFE5E70023F8E7124BF5
:10B8DC001B8A41F28262934206D8114A127812F006
:10B8EC00080F14D0012200E00122002AC3D042F23A
:10B8FC00B012934202D9084B01225A73FFF768FF2A
:10B90C000028C8D1044B5B7B012BB4D1C3E70022C8
:10B91C00EBE7FFF717FEBEE7E4380020898888883C
:10B92C005839002010B5244B1B7B002B35D1044615
:10B93C00214B5B8A2BBB1AB91F4B9B688B4205D3DF
:10B94C00FAB11D4B9B6801338B421AD21A4B9B6880
:10B95C002A338B4223D3184B9B7B03BB164B99602A
:10B96C0000221A605A601A8242F6065159825A73A2
:10B97C001A73FFF7BFFDFFF77FFD2046FFF70AFEA6
:10B98C000DE062B10C4B9B6801338B4207D10A4B23
:10B99C0001225A73FFF71CFF01E0012B00D010BDF0
:10B9AC00002AFCD1044B9B688B42F8D1024B01223C
:10B9BC005A73FFF70DFFF2E7E43800200378042BED
:10B9CC0000D0704743681B78002BFAD010B5846800
:10B9DC00027E437E012A14BF00220122416904F138
:10B9EC001000FFF79FFF10BD08B538B10D4B0122B9
:10B9FC009A730D4A13680133136008BD0A4B1B6818
:10BA0C005BB1094A1368013B1360002BF5D1054B60
:10BA1C0000229A73FFF7DCFEEFE77846FDF7B2F8E9
:10BA2C00EFE700BFE4380020B438002000B58DB03B
:10BA3C00ADF808008DF81020039103238DF8043025
:10BA4C0001A8FEF7C9FC0DB05DF804FB014B98682A
:10BA5C00704700BFE4380020054B1B7B012B02D044
:10BA6C00034B98687047024B98680138704700BFC9
:10BA7C00E43800201D4B1B7813F0400F34D070B508
:10BA8C0004460D461A4B1A685B689A4228D2184B2A
:10BA9C001B7B012B17D0174B9A4216D2144B1A68EA
:10BAAC005B68403B9A4218D2EFF3108672B6104A8C
:10BABC001368591C11602B60FFF7CEFF206006B98C
:10BACC0062B6002070BD0C4BE6E7094B01225A739D
